{
  "contractName": "Admin",
  "abi": [
    {
      "inputs": [],
      "stateMutability": "nonpayable",
      "type": "constructor"
    },
    {
      "anonymous": false,
      "inputs": [
        {
          "indexed": true,
          "internalType": "address",
          "name": "entityAddress",
          "type": "address"
        },
        {
          "indexed": false,
          "internalType": "string",
          "name": "role",
          "type": "string"
        }
      ],
      "name": "VerificationRequested",
      "type": "event"
    },
    {
      "anonymous": false,
      "inputs": [
        {
          "indexed": true,
          "internalType": "address",
          "name": "entityAddress",
          "type": "address"
        },
        {
          "indexed": false,
          "internalType": "string",
          "name": "role",
          "type": "string"
        },
        {
          "indexed": false,
          "internalType": "enum Admin.VerificationStatus",
          "name": "status",
          "type": "uint8"
        }
      ],
      "name": "VerificationUpdated",
      "type": "event"
    },
    {
      "inputs": [],
      "name": "admin",
      "outputs": [
        {
          "internalType": "address",
          "name": "",
          "type": "address"
        }
      ],
      "stateMutability": "view",
      "type": "function",
      "constant": true
    },
    {
      "inputs": [
        {
          "internalType": "address",
          "name": "",
          "type": "address"
        },
        {
          "internalType": "string",
          "name": "",
          "type": "string"
        }
      ],
      "name": "entityRoles",
      "outputs": [
        {
          "internalType": "enum Admin.VerificationStatus",
          "name": "",
          "type": "uint8"
        }
      ],
      "stateMutability": "view",
      "type": "function",
      "constant": true
    },
    {
      "inputs": [
        {
          "internalType": "uint256",
          "name": "",
          "type": "uint256"
        }
      ],
      "name": "verificationRequests",
      "outputs": [
        {
          "internalType": "address",
          "name": "entityAddress",
          "type": "address"
        },
        {
          "internalType": "string",
          "name": "role",
          "type": "string"
        },
        {
          "internalType": "enum Admin.VerificationStatus",
          "name": "status",
          "type": "uint8"
        }
      ],
      "stateMutability": "view",
      "type": "function",
      "constant": true
    },
    {
      "inputs": [
        {
          "internalType": "string",
          "name": "role",
          "type": "string"
        }
      ],
      "name": "requestVerification",
      "outputs": [],
      "stateMutability": "nonpayable",
      "type": "function"
    },
    {
      "inputs": [
        {
          "internalType": "address",
          "name": "entityAddress",
          "type": "address"
        },
        {
          "internalType": "string",
          "name": "role",
          "type": "string"
        },
        {
          "internalType": "bool",
          "name": "approve",
          "type": "bool"
        }
      ],
      "name": "verifyEntity",
      "outputs": [],
      "stateMutability": "nonpayable",
      "type": "function"
    },
    {
      "inputs": [],
      "name": "getVerificationRequests",
      "outputs": [
        {
          "components": [
            {
              "internalType": "address",
              "name": "entityAddress",
              "type": "address"
            },
            {
              "internalType": "string",
              "name": "role",
              "type": "string"
            },
            {
              "internalType": "enum Admin.VerificationStatus",
              "name": "status",
              "type": "uint8"
            }
          ],
          "internalType": "struct Admin.VerificationRequest[]",
          "name": "",
          "type": "tuple[]"
        }
      ],
      "stateMutability": "view",
      "type": "function",
      "constant": true
    },
    {
      "inputs": [
        {
          "internalType": "address",
          "name": "entityAddress",
          "type": "address"
        },
        {
          "internalType": "string",
          "name": "role",
          "type": "string"
        }
      ],
      "name": "isVerified",
      "outputs": [
        {
          "internalType": "bool",
          "name": "",
          "type": "bool"
        }
      ],
      "stateMutability": "view",
      "type": "function",
      "constant": true
    }
  ],
  "bytecode": "0x608060405234801561001057600080fd5b50600080546001600160a01b03191633179055610e75806100326000396000f3fe608060405234801561001057600080fd5b506004361061007d5760003560e01c8063b396cd1a1161005b578063b396cd1a146100d7578063d43a550a146100ea578063f851a44014610136578063fb2a22ea1461016157600080fd5b80634089d49f146100825780635583bcc7146100ad5780636cbff42a146100c2575b600080fd5b6100956100903660046108c2565b610184565b6040516100a493929190610963565b60405180910390f35b6100b561024f565b6040516100a4919061099e565b6100d56100d0366004610ad7565b610389565b005b6100d56100e5366004610b28565b610596565b6101296100f8366004610b8f565b6001602090815260009283526040909220815180830184018051928152908401929093019190912091525460ff1681565b6040516100a49190610bdd565b600054610149906001600160a01b031681565b6040516001600160a01b0390911681526020016100a4565b61017461016f366004610b8f565b61086c565b60405190151581526020016100a4565b6002818154811061019457600080fd5b6000918252602090912060039091020180546001820180546001600160a01b039092169350906101c390610beb565b80601f01602080910402602001604051908101604052809291908181526020018280546101ef90610beb565b801561023c5780601f106102115761010080835404028352916020019161023c565b820191906000526020600020905b81548152906001019060200180831161021f57829003601f168201915b5050506002909301549192505060ff1683565b60606002805480602002602001604051908101604052809291908181526020016000905b8282101561038057600084815260209081902060408051606081019091526003850290910180546001600160a01b0316825260018101805492939192918401916102bc90610beb565b80601f01602080910402602001604051908101604052809291908181526020018280546102e890610beb565b80156103355780601f1061030a57610100808354040283529160200191610335565b820191906000526020600020905b81548152906001019060200180831161031857829003601f168201915b505050918352505060028281015460209092019160ff169081111561035c5761035c61092b565b600281111561036d5761036d61092b565b8152505081526020019060010190610273565b50505050905090565b3360009081526001602052604080822090516103a6908490610c25565b9081526040519081900360200190205460ff1660028111156103ca576103ca61092b565b146104305760405162461bcd60e51b815260206004820152602b60248201527f566572696669636174696f6e20616c726561647920726571756573746564206f60448201526a1c881c1c9bd8d95cdcd95960aa1b60648201526084015b60405180910390fd5b33600090815260016020526040808220905161044d908490610c25565b908152604051908190036020019020805460ff191660018360028111156104765761047661092b565b021790555060408051606081018252338152602081018381526000928201839052600280546001810182559352815160039093027f405787fa12a823e0f2b7631cc41b3ba8828b3321ca811111fa75cd3aa3bb5ace810180546001600160a01b039095166001600160a01b031990951694909417845590519192917f405787fa12a823e0f2b7631cc41b3ba8828b3321ca811111fa75cd3aa3bb5acf909101906105209082610c90565b5060408201518160020160006101000a81548160ff0219169083600281111561054b5761054b61092b565b02179055505050336001600160a01b03167f3e88386275b9210d2542c58c3bb829eaff9aa4e1319632dc33df14060f294cac8260405161058b9190610d50565b60405180910390a250565b6000546001600160a01b031633146105fa5760405162461bcd60e51b815260206004820152602160248201527f4f6e6c792061646d696e2063616e2063616c6c20746869732066756e6374696f6044820152603760f91b6064820152608401610427565b6001600160a01b0383166000908152600160205260408082209051610620908590610c25565b9081526040519081900360200190205460ff1660028111156106445761064461092b565b146106915760405162461bcd60e51b815260206004820181905260248201527f4e6f2070656e64696e67207265717565737420666f72207468697320726f6c656044820152606401610427565b60008161069f5760026106a2565b60015b6001600160a01b03851660009081526001602052604090819020905191925082916106ce908690610c25565b908152604051908190036020019020805460ff191660018360028111156106f7576106f761092b565b021790555060005b60025481101561082257846001600160a01b03166002828154811061072657610726610d6a565b60009182526020909120600390910201546001600160a01b03161480156107bb5750836040516020016107599190610c25565b604051602081830303815290604052805190602001206002828154811061078257610782610d6a565b90600052602060002090600302016001016040516020016107a39190610d80565b60405160208183030381529060405280519060200120145b156108105781600282815481106107d4576107d4610d6a565b906000526020600020906003020160020160006101000a81548160ff021916908360028111156108065761080661092b565b0217905550610822565b8061081a81610df6565b9150506106ff565b50836001600160a01b03167fb37acd88b761975ad9a8b28d148b9b99eaf8231bc08b9d70ae36bfe2ecf44659848360405161085e929190610e1d565b60405180910390a250505050565b6001600160a01b03821660009081526001602081905260408083209051610894908590610c25565b9081526040519081900360200190205460ff1660028111156108b8576108b861092b565b1490505b92915050565b6000602082840312156108d457600080fd5b5035919050565b60005b838110156108f65781810151838201526020016108de565b50506000910152565b600081518084526109178160208601602086016108db565b601f01601f19169290920160200192915050565b634e487b7160e01b600052602160045260246000fd5b6003811061095f57634e487b7160e01b600052602160045260246000fd5b9052565b6001600160a01b0384168152606060208201819052600090610987908301856108ff565b90506109966040830184610941565b949350505050565b60006020808301818452808551808352604092508286019150828160051b87010184880160005b83811015610a2657888303603f19018552815180516001600160a01b03168452878101516060898601819052906109fe828701826108ff565b915050878201519150610a1388860183610941565b95880195935050908601906001016109c5565b509098975050505050505050565b634e487b7160e01b600052604160045260246000fd5b600082601f830112610a5b57600080fd5b813567ffffffffffffffff80821115610a7657610a76610a34565b604051601f8301601f19908116603f01168101908282118183101715610a9e57610a9e610a34565b81604052838152866020858801011115610ab757600080fd5b836020870160208301376000602085830101528094505050505092915050565b600060208284031215610ae957600080fd5b813567ffffffffffffffff811115610b0057600080fd5b61099684828501610a4a565b80356001600160a01b0381168114610b2357600080fd5b919050565b600080600060608486031215610b3d57600080fd5b610b4684610b0c565b9250602084013567ffffffffffffffff811115610b6257600080fd5b610b6e86828701610a4a565b92505060408401358015158114610b8457600080fd5b809150509250925092565b60008060408385031215610ba257600080fd5b610bab83610b0c565b9150602083013567ffffffffffffffff811115610bc757600080fd5b610bd385828601610a4a565b9150509250929050565b602081016108bc8284610941565b600181811c90821680610bff57607f821691505b602082108103610c1f57634e487b7160e01b600052602260045260246000fd5b50919050565b60008251610c378184602087016108db565b9190910192915050565b601f821115610c8b57600081815260208120601f850160051c81016020861015610c685750805b601f850160051c820191505b81811015610c8757828155600101610c74565b5050505b505050565b815167ffffffffffffffff811115610caa57610caa610a34565b610cbe81610cb88454610beb565b84610c41565b602080601f831160018114610cf35760008415610cdb5750858301515b600019600386901b1c1916600185901b178555610c87565b600085815260208120601f198616915b82811015610d2257888601518255948401946001909101908401610d03565b5085821015610d405787850151600019600388901b60f8161c191681555b5050505050600190811b01905550565b602081526000610d6360208301846108ff565b9392505050565b634e487b7160e01b600052603260045260246000fd5b6000808354610d8e81610beb565b60018281168015610da65760018114610dbb57610dea565b60ff1984168752821515830287019450610dea565b8760005260208060002060005b85811015610de15781548a820152908401908201610dc8565b50505082870194505b50929695505050505050565b600060018201610e1657634e487b7160e01b600052601160045260246000fd5b5060010190565b604081526000610e3060408301856108ff565b9050610d63602083018461094156fea2646970667358221220e6a108febd27d1989f68f25de88d6913ff090d28ffd8a2a1351b6a2c3009842464736f6c63430008130033",
  "immutableReferences": {},
  "source": "// SPDX-License-Identifier: MIT\npragma solidity ^0.8.0;\n\ncontract Admin {\n    address public admin;\n\n    enum VerificationStatus { Pending, Approved, Rejected }\n    \n    struct VerificationRequest {\n        address entityAddress;\n        string role;\n        VerificationStatus status;\n    }\n\n    mapping(address => mapping(string => VerificationStatus)) public entityRoles;\n    VerificationRequest[] public verificationRequests;\n\n    event VerificationRequested(address indexed entityAddress, string role);\n    event VerificationUpdated(address indexed entityAddress, string role, VerificationStatus status);\n\n    constructor() {\n        admin = msg.sender;\n    }\n\n    modifier onlyAdmin() {\n        require(msg.sender == admin, \"Only admin can call this function\");\n        _;\n    }\n\n    function requestVerification(string memory role) external {\n        require(entityRoles[msg.sender][role] == VerificationStatus.Pending, \"Verification already requested or processed\");\n        entityRoles[msg.sender][role] = VerificationStatus.Pending;\n        verificationRequests.push(VerificationRequest(msg.sender, role, VerificationStatus.Pending));\n        emit VerificationRequested(msg.sender, role);\n    }\n\n    function verifyEntity(address entityAddress, string memory role, bool approve) external onlyAdmin {\n        require(entityRoles[entityAddress][role] == VerificationStatus.Pending, \"No pending request for this role\");\n        VerificationStatus newStatus = approve ? VerificationStatus.Approved : VerificationStatus.Rejected;\n        entityRoles[entityAddress][role] = newStatus;\n\n        for (uint i = 0; i < verificationRequests.length; i++) {\n            if (verificationRequests[i].entityAddress == entityAddress && \n                keccak256(abi.encodePacked(verificationRequests[i].role)) == keccak256(abi.encodePacked(role))) {\n                verificationRequests[i].status = newStatus;\n                break;\n            }\n        }\n\n        emit VerificationUpdated(entityAddress, role, newStatus);\n    }\n\n    function getVerificationRequests() external view returns (VerificationRequest[] memory) {\n        return verificationRequests;\n    }\n\n    function isVerified(address entityAddress, string memory role) external view returns (bool) {\n        return entityRoles[entityAddress][role] == VerificationStatus.Approved;\n    }\n}",
  "sourcePath": "D:\\Amrita\\SEM2\\BCT\\Supply-chain-main\\contracts\\Admin.sol",
  "compiler": {
    "name": "solc",
    "version": "0.8.19+commit.7dd6d404.Emscripten.clang"
  },
  "schemaVersion": "3.4.16",
  "updatedAt": "2025-05-05T20:18:46.246Z",
  "networkType": "ethereum",
  "devdoc": {
    "kind": "dev",
    "methods": {},
    "version": 1
  },
  "userdoc": {
    "kind": "user",
    "methods": {},
    "version": 1
  }
}