{
  "contractName": "Admin",
  "abi": [
    {
      "inputs": [],
      "stateMutability": "nonpayable",
      "type": "constructor"
    },
    {
      "anonymous": false,
      "inputs": [
        {
          "indexed": true,
          "internalType": "address",
          "name": "user",
          "type": "address"
        },
        {
          "indexed": false,
          "internalType": "enum Admin.Role",
          "name": "role",
          "type": "uint8"
        }
      ],
      "name": "VerificationRequested",
      "type": "event"
    },
    {
      "anonymous": false,
      "inputs": [
        {
          "indexed": true,
          "internalType": "address",
          "name": "user",
          "type": "address"
        },
        {
          "indexed": false,
          "internalType": "enum Admin.Role",
          "name": "role",
          "type": "uint8"
        },
        {
          "indexed": false,
          "internalType": "enum Admin.VerificationStatus",
          "name": "status",
          "type": "uint8"
        }
      ],
      "name": "VerificationUpdated",
      "type": "event"
    },
    {
      "inputs": [],
      "name": "admin",
      "outputs": [
        {
          "internalType": "address",
          "name": "",
          "type": "address"
        }
      ],
      "stateMutability": "view",
      "type": "function",
      "constant": true
    },
    {
      "inputs": [
        {
          "internalType": "uint256",
          "name": "",
          "type": "uint256"
        }
      ],
      "name": "requests",
      "outputs": [
        {
          "internalType": "address",
          "name": "user",
          "type": "address"
        },
        {
          "internalType": "enum Admin.Role",
          "name": "role",
          "type": "uint8"
        },
        {
          "internalType": "enum Admin.VerificationStatus",
          "name": "status",
          "type": "uint8"
        }
      ],
      "stateMutability": "view",
      "type": "function",
      "constant": true
    },
    {
      "inputs": [
        {
          "internalType": "address",
          "name": "",
          "type": "address"
        },
        {
          "internalType": "enum Admin.Role",
          "name": "",
          "type": "uint8"
        }
      ],
      "name": "userRoles",
      "outputs": [
        {
          "internalType": "enum Admin.VerificationStatus",
          "name": "",
          "type": "uint8"
        }
      ],
      "stateMutability": "view",
      "type": "function",
      "constant": true
    },
    {
      "inputs": [
        {
          "internalType": "enum Admin.Role",
          "name": "role",
          "type": "uint8"
        }
      ],
      "name": "requestVerification",
      "outputs": [],
      "stateMutability": "nonpayable",
      "type": "function"
    },
    {
      "inputs": [
        {
          "internalType": "address",
          "name": "user",
          "type": "address"
        },
        {
          "internalType": "enum Admin.Role",
          "name": "role",
          "type": "uint8"
        }
      ],
      "name": "approveVerification",
      "outputs": [],
      "stateMutability": "nonpayable",
      "type": "function"
    },
    {
      "inputs": [
        {
          "internalType": "address",
          "name": "user",
          "type": "address"
        },
        {
          "internalType": "enum Admin.Role",
          "name": "role",
          "type": "uint8"
        }
      ],
      "name": "rejectVerification",
      "outputs": [],
      "stateMutability": "nonpayable",
      "type": "function"
    },
    {
      "inputs": [],
      "name": "getRequests",
      "outputs": [
        {
          "components": [
            {
              "internalType": "address",
              "name": "user",
              "type": "address"
            },
            {
              "internalType": "enum Admin.Role",
              "name": "role",
              "type": "uint8"
            },
            {
              "internalType": "enum Admin.VerificationStatus",
              "name": "status",
              "type": "uint8"
            }
          ],
          "internalType": "struct Admin.VerificationRequest[]",
          "name": "",
          "type": "tuple[]"
        }
      ],
      "stateMutability": "view",
      "type": "function",
      "constant": true
    },
    {
      "inputs": [
        {
          "internalType": "address",
          "name": "user",
          "type": "address"
        },
        {
          "internalType": "enum Admin.Role",
          "name": "role",
          "type": "uint8"
        }
      ],
      "name": "isVerified",
      "outputs": [
        {
          "internalType": "bool",
          "name": "",
          "type": "bool"
        }
      ],
      "stateMutability": "view",
      "type": "function",
      "constant": true
    }
  ],
  "bytecode": "0x608060405234801561001057600080fd5b50600080546001600160a01b03191633179055610b97806100326000396000f3fe608060405234801561001057600080fd5b50600436106100885760003560e01c806381d12c581161005b57806381d12c58146101185780638813ce121461013a578063f851a4401461014f578063f85e93a41461017a57600080fd5b80630149a38b1461008d5780632565d44f146100a2578063496dbd72146100b55780637068eb93146100dd575b600080fd5b6100a061009b36600461094e565b61018d565b005b6100a06100b0366004610970565b6103a5565b6100c86100c3366004610970565b610534565b60405190151581526020015b60405180910390f35b61010b6100eb366004610970565b600160209081526000928352604080842090915290825290205460ff1681565b6040516100d491906109db565b61012b6101263660046109e9565b6105a3565b6040516100d493929190610a12565b6101426105e2565b6040516100d49190610a44565b600054610162906001600160a01b031681565b6040516001600160a01b0390911681526020016100d4565b6100a0610188366004610970565b6106bb565b336000908152600160205260408120818360048111156101af576101af6109b1565b60048111156101c0576101c06109b1565b815260208101919091526040016000205460ff1660028111156101e5576101e56109b1565b036102375760405162461bcd60e51b815260206004820152601d60248201527f416c726561647920726571756573746564206f7220766572696669656400000060448201526064015b60405180910390fd5b33600090815260016020526040812081836004811115610259576102596109b1565b600481111561026a5761026a6109b1565b81526020810191909152604001600020805460ff19166001836002811115610294576102946109b1565b021790555060026040518060600160405280336001600160a01b031681526020018360048111156102c7576102c76109b1565b81526000602091820181905283546001810185559381528190208251930180546001600160a01b039094166001600160a01b031985168117825591830151929390929183916001600160a81b03191617600160a01b83600481111561032e5761032e6109b1565b021790555060408201518154829060ff60a81b1916600160a81b83600281111561035a5761035a6109b1565b02179055505050336001600160a01b03167f2fef5e33cb29317179402e73a3fcaa53650f2b548a2597c2a2f4e1a39c7f8e458260405161039a9190610ab9565b60405180910390a250565b6000546001600160a01b031633146103cf5760405162461bcd60e51b815260040161022e90610ac7565b6001600160a01b0382166000908152600160205260408120818360048111156103fa576103fa6109b1565b600481111561040b5761040b6109b1565b815260208101919091526040016000205460ff166002811115610430576104306109b1565b146104735760405162461bcd60e51b815260206004820152601360248201527252657175657374206e6f742070656e64696e6760681b604482015260640161022e565b6001600160a01b03821660009081526001602052604081206002918360048111156104a0576104a06109b1565b60048111156104b1576104b16109b1565b81526020810191909152604001600020805460ff191660018360028111156104db576104db6109b1565b02179055506104ec8282600261083f565b816001600160a01b03167fa6e72d1f76ed15d033b47bcc7278de1edd0e7bb1cc5034b1dc47ee038bcb13dc826002604051610528929190610b09565b60405180910390a25050565b600060016001600160a01b038416600090815260016020526040812090846004811115610563576105636109b1565b6004811115610574576105746109b1565b815260208101919091526040016000205460ff166002811115610599576105996109b1565b1490505b92915050565b600281815481106105b357600080fd5b6000918252602090912001546001600160a01b038116915060ff600160a01b8204811691600160a81b90041683565b60606002805480602002602001604051908101604052809291908181526020016000905b828210156106b2576000848152602090819020604080516060810190915290840180546001600160a01b03811683529192909190830190600160a01b900460ff166004811115610658576106586109b1565b6004811115610669576106696109b1565b81528154602090910190600160a81b900460ff16600281111561068e5761068e6109b1565b600281111561069f5761069f6109b1565b8152505081526020019060010190610606565b50505050905090565b6000546001600160a01b031633146106e55760405162461bcd60e51b815260040161022e90610ac7565b6001600160a01b038216600090815260016020526040812081836004811115610710576107106109b1565b6004811115610721576107216109b1565b815260208101919091526040016000205460ff166002811115610746576107466109b1565b146107895760405162461bcd60e51b815260206004820152601360248201527252657175657374206e6f742070656e64696e6760681b604482015260640161022e565b6001600160a01b0382166000908152600160208190526040822090918360048111156107b7576107b76109b1565b60048111156107c8576107c86109b1565b81526020810191909152604001600020805460ff191660018360028111156107f2576107f26109b1565b02179055506108038282600161083f565b816001600160a01b03167fa6e72d1f76ed15d033b47bcc7278de1edd0e7bb1cc5034b1dc47ee038bcb13dc826001604051610528929190610b09565b60005b60025481101561093457836001600160a01b03166002828154811061086957610869610b24565b6000918252602090912001546001600160a01b03161480156108d45750826004811115610898576108986109b1565b600282815481106108ab576108ab610b24565b600091825260209091200154600160a01b900460ff1660048111156108d2576108d26109b1565b145b156109225781600282815481106108ed576108ed610b24565b6000918252602090912001805460ff60a81b1916600160a81b836002811115610918576109186109b1565b0217905550610934565b8061092c81610b3a565b915050610842565b50505050565b80356005811061094957600080fd5b919050565b60006020828403121561096057600080fd5b6109698261093a565b9392505050565b6000806040838503121561098357600080fd5b82356001600160a01b038116811461099a57600080fd5b91506109a86020840161093a565b90509250929050565b634e487b7160e01b600052602160045260246000fd5b600381106109d7576109d76109b1565b9052565b6020810161059d82846109c7565b6000602082840312156109fb57600080fd5b5035919050565b600581106109d7576109d76109b1565b6001600160a01b038416815260608101610a2f6020830185610a02565b610a3c60408301846109c7565b949350505050565b602080825282518282018190526000919060409081850190868401855b82811015610aac57815180516001600160a01b0316855286810151610a8888870182610a02565b50850151610a98858701826109c7565b506060939093019290850190600101610a61565b5091979650505050505050565b6020810161059d8284610a02565b60208082526022908201527f4f6e6c792061646d696e2063616e20706572666f726d2074686973206163746960408201526137b760f11b606082015260800190565b60408101610b178285610a02565b61096960208301846109c7565b634e487b7160e01b600052603260045260246000fd5b600060018201610b5a57634e487b7160e01b600052601160045260246000fd5b506001019056fea264697066735822122055f939938a46dbc3ddf41eca51cf7a8cf547a11a96fdf04a1f789798d406c82164736f6c63430008130033",
  "immutableReferences": {},
  "source": "// SPDX-License-Identifier: MIT\r\npragma solidity ^0.8.0;\r\n\r\ncontract Admin {\r\n    address public admin;\r\n\r\n    enum VerificationStatus { Pending, Approved, Rejected }\r\n    enum Role { Supplier, Manufacturer, MRO, Airline, RegulatoryAuthority }\r\n\r\n    struct VerificationRequest {\r\n        address user;\r\n        Role role;\r\n        VerificationStatus status;\r\n    }\r\n\r\n    mapping(address => mapping(Role => VerificationStatus)) public userRoles;\r\n    VerificationRequest[] public requests;\r\n\r\n    event VerificationRequested(address indexed user, Role role);\r\n    event VerificationUpdated(address indexed user, Role role, VerificationStatus status);\r\n\r\n    constructor() {\r\n        admin = msg.sender;\r\n    }\r\n\r\n    modifier onlyAdmin() {\r\n        require(msg.sender == admin, \"Only admin can perform this action\");\r\n        _;\r\n    }\r\n\r\n    function requestVerification(Role role) external {\r\n        require(userRoles[msg.sender][role] != VerificationStatus.Pending, \"Already requested or verified\");\r\n\r\n        userRoles[msg.sender][role] = VerificationStatus.Pending;\r\n        requests.push(VerificationRequest(msg.sender, role, VerificationStatus.Pending));\r\n\r\n        emit VerificationRequested(msg.sender, role);\r\n    }\r\n\r\n    function approveVerification(address user, Role role) external onlyAdmin {\r\n        require(userRoles[user][role] == VerificationStatus.Pending, \"Request not pending\");\r\n\r\n        userRoles[user][role] = VerificationStatus.Approved;\r\n        updateRequestStatus(user, role, VerificationStatus.Approved);\r\n\r\n        emit VerificationUpdated(user, role, VerificationStatus.Approved);\r\n    }\r\n\r\n    function rejectVerification(address user, Role role) external onlyAdmin {\r\n        require(userRoles[user][role] == VerificationStatus.Pending, \"Request not pending\");\r\n\r\n        userRoles[user][role] = VerificationStatus.Rejected;\r\n        updateRequestStatus(user, role, VerificationStatus.Rejected);\r\n\r\n        emit VerificationUpdated(user, role, VerificationStatus.Rejected);\r\n    }\r\n\r\n    function updateRequestStatus(address user, Role role, VerificationStatus status) internal {\r\n        for (uint i = 0; i < requests.length; i++) {\r\n            if (requests[i].user == user && requests[i].role == role) {\r\n                requests[i].status = status;\r\n                break;\r\n            }\r\n        }\r\n    }\r\n\r\n    function getRequests() external view returns (VerificationRequest[] memory) {\r\n        return requests;\r\n    }\r\n\r\n    //  Updated to check for 'Approved' status\r\n    function isVerified(address user, Role role) external view returns (bool) {\r\n        return userRoles[user][role] == VerificationStatus.Approved;\r\n    }\r\n}\r\n",
  "sourcePath": "D:\\Amrita\\SEM2\\BCT\\loki-main\\contracts\\Admin.sol",
  "compiler": {
    "name": "solc",
    "version": "0.8.19+commit.7dd6d404.Emscripten.clang"
  },
  "schemaVersion": "3.4.16",
  "updatedAt": "2025-05-20T01:49:26.317Z",
  "networkType": "ethereum",
  "devdoc": {
    "kind": "dev",
    "methods": {},
    "version": 1
  },
  "userdoc": {
    "kind": "user",
    "methods": {},
    "version": 1
  }
}