{
  "contractName": "Airline",
  "abi": [
    {
      "inputs": [
        {
          "internalType": "address",
          "name": "_admin",
          "type": "address"
        }
      ],
      "stateMutability": "nonpayable",
      "type": "constructor"
    },
    {
      "anonymous": false,
      "inputs": [
        {
          "indexed": true,
          "internalType": "address",
          "name": "airline",
          "type": "address"
        }
      ],
      "name": "AirlineRegistered",
      "type": "event"
    },
    {
      "anonymous": false,
      "inputs": [
        {
          "indexed": true,
          "internalType": "uint256",
          "name": "orderId",
          "type": "uint256"
        },
        {
          "indexed": true,
          "internalType": "address",
          "name": "airline",
          "type": "address"
        },
        {
          "indexed": false,
          "internalType": "address",
          "name": "supplier",
          "type": "address"
        },
        {
          "indexed": false,
          "internalType": "uint256",
          "name": "quantity",
          "type": "uint256"
        }
      ],
      "name": "OrderPlaced",
      "type": "event"
    },
    {
      "inputs": [],
      "name": "admin",
      "outputs": [
        {
          "internalType": "contract Admin",
          "name": "",
          "type": "address"
        }
      ],
      "stateMutability": "view",
      "type": "function",
      "constant": true
    },
    {
      "inputs": [
        {
          "internalType": "address",
          "name": "",
          "type": "address"
        }
      ],
      "name": "isAirline",
      "outputs": [
        {
          "internalType": "bool",
          "name": "",
          "type": "bool"
        }
      ],
      "stateMutability": "view",
      "type": "function",
      "constant": true
    },
    {
      "inputs": [
        {
          "internalType": "address",
          "name": "_airline",
          "type": "address"
        }
      ],
      "name": "registerAirline",
      "outputs": [],
      "stateMutability": "nonpayable",
      "type": "function"
    },
    {
      "inputs": [
        {
          "internalType": "string",
          "name": "_aircraftId",
          "type": "string"
        },
        {
          "internalType": "string",
          "name": "_model",
          "type": "string"
        }
      ],
      "name": "addFleet",
      "outputs": [],
      "stateMutability": "nonpayable",
      "type": "function"
    },
    {
      "inputs": [
        {
          "internalType": "address",
          "name": "_supplier",
          "type": "address"
        },
        {
          "internalType": "string",
          "name": "_materialId",
          "type": "string"
        },
        {
          "internalType": "uint256",
          "name": "_quantity",
          "type": "uint256"
        }
      ],
      "name": "placeOrder",
      "outputs": [],
      "stateMutability": "nonpayable",
      "type": "function"
    },
    {
      "inputs": [],
      "name": "getFleets",
      "outputs": [
        {
          "components": [
            {
              "internalType": "string",
              "name": "aircraftId",
              "type": "string"
            },
            {
              "internalType": "string",
              "name": "model",
              "type": "string"
            },
            {
              "internalType": "string",
              "name": "status",
              "type": "string"
            }
          ],
          "internalType": "struct Utils.Fleet[]",
          "name": "",
          "type": "tuple[]"
        }
      ],
      "stateMutability": "view",
      "type": "function",
      "constant": true
    },
    {
      "inputs": [],
      "name": "getParts",
      "outputs": [
        {
          "components": [
            {
              "internalType": "uint256",
              "name": "partId",
              "type": "uint256"
            },
            {
              "internalType": "string",
              "name": "name",
              "type": "string"
            },
            {
              "internalType": "string",
              "name": "description",
              "type": "string"
            },
            {
              "internalType": "address",
              "name": "manufacturer",
              "type": "address"
            },
            {
              "internalType": "enum Utils.PartStatus",
              "name": "status",
              "type": "uint8"
            }
          ],
          "internalType": "struct Utils.Part[]",
          "name": "",
          "type": "tuple[]"
        }
      ],
      "stateMutability": "view",
      "type": "function",
      "constant": true
    },
    {
      "inputs": [],
      "name": "getDeliveries",
      "outputs": [
        {
          "components": [
            {
              "internalType": "uint256",
              "name": "deliveryId",
              "type": "uint256"
            },
            {
              "internalType": "uint256",
              "name": "orderId",
              "type": "uint256"
            },
            {
              "internalType": "address",
              "name": "supplier",
              "type": "address"
            },
            {
              "internalType": "address",
              "name": "receiver",
              "type": "address"
            },
            {
              "internalType": "string",
              "name": "status",
              "type": "string"
            },
            {
              "internalType": "uint256",
              "name": "timestamp",
              "type": "uint256"
            }
          ],
          "internalType": "struct Utils.Delivery[]",
          "name": "",
          "type": "tuple[]"
        }
      ],
      "stateMutability": "view",
      "type": "function",
      "constant": true
    }
  ],
  "bytecode": "0x608060405234801561001057600080fd5b5060405161116638038061116683398101604081905261002f916100ae565b6001600160a01b0381166100895760405162461bcd60e51b815260206004820152601c60248201527f41646d696e20616464726573732063616e6e6f74206265207a65726f00000000604482015260640160405180910390fd5b600080546001600160a01b0319166001600160a01b03929092169190911790556100de565b6000602082840312156100c057600080fd5b81516001600160a01b03811681146100d757600080fd5b9392505050565b611079806100ed6000396000f3fe608060405234801561001057600080fd5b50600436106100885760003560e01c8063bb97e6d41161005b578063bb97e6d414610104578063bdfd987714610119578063cc5dc4521461012c578063f851a4401461013f57600080fd5b80630e248a111461008d578063138e0b26146100c557806321d4209c146100da5780633261f66b146100ef575b600080fd5b6100b061009b3660046106b3565b60016020526000908152604090205460ff1681565b60405190151581526020015b60405180910390f35b6100cd61016a565b6040516100bc9190610727565b6100ed6100e836600461090d565b6101e0565b005b6100f7610352565b6040516100bc9190610966565b61010c6103c3565b6040516100bc9190610a33565b6100ed6101273660046106b3565b610434565b6100ed61013a366004610ac6565b610604565b600054610152906001600160a01b031681565b6040516001600160a01b0390911681526020016100bc565b60008054604080516309c7059360e11b815290516060936001600160a01b039093169263138e0b2692600480820193918290030181865afa1580156101b3573d6000803e3d6000fd5b505050506040513d6000823e601f3d908101601f191682016040526101db9190810190610b9b565b905090565b3360009081526001602052604090205460ff166102185760405162461bcd60e51b815260040161020f90610ccd565b60405180910390fd5b60005460405163068f235360e51b81526001600160a01b039091169063d1e46a609061024e908590859088903390600401610d1c565b600060405180830381600087803b15801561026857600080fd5b505af115801561027c573d6000803e3d6000fd5b50505050336001600160a01b0316600160008054906101000a90046001600160a01b03166001600160a01b0316632453ffa86040518163ffffffff1660e01b8152600401602060405180830381865afa1580156102dd573d6000803e3d6000fd5b505050506040513d601f19601f820116820180604052508101906103019190610d55565b61030b9190610d6e565b604080516001600160a01b0387168152602081018590527faf03488da094bc08f76858b3b2a0c36a13217c95790c77139137fc6e062ba9cd910160405180910390a3505050565b6000805460408051633261f66b60e01b815290516060936001600160a01b0390931692633261f66b92600480820193918290030181865afa15801561039b573d6000803e3d6000fd5b505050506040513d6000823e601f3d908101601f191682016040526101db9190810190610d95565b6000805460408051632ee5f9b560e21b815290516060936001600160a01b039093169263bb97e6d492600480820193918290030181865afa15801561040c573d6000803e3d6000fd5b505050506040513d6000823e601f3d908101601f191682016040526101db9190810190610ecd565b600054604051630935e01b60e21b81523360048201526001600160a01b03909116906324d7806c90602401602060405180830381865afa15801561047c573d6000803e3d6000fd5b505050506040513d601f19601f820116820180604052508101906104a09190610ff3565b6104f65760405162461bcd60e51b815260206004820152602160248201527f4f6e6c792061646d696e2063616e2063616c6c20746869732066756e6374696f6044820152603760f91b606482015260840161020f565b6001600160a01b03811661054c5760405162461bcd60e51b815260206004820152601e60248201527f4169726c696e6520616464726573732063616e6e6f74206265207a65726f0000604482015260640161020f565b6001600160a01b03811660009081526001602052604090205460ff16156105b55760405162461bcd60e51b815260206004820152601a60248201527f4169726c696e6520616c72656164792072656769737465726564000000000000604482015260640161020f565b6001600160a01b0381166000818152600160208190526040808320805460ff1916909217909155517f89a6354fb229eda6cbc28306798727b4d524818d2c375220bc3f360f24cffaca9190a250565b3360009081526001602052604090205460ff166106335760405162461bcd60e51b815260040161020f90610ccd565b60005460405163662ee22960e11b81526001600160a01b039091169063cc5dc452906106659085908590600401611015565b600060405180830381600087803b15801561067f57600080fd5b505af1158015610693573d6000803e3d6000fd5b505050505050565b6001600160a01b03811681146106b057600080fd5b50565b6000602082840312156106c557600080fd5b81356106d08161069b565b9392505050565b60005b838110156106f25781810151838201526020016106da565b50506000910152565b600081518084526107138160208601602086016106d7565b601f01601f19169290920160200192915050565b60006020808301818452808551808352604092508286019150828160051b87010184880160005b838110156107cb57888303603f190185528151805184528781015188850152868101516001600160a01b03908116888601526060808301519091169085015260808082015160c082870181905291906107a9838801826106fb565b60a094850151979094019690965250509487019492509086019060010161074e565b509098975050505050505050565b634e487b7160e01b600052604160045260246000fd5b60405160c0810167ffffffffffffffff81118282101715610812576108126107d9565b60405290565b60405160a0810167ffffffffffffffff81118282101715610812576108126107d9565b6040516060810167ffffffffffffffff81118282101715610812576108126107d9565b604051601f8201601f1916810167ffffffffffffffff81118282101715610887576108876107d9565b604052919050565b600067ffffffffffffffff8211156108a9576108a96107d9565b50601f01601f191660200190565b600082601f8301126108c857600080fd5b81356108db6108d68261088f565b61085e565b8181528460208386010111156108f057600080fd5b816020850160208301376000918101602001919091529392505050565b60008060006060848603121561092257600080fd5b833561092d8161069b565b9250602084013567ffffffffffffffff81111561094957600080fd5b610955868287016108b7565b925050604084013590509250925092565b60006020808301818452808551808352604092508286019150828160051b8701018488016000805b84811015610a2457603f198a8503018652825160a08151865289820151818b8801526109bc828801826106fb565b915050888201518682038a8801526109d482826106fb565b6060848101516001600160a01b03169089015260809384015193909250905060038310610a0f57634e487b7160e01b85526021600452602485fd5b9590950152948701949187019160010161098e565b50919998505050505050505050565b60006020808301818452808551808352604092508286019150828160051b87010184880160005b838110156107cb57603f19898403018552815160608151818652610a80828701826106fb565b915050888201518582038a870152610a9882826106fb565b91505087820151915084810388860152610ab281836106fb565b968901969450505090860190600101610a5a565b60008060408385031215610ad957600080fd5b823567ffffffffffffffff80821115610af157600080fd5b610afd868387016108b7565b93506020850135915080821115610b1357600080fd5b50610b20858286016108b7565b9150509250929050565b600067ffffffffffffffff821115610b4457610b446107d9565b5060051b60200190565b600082601f830112610b5f57600080fd5b8151610b6d6108d68261088f565b818152846020838601011115610b8257600080fd5b610b938260208301602087016106d7565b949350505050565b60006020808385031215610bae57600080fd5b825167ffffffffffffffff80821115610bc657600080fd5b818501915085601f830112610bda57600080fd5b8151610be86108d682610b2a565b81815260059190911b83018401908481019088831115610c0757600080fd5b8585015b83811015610cc057805185811115610c2257600080fd5b860160c0818c03601f19011215610c395760008081fd5b610c416107ef565b8882015181526040808301518a830152606080840151610c608161069b565b8083850152506080915081840151610c778161069b565b9083015260a08381015189811115610c8f5760008081fd5b610c9d8f8d83880101610b4e565b9284019290925260c0939093015192820192909252845250918601918601610c0b565b5098975050505050505050565b6020808252602f908201527f4f6e6c792072656769737465726564206169726c696e65732063616e2063616c60408201526e36103a3434b990333ab731ba34b7b760891b606082015260800190565b608081526000610d2f60808301876106fb565b6020830195909552506001600160a01b0392831660408201529116606090910152919050565b600060208284031215610d6757600080fd5b5051919050565b81810381811115610d8f57634e487b7160e01b600052601160045260246000fd5b92915050565b60006020808385031215610da857600080fd5b825167ffffffffffffffff80821115610dc057600080fd5b818501915085601f830112610dd457600080fd5b8151610de26108d682610b2a565b81815260059190911b83018401908481019088831115610e0157600080fd5b8585015b83811015610cc057805185811115610e1c57600080fd5b860160a0818c03601f19011215610e335760008081fd5b610e3b610818565b88820151815260408083015188811115610e555760008081fd5b610e638e8c83870101610b4e565b8b8401525060608084015189811115610e7c5760008081fd5b610e8a8f8d83880101610b4e565b83850152506080915081840151610ea08161069b565b9083015260a092909201519160038310610eba5760008081fd5b8101919091528352918601918601610e05565b60006020808385031215610ee057600080fd5b825167ffffffffffffffff80821115610ef857600080fd5b818501915085601f830112610f0c57600080fd5b8151610f1a6108d682610b2a565b81815260059190911b83018401908481019088831115610f3957600080fd5b8585015b83811015610cc057805185811115610f555760008081fd5b86016060818c03601f1901811315610f6d5760008081fd5b610f7561083b565b8983015188811115610f875760008081fd5b610f958e8c83870101610b4e565b82525060408084015189811115610fac5760008081fd5b610fba8f8d83880101610b4e565b838d015250918301519188831115610fd25760008081fd5b610fe08e8c85870101610b4e565b9082015285525050918601918601610f3d565b60006020828403121561100557600080fd5b815180151581146106d057600080fd5b60408152600061102860408301856106fb565b828103602084015261103a81856106fb565b9594505050505056fea26469706673582212201bde0dfe148ac4b3528e6caa76d0b8f0d599a8087ffb796ea6ca84bff0e52d9d64736f6c63430008130033",
  "immutableReferences": {},
  "source": "// SPDX-License-Identifier: MIT\npragma solidity ^0.8.19;\n\nimport \"./Admin.sol\";\nimport \"./Utils.sol\";\n\ncontract Airline {\n    Admin public admin;\n    mapping(address => bool) public isAirline;\n\n    event AirlineRegistered(address indexed airline);\n    event OrderPlaced(uint indexed orderId, address indexed airline, address supplier, uint quantity);\n\n    modifier onlyAdmin() {\n        require(admin.isAdmin(msg.sender), \"Only admin can call this function\");\n        _;\n    }\n\n    modifier onlyAirline() {\n        require(isAirline[msg.sender], \"Only registered airlines can call this function\");\n        _;\n    }\n\n    constructor(address _admin) {\n        require(_admin != address(0), \"Admin address cannot be zero\");\n        admin = Admin(_admin);\n    }\n\n    function registerAirline(address _airline) external onlyAdmin {\n        require(_airline != address(0), \"Airline address cannot be zero\");\n        require(!isAirline[_airline], \"Airline already registered\");\n        isAirline[_airline] = true;\n        emit AirlineRegistered(_airline);\n    }\n\n    function addFleet(string memory _aircraftId, string memory _model) external onlyAirline {\n        admin.addFleet(_aircraftId, _model);\n    }\n\n    function placeOrder(address _supplier, string memory _materialId, uint _quantity) external onlyAirline {\n        admin.createOrder(_materialId, _quantity, _supplier, msg.sender);\n        emit OrderPlaced(admin.orderCount() - 1, msg.sender, _supplier, _quantity);\n    }\n\n    function getFleets() external view returns (Utils.Fleet[] memory) {\n        return admin.getFleets();\n    }\n\n    function getParts() external view returns (Utils.Part[] memory) {\n        return admin.getParts();\n    }\n\n    function getDeliveries() external view returns (Utils.Delivery[] memory) {\n        return admin.getDeliveries();\n    }\n}",
  "sourcePath": "D:\\Amrita\\SEM2\\BCT\\Supply-chain-main\\contracts\\Airline.sol",
  "compiler": {
    "name": "solc",
    "version": "0.8.19+commit.7dd6d404.Emscripten.clang"
  },
  "schemaVersion": "3.4.16",
  "updatedAt": "2025-05-05T10:26:53.945Z",
  "networkType": "ethereum",
  "devdoc": {
    "kind": "dev",
    "methods": {},
    "version": 1
  },
  "userdoc": {
    "kind": "user",
    "methods": {},
    "version": 1
  }
}