{
  "contractName": "MRO",
  "abi": [
    {
      "inputs": [
        {
          "internalType": "address",
          "name": "_admin",
          "type": "address"
        },
        {
          "internalType": "address",
          "name": "_fine",
          "type": "address"
        }
      ],
      "stateMutability": "nonpayable",
      "type": "constructor"
    },
    {
      "anonymous": false,
      "inputs": [
        {
          "indexed": false,
          "internalType": "uint256",
          "name": "orderId",
          "type": "uint256"
        },
        {
          "indexed": false,
          "internalType": "address",
          "name": "mro",
          "type": "address"
        },
        {
          "indexed": false,
          "internalType": "string",
          "name": "status",
          "type": "string"
        }
      ],
      "name": "OrderDelivered",
      "type": "event"
    },
    {
      "anonymous": false,
      "inputs": [
        {
          "indexed": false,
          "internalType": "uint256",
          "name": "orderId",
          "type": "uint256"
        },
        {
          "indexed": false,
          "internalType": "string",
          "name": "partName",
          "type": "string"
        },
        {
          "indexed": false,
          "internalType": "address",
          "name": "manufacturer",
          "type": "address"
        }
      ],
      "name": "OrderRequested",
      "type": "event"
    },
    {
      "inputs": [],
      "name": "adminContract",
      "outputs": [
        {
          "internalType": "contract Admin",
          "name": "",
          "type": "address"
        }
      ],
      "stateMutability": "view",
      "type": "function",
      "constant": true
    },
    {
      "inputs": [],
      "name": "fineContract",
      "outputs": [
        {
          "internalType": "contract Fine",
          "name": "",
          "type": "address"
        }
      ],
      "stateMutability": "view",
      "type": "function",
      "constant": true
    },
    {
      "inputs": [],
      "name": "orderCount",
      "outputs": [
        {
          "internalType": "uint256",
          "name": "",
          "type": "uint256"
        }
      ],
      "stateMutability": "view",
      "type": "function",
      "constant": true
    },
    {
      "inputs": [
        {
          "internalType": "uint256",
          "name": "",
          "type": "uint256"
        }
      ],
      "name": "orders",
      "outputs": [
        {
          "internalType": "uint256",
          "name": "orderId",
          "type": "uint256"
        },
        {
          "internalType": "string",
          "name": "partName",
          "type": "string"
        },
        {
          "internalType": "uint256",
          "name": "quantity",
          "type": "uint256"
        },
        {
          "internalType": "address",
          "name": "manufacturer",
          "type": "address"
        },
        {
          "internalType": "address",
          "name": "mro",
          "type": "address"
        },
        {
          "internalType": "uint256",
          "name": "requiredDeliveryDate",
          "type": "uint256"
        },
        {
          "internalType": "uint256",
          "name": "actualDeliveryDate",
          "type": "uint256"
        },
        {
          "internalType": "string",
          "name": "status",
          "type": "string"
        }
      ],
      "stateMutability": "view",
      "type": "function",
      "constant": true
    },
    {
      "inputs": [
        {
          "internalType": "string",
          "name": "partName",
          "type": "string"
        },
        {
          "internalType": "uint256",
          "name": "quantity",
          "type": "uint256"
        },
        {
          "internalType": "address",
          "name": "manufacturer",
          "type": "address"
        },
        {
          "internalType": "uint256",
          "name": "requiredDeliveryDate",
          "type": "uint256"
        }
      ],
      "name": "requestOrder",
      "outputs": [],
      "stateMutability": "nonpayable",
      "type": "function"
    },
    {
      "inputs": [
        {
          "internalType": "uint256",
          "name": "orderId",
          "type": "uint256"
        },
        {
          "internalType": "uint256",
          "name": "actualDeliveryDate",
          "type": "uint256"
        }
      ],
      "name": "markDelivered",
      "outputs": [],
      "stateMutability": "nonpayable",
      "type": "function"
    },
    {
      "inputs": [],
      "name": "getAllOrders",
      "outputs": [
        {
          "components": [
            {
              "internalType": "uint256",
              "name": "orderId",
              "type": "uint256"
            },
            {
              "internalType": "string",
              "name": "partName",
              "type": "string"
            },
            {
              "internalType": "uint256",
              "name": "quantity",
              "type": "uint256"
            },
            {
              "internalType": "address",
              "name": "manufacturer",
              "type": "address"
            },
            {
              "internalType": "address",
              "name": "mro",
              "type": "address"
            },
            {
              "internalType": "uint256",
              "name": "requiredDeliveryDate",
              "type": "uint256"
            },
            {
              "internalType": "uint256",
              "name": "actualDeliveryDate",
              "type": "uint256"
            },
            {
              "internalType": "string",
              "name": "status",
              "type": "string"
            }
          ],
          "internalType": "struct MRO.ServiceOrder[]",
          "name": "",
          "type": "tuple[]"
        }
      ],
      "stateMutability": "view",
      "type": "function",
      "constant": true
    }
  ],
  "bytecode": "0x608060405234801561001057600080fd5b506040516110b63803806110b683398101604081905261002f9161007c565b600080546001600160a01b039384166001600160a01b031991821617909155600180549290931691161790556100af565b80516001600160a01b038116811461007757600080fd5b919050565b6000806040838503121561008f57600080fd5b61009883610060565b91506100a660208401610060565b90509250929050565b610ff8806100be6000396000f3fe608060405234801561001057600080fd5b506004361061007d5760003560e01c80634b892a3d1161005b5780634b892a3d146100de5780637bea0d1c146100f1578063a85c38ef14610106578063c05c5e941461012d57600080fd5b80631c03400b146100825780632453ffa814610097578063487b535f146100b3575b600080fd5b610095610090366004610a34565b610140565b005b6100a060035481565b6040519081526020015b60405180910390f35b6001546100c6906001600160a01b031681565b6040516001600160a01b0390911681526020016100aa565b6100956100ec366004610b07565b61034b565b6100f9610613565b6040516100aa9190610b6f565b610119610114366004610c51565b61089d565b6040516100aa989796959493929190610c6a565b6000546100c6906001600160a01b031681565b6000546040516324b6deb960e11b81526001600160a01b039091169063496dbd7290610173903390600290600401610cd3565b602060405180830381865afa158015610190573d6000803e3d6000fd5b505050506040513d601f19601f820116820180604052508101906101b49190610d0e565b6101fa5760405162461bcd60e51b81526020600482015260126024820152714e6f742061207665726966696564204d524f60701b60448201526064015b60405180910390fd5b6003805490600061020a83610d4d565b9091555050604080516101008101825260035480825260208083018881528385018890526001600160a01b038716606085015233608085015260a08401869052600060c085018190528551808701875260098152681c995c5d595cdd195960ba1b8185015260e0860152928352600290915292902081518155915190919060018201906102979082610de9565b506040820151600282015560608201516003820180546001600160a01b039283166001600160a01b031991821617909155608084015160048401805491909316911617905560a0820151600582015560c0820151600682015560e082015160078201906103049082610de9565b509050507f7ed79f87694b9d17eeddfbc5eae7171ece0a12e64a785644f8e8c799998ac587600354858460405161033d93929190610ea9565b60405180910390a150505050565b6000546040516324b6deb960e11b81526001600160a01b039091169063496dbd729061037e903390600290600401610cd3565b602060405180830381865afa15801561039b573d6000803e3d6000fd5b505050506040513d601f19601f820116820180604052508101906103bf9190610d0e565b6104005760405162461bcd60e51b81526020600482015260126024820152714e6f742061207665726966696564204d524f60701b60448201526064016101f1565b60008211801561041257506003548211155b6104505760405162461bcd60e51b815260206004820152600f60248201526e125b9d985b1a59081bdc99195c9259608a1b60448201526064016101f1565b600082815260026020526040902060048101546001600160a01b031633146104a95760405162461bcd60e51b815260206004820152600c60248201526b155b985d5d1a1bdc9a5e995960a21b60448201526064016101f1565b60068101829055600581015482111561059f5760008160050154836104ce9190610eda565b905060006104dd826064610ef3565b9050604051806040016040528060048152602001636c61746560e01b81525083600701908161050c9190610de9565b5060015460038401546005850154604051631a8bd7a160e21b81526001600160a01b0392831660048201523360248201526044810189905260648101919091526084810187905260a48101849052911690636a2f5e849060c401600060405180830381600087803b15801561058057600080fd5b505af1158015610594573d6000803e3d6000fd5b5050505050506105d0565b60408051808201909152600981526819195b1a5d995c995960ba1b602082015260078201906105ce9082610de9565b505b7fd378c60d95714ce447ac249ecb78da3cd4b05756d5eb5addc82260724428924b83338360070160405161060693929190610f0a565b60405180910390a1505050565b6060600060035467ffffffffffffffff81111561063257610632610a02565b6040519080825280602002602001820160405280156106bd57816020015b6106aa60405180610100016040528060008152602001606081526020016000815260200160006001600160a01b0316815260200160006001600160a01b031681526020016000815260200160008152602001606081525090565b8152602001906001900390816106505790505b50905060015b60035481116108975760026000828152602001908152602001600020604051806101000160405290816000820154815260200160018201805461070590610d66565b80601f016020809104026020016040519081016040528092919081815260200182805461073190610d66565b801561077e5780601f106107535761010080835404028352916020019161077e565b820191906000526020600020905b81548152906001019060200180831161076157829003601f168201915b50505091835250506002820154602082015260038201546001600160a01b039081166040830152600483015416606082015260058201546080820152600682015460a082015260078201805460c0909201916107d990610d66565b80601f016020809104026020016040519081016040528092919081815260200182805461080590610d66565b80156108525780601f1061082757610100808354040283529160200191610852565b820191906000526020600020905b81548152906001019060200180831161083557829003601f168201915b505050505081525050826001836108699190610eda565b8151811061087957610879610fac565b6020026020010181905250808061088f90610d4d565b9150506106c3565b50919050565b600260205260009081526040902080546001820180549192916108bf90610d66565b80601f01602080910402602001604051908101604052809291908181526020018280546108eb90610d66565b80156109385780601f1061090d57610100808354040283529160200191610938565b820191906000526020600020905b81548152906001019060200180831161091b57829003601f168201915b5050505060028301546003840154600485015460058601546006870154600788018054979895976001600160a01b0395861697509490931694919390929061097f90610d66565b80601f01602080910402602001604051908101604052809291908181526020018280546109ab90610d66565b80156109f85780601f106109cd576101008083540402835291602001916109f8565b820191906000526020600020905b8154815290600101906020018083116109db57829003601f168201915b5050505050905088565b634e487b7160e01b600052604160045260246000fd5b80356001600160a01b0381168114610a2f57600080fd5b919050565b60008060008060808587031215610a4a57600080fd5b843567ffffffffffffffff80821115610a6257600080fd5b818701915087601f830112610a7657600080fd5b813581811115610a8857610a88610a02565b604051601f8201601f19908116603f01168101908382118183101715610ab057610ab0610a02565b816040528281528a6020848701011115610ac957600080fd5b82602086016020830137600060208483010152809850505050505060208501359250610af760408601610a18565b9396929550929360600135925050565b60008060408385031215610b1a57600080fd5b50508035926020909101359150565b6000815180845260005b81811015610b4f57602081850181015186830182015201610b33565b506000602082860101526020601f19601f83011685010191505092915050565b60006020808301818452808551808352604092508286019150828160051b87010184880160005b83811015610c4357603f1989840301855281516101008151855288820151818a870152610bc582870182610b29565b838a0151878b01526060808501516001600160a01b0316908801526080808501519193509150610bff828801826001600160a01b03169052565b505060a0828101519086015260c0808301519086015260e09182015185820392860192909252610c2f8183610b29565b968901969450505090860190600101610b96565b509098975050505050505050565b600060208284031215610c6357600080fd5b5035919050565b60006101008a8352806020840152610c848184018b610b29565b604084018a90526001600160a01b0389811660608601528816608085015260a0840187905260c0840186905283810360e08501529050610cc48185610b29565b9b9a5050505050505050505050565b6001600160a01b03831681526040810160058310610d0157634e487b7160e01b600052602160045260246000fd5b8260208301529392505050565b600060208284031215610d2057600080fd5b81518015158114610d3057600080fd5b9392505050565b634e487b7160e01b600052601160045260246000fd5b600060018201610d5f57610d5f610d37565b5060010190565b600181811c90821680610d7a57607f821691505b60208210810361089757634e487b7160e01b600052602260045260246000fd5b601f821115610de457600081815260208120601f850160051c81016020861015610dc15750805b601f850160051c820191505b81811015610de057828155600101610dcd565b5050505b505050565b815167ffffffffffffffff811115610e0357610e03610a02565b610e1781610e118454610d66565b84610d9a565b602080601f831160018114610e4c5760008415610e345750858301515b600019600386901b1c1916600185901b178555610de0565b600085815260208120601f198616915b82811015610e7b57888601518255948401946001909101908401610e5c565b5085821015610e995787850151600019600388901b60f8161c191681555b5050505050600190811b01905550565b838152606060208201526000610ec26060830185610b29565b905060018060a01b0383166040830152949350505050565b81810381811115610eed57610eed610d37565b92915050565b8082028115828204841417610eed57610eed610d37565b8381526000602060018060a01b038516818401526060604084015260008454610f3281610d66565b8060608701526080600180841660008114610f545760018114610f6e57610f9c565b60ff1985168984015283151560051b890183019550610f9c565b896000528660002060005b85811015610f945781548b8201860152908301908801610f79565b8a0184019650505b50939a9950505050505050505050565b634e487b7160e01b600052603260045260246000fdfea2646970667358221220c1d42de1b019eb5f2501160141d96f3185958cd70087049908077ee6d0f5e46264736f6c63430008130033",
  "immutableReferences": {},
  "source": "// contracts/MRO.sol\r\n// SPDX-License-Identifier: MIT\r\npragma solidity ^0.8.0;\r\n\r\nimport \"./Admin.sol\";\r\nimport \"./Fine.sol\";\r\n\r\ncontract MRO {\r\n    Admin public adminContract;\r\n    Fine public fineContract;\r\n\r\n    constructor(address _admin, address _fine) {\r\n        adminContract = Admin(_admin);\r\n        fineContract = Fine(_fine);\r\n    }\r\n\r\n    struct ServiceOrder {\r\n        uint orderId;\r\n        string partName;\r\n        uint quantity;\r\n        address manufacturer;\r\n        address mro;\r\n        uint requiredDeliveryDate;\r\n        uint actualDeliveryDate;\r\n        string status; // \"requested\", \"delivered\", \"late\"\r\n    }\r\n\r\n    mapping(uint => ServiceOrder) public orders;\r\n    uint public orderCount;\r\n\r\n    event OrderRequested(uint orderId, string partName, address manufacturer);\r\n    event OrderDelivered(uint orderId, address mro, string status);\r\n\r\n    modifier onlyVerifiedMRO() {\r\n        require(adminContract.isVerified(msg.sender, Admin.Role.MRO), \"Not a verified MRO\");\r\n        _;\r\n    }\r\n\r\n    function requestOrder(\r\n        string memory partName,\r\n        uint quantity,\r\n        address manufacturer,\r\n        uint requiredDeliveryDate\r\n    ) external onlyVerifiedMRO {\r\n        orderCount++;\r\n        orders[orderCount] = ServiceOrder(\r\n            orderCount,\r\n            partName,\r\n            quantity,\r\n            manufacturer,\r\n            msg.sender,\r\n            requiredDeliveryDate,\r\n            0,\r\n            \"requested\"\r\n        );\r\n        emit OrderRequested(orderCount, partName, manufacturer);\r\n    }\r\n\r\n    function markDelivered(\r\n        uint orderId,\r\n        uint actualDeliveryDate\r\n    ) external onlyVerifiedMRO {\r\n        require(orderId > 0 && orderId <= orderCount, \"Invalid orderId\");\r\n        ServiceOrder storage order = orders[orderId];\r\n        require(order.mro == msg.sender, \"Unauthorized\");\r\n\r\n        order.actualDeliveryDate = actualDeliveryDate;\r\n\r\n        if (actualDeliveryDate > order.requiredDeliveryDate) {\r\n            uint delay = actualDeliveryDate - order.requiredDeliveryDate;\r\n            uint fineAmount = delay * 100; // Simple fine logic: 100 wei per late day\r\n\r\n            order.status = \"late\";\r\n\r\n            fineContract.issueFine(\r\n                order.manufacturer,\r\n                msg.sender,\r\n                orderId,\r\n                order.requiredDeliveryDate,\r\n                actualDeliveryDate,\r\n                fineAmount\r\n            );\r\n        } else {\r\n            order.status = \"delivered\";\r\n        }\r\n\r\n        emit OrderDelivered(orderId, msg.sender, order.status);\r\n    }\r\n\r\n    function getAllOrders() external view returns (ServiceOrder[] memory) {\r\n        ServiceOrder[] memory all = new ServiceOrder[](orderCount);\r\n        for (uint i = 1; i <= orderCount; i++) {\r\n            all[i - 1] = orders[i];\r\n        }\r\n        return all;\r\n    }\r\n}\r\n",
  "sourcePath": "D:\\Amrita\\SEM2\\BCT\\loki-main\\contracts\\MRO.sol",
  "compiler": {
    "name": "solc",
    "version": "0.8.19+commit.7dd6d404.Emscripten.clang"
  },
  "schemaVersion": "3.4.16",
  "updatedAt": "2025-05-20T01:49:26.346Z",
  "networkType": "ethereum",
  "devdoc": {
    "kind": "dev",
    "methods": {},
    "version": 1
  },
  "userdoc": {
    "kind": "user",
    "methods": {},
    "version": 1
  }
}