{
  "contractName": "Supplier",
  "abi": [
    {
      "inputs": [
        {
          "internalType": "address",
          "name": "_adminContract",
          "type": "address"
        },
        {
          "internalType": "address",
          "name": "_transactionContract",
          "type": "address"
        }
      ],
      "stateMutability": "nonpayable",
      "type": "constructor"
    },
    {
      "anonymous": false,
      "inputs": [
        {
          "indexed": true,
          "internalType": "uint256",
          "name": "deliveryId",
          "type": "uint256"
        },
        {
          "indexed": false,
          "internalType": "string",
          "name": "materialName",
          "type": "string"
        },
        {
          "indexed": false,
          "internalType": "uint256",
          "name": "quantity",
          "type": "uint256"
        },
        {
          "indexed": false,
          "internalType": "address",
          "name": "destination",
          "type": "address"
        }
      ],
      "name": "DeliveryCreated",
      "type": "event"
    },
    {
      "anonymous": false,
      "inputs": [
        {
          "indexed": true,
          "internalType": "uint256",
          "name": "materialId",
          "type": "uint256"
        },
        {
          "indexed": false,
          "internalType": "string",
          "name": "materialName",
          "type": "string"
        },
        {
          "indexed": false,
          "internalType": "uint256",
          "name": "quantity",
          "type": "uint256"
        },
        {
          "indexed": false,
          "internalType": "uint256",
          "name": "pricePerKg",
          "type": "uint256"
        },
        {
          "indexed": false,
          "internalType": "bool",
          "name": "certified",
          "type": "bool"
        },
        {
          "indexed": false,
          "internalType": "address",
          "name": "supplier",
          "type": "address"
        }
      ],
      "name": "MaterialAdded",
      "type": "event"
    },
    {
      "anonymous": false,
      "inputs": [
        {
          "indexed": true,
          "internalType": "uint256",
          "name": "orderId",
          "type": "uint256"
        },
        {
          "indexed": false,
          "internalType": "string",
          "name": "materialName",
          "type": "string"
        },
        {
          "indexed": false,
          "internalType": "uint256",
          "name": "quantity",
          "type": "uint256"
        },
        {
          "indexed": false,
          "internalType": "address",
          "name": "manufacturer",
          "type": "address"
        }
      ],
      "name": "OrderReceived",
      "type": "event"
    },
    {
      "inputs": [],
      "name": "adminContract",
      "outputs": [
        {
          "internalType": "contract Admin",
          "name": "",
          "type": "address"
        }
      ],
      "stateMutability": "view",
      "type": "function",
      "constant": true
    },
    {
      "inputs": [
        {
          "internalType": "uint256",
          "name": "",
          "type": "uint256"
        }
      ],
      "name": "deliveries",
      "outputs": [
        {
          "internalType": "uint256",
          "name": "deliveryId",
          "type": "uint256"
        },
        {
          "internalType": "string",
          "name": "materialName",
          "type": "string"
        },
        {
          "internalType": "uint256",
          "name": "quantity",
          "type": "uint256"
        },
        {
          "internalType": "address",
          "name": "destination",
          "type": "address"
        },
        {
          "internalType": "string",
          "name": "status",
          "type": "string"
        },
        {
          "internalType": "uint256",
          "name": "timestamp",
          "type": "uint256"
        }
      ],
      "stateMutability": "view",
      "type": "function",
      "constant": true
    },
    {
      "inputs": [],
      "name": "deliveryCount",
      "outputs": [
        {
          "internalType": "uint256",
          "name": "",
          "type": "uint256"
        }
      ],
      "stateMutability": "view",
      "type": "function",
      "constant": true
    },
    {
      "inputs": [],
      "name": "materialCount",
      "outputs": [
        {
          "internalType": "uint256",
          "name": "",
          "type": "uint256"
        }
      ],
      "stateMutability": "view",
      "type": "function",
      "constant": true
    },
    {
      "inputs": [
        {
          "internalType": "uint256",
          "name": "",
          "type": "uint256"
        }
      ],
      "name": "materials",
      "outputs": [
        {
          "internalType": "uint256",
          "name": "materialId",
          "type": "uint256"
        },
        {
          "internalType": "string",
          "name": "materialName",
          "type": "string"
        },
        {
          "internalType": "uint256",
          "name": "quantity",
          "type": "uint256"
        },
        {
          "internalType": "uint256",
          "name": "pricePerKg",
          "type": "uint256"
        },
        {
          "internalType": "bool",
          "name": "certified",
          "type": "bool"
        },
        {
          "internalType": "address",
          "name": "supplier",
          "type": "address"
        }
      ],
      "stateMutability": "view",
      "type": "function",
      "constant": true
    },
    {
      "inputs": [],
      "name": "orderCount",
      "outputs": [
        {
          "internalType": "uint256",
          "name": "",
          "type": "uint256"
        }
      ],
      "stateMutability": "view",
      "type": "function",
      "constant": true
    },
    {
      "inputs": [
        {
          "internalType": "uint256",
          "name": "",
          "type": "uint256"
        }
      ],
      "name": "orders",
      "outputs": [
        {
          "internalType": "uint256",
          "name": "orderId",
          "type": "uint256"
        },
        {
          "internalType": "string",
          "name": "materialName",
          "type": "string"
        },
        {
          "internalType": "uint256",
          "name": "quantity",
          "type": "uint256"
        },
        {
          "internalType": "address",
          "name": "manufacturer",
          "type": "address"
        },
        {
          "internalType": "string",
          "name": "status",
          "type": "string"
        }
      ],
      "stateMutability": "view",
      "type": "function",
      "constant": true
    },
    {
      "inputs": [],
      "name": "transactionContract",
      "outputs": [
        {
          "internalType": "contract Transaction",
          "name": "",
          "type": "address"
        }
      ],
      "stateMutability": "view",
      "type": "function",
      "constant": true
    },
    {
      "inputs": [
        {
          "internalType": "string",
          "name": "materialName",
          "type": "string"
        },
        {
          "internalType": "uint256",
          "name": "quantity",
          "type": "uint256"
        },
        {
          "internalType": "uint256",
          "name": "pricePerKg",
          "type": "uint256"
        },
        {
          "internalType": "bool",
          "name": "certified",
          "type": "bool"
        }
      ],
      "name": "addMaterial",
      "outputs": [],
      "stateMutability": "nonpayable",
      "type": "function"
    },
    {
      "inputs": [
        {
          "internalType": "uint256",
          "name": "orderId",
          "type": "uint256"
        },
        {
          "internalType": "string",
          "name": "materialName",
          "type": "string"
        },
        {
          "internalType": "uint256",
          "name": "quantity",
          "type": "uint256"
        },
        {
          "internalType": "address",
          "name": "manufacturer",
          "type": "address"
        }
      ],
      "name": "receiveOrder",
      "outputs": [],
      "stateMutability": "nonpayable",
      "type": "function"
    },
    {
      "inputs": [
        {
          "internalType": "uint256",
          "name": "orderId",
          "type": "uint256"
        },
        {
          "internalType": "string",
          "name": "materialName",
          "type": "string"
        },
        {
          "internalType": "uint256",
          "name": "quantity",
          "type": "uint256"
        },
        {
          "internalType": "address",
          "name": "destination",
          "type": "address"
        }
      ],
      "name": "createDelivery",
      "outputs": [],
      "stateMutability": "nonpayable",
      "type": "function"
    },
    {
      "inputs": [],
      "name": "getMaterials",
      "outputs": [
        {
          "components": [
            {
              "internalType": "uint256",
              "name": "materialId",
              "type": "uint256"
            },
            {
              "internalType": "string",
              "name": "materialName",
              "type": "string"
            },
            {
              "internalType": "uint256",
              "name": "quantity",
              "type": "uint256"
            },
            {
              "internalType": "uint256",
              "name": "pricePerKg",
              "type": "uint256"
            },
            {
              "internalType": "bool",
              "name": "certified",
              "type": "bool"
            },
            {
              "internalType": "address",
              "name": "supplier",
              "type": "address"
            }
          ],
          "internalType": "struct Supplier.Material[]",
          "name": "",
          "type": "tuple[]"
        }
      ],
      "stateMutability": "view",
      "type": "function",
      "constant": true
    },
    {
      "inputs": [],
      "name": "getDeliveries",
      "outputs": [
        {
          "components": [
            {
              "internalType": "uint256",
              "name": "deliveryId",
              "type": "uint256"
            },
            {
              "internalType": "string",
              "name": "materialName",
              "type": "string"
            },
            {
              "internalType": "uint256",
              "name": "quantity",
              "type": "uint256"
            },
            {
              "internalType": "address",
              "name": "destination",
              "type": "address"
            },
            {
              "internalType": "string",
              "name": "status",
              "type": "string"
            },
            {
              "internalType": "uint256",
              "name": "timestamp",
              "type": "uint256"
            }
          ],
          "internalType": "struct Supplier.Delivery[]",
          "name": "",
          "type": "tuple[]"
        }
      ],
      "stateMutability": "view",
      "type": "function",
      "constant": true
    }
  ],
  "bytecode": "0x608060405234801561001057600080fd5b506040516200180c3803806200180c8339810160408190526100319161007e565b600080546001600160a01b039384166001600160a01b031991821617909155600180549290931691161790556100b1565b80516001600160a01b038116811461007957600080fd5b919050565b6000806040838503121561009157600080fd5b61009a83610062565b91506100a860208401610062565b90509250929050565b61174b80620000c16000396000f3fe608060405234801561001057600080fd5b50600436106100cf5760003560e01c80638d52c3b31161008c578063a9e4a32411610066578063a9e4a324146101c3578063c05c5e94146101e8578063d472f038146101fb578063f53e31511461020457600080fd5b80638d52c3b3146101775780639dea19651461018c578063a85c38ef1461019f57600080fd5b8063138e0b26146100d45780631f45275b146100f25780632453ffa81461011d5780635b77b6a6146101345780637a8e85261461013d57806380dfedcd14610162575b600080fd5b6100dc610217565b6040516100e99190611002565b60405180910390f35b600154610105906001600160a01b031681565b6040516001600160a01b0390911681526020016100e9565b61012660035481565b6040519081526020016100e9565b61012660045481565b61015061014b3660046110be565b610471565b6040516100e9969594939291906110d7565b61016a61053d565b6040516100e9919061111e565b61018a61018536600461125d565b61070c565b005b61018a61019a36600461125d565b610a5c565b6101b26101ad3660046110be565b610b5f565b6040516100e99594939291906112cc565b6101d66101d13660046110be565b610cac565b6040516100e996959493929190611319565b600054610105906001600160a01b031681565b61012660025481565b61018a61021236600461137f565b610dff565b6060600060045467ffffffffffffffff811115610236576102366111ba565b6040519080825280602002602001820160405280156102a957816020015b6102966040518060c0016040528060008152602001606081526020016000815260200160006001600160a01b0316815260200160608152602001600081525090565b8152602001906001900390816102545790505b50905060015b600454811161046b57600760008281526020019081526020016000206040518060c0016040529081600082015481526020016001820180546102f0906113d7565b80601f016020809104026020016040519081016040528092919081815260200182805461031c906113d7565b80156103695780601f1061033e57610100808354040283529160200191610369565b820191906000526020600020905b81548152906001019060200180831161034c57829003601f168201915b50505091835250506002820154602082015260038201546001600160a01b031660408201526004820180546060909201916103a3906113d7565b80601f01602080910402602001604051908101604052809291908181526020018280546103cf906113d7565b801561041c5780601f106103f15761010080835404028352916020019161041c565b820191906000526020600020905b8154815290600101906020018083116103ff57829003601f168201915b505050505081526020016005820154815250508260018361043d9190611421565b8151811061044d5761044d61143a565b6020026020010181905250808061046390611450565b9150506102af565b50919050565b60056020526000908152604090208054600182018054919291610493906113d7565b80601f01602080910402602001604051908101604052809291908181526020018280546104bf906113d7565b801561050c5780601f106104e15761010080835404028352916020019161050c565b820191906000526020600020905b8154815290600101906020018083116104ef57829003601f168201915b50505050600283015460038401546004909401549293909290915060ff81169061010090046001600160a01b031686565b6060600060025467ffffffffffffffff81111561055c5761055c6111ba565b6040519080825280602002602001820160405280156105d157816020015b6105be6040518060c001604052806000815260200160608152602001600081526020016000815260200160001515815260200160006001600160a01b031681525090565b81526020019060019003908161057a5790505b50905060015b600254811161046b57600560008281526020019081526020016000206040518060c001604052908160008201548152602001600182018054610618906113d7565b80601f0160208091040260200160405190810160405280929190818152602001828054610644906113d7565b80156106915780601f1061066657610100808354040283529160200191610691565b820191906000526020600020905b81548152906001019060200180831161067457829003601f168201915b5050509183525050600282015460208201526003820154604082015260049091015460ff81161515606083015261010090046001600160a01b0316608090910152826106de600184611421565b815181106106ee576106ee61143a565b6020026020010181905250808061070490611450565b9150506105d7565b600054604051637d95117560e11b81526001600160a01b039091169063fb2a22ea9061073c903390600401611469565b602060405180830381865afa158015610759573d6000803e3d6000fd5b505050506040513d601f19601f8201168201806040525081019061077d919061149d565b6107c85760405162461bcd60e51b81526020600482015260176024820152762737ba1030903b32b934b334b2b21039bab8383634b2b960491b60448201526064015b60405180910390fd5b6040516670656e64696e6760c81b602082015260270160408051601f1981840301815282825280516020918201206000888152600683529290922091926108139260040191016114c1565b604051602081830303815290604052805190602001201461086a5760405162461bcd60e51b81526020600482015260116024820152704f72646572206e6f742070656e64696e6760781b60448201526064016107bf565b6004805490600061087a83611450565b90915550506040805160c08101825260045480825260208083018781528385018790526001600160a01b0386166060850152845180860186526007808252661cda1a5c1c195960ca1b8285015260808601919091524260a0860152600093845290915292902081518155915190919060018201906108f89082611586565b506040820151600282015560608201516003820180546001600160a01b0319166001600160a01b039092169190911790556080820151600482019061093d9082611586565b5060a08201518160050155905050604051806040016040528060088152602001671cdd5c1c1b1a595960c21b81525060066000868152602001908152602001600020600401908161098e9190611586565b506001546000858152600560205260409020600301546001600160a01b039091169063ef4e7e1390339084906109c49087611646565b87896040518663ffffffff1660e01b81526004016109e695949392919061165d565b600060405180830381600087803b158015610a0057600080fd5b505af1158015610a14573d6000803e3d6000fd5b505050506004547f959a3de0f0bc741b6b69574e51647b1db3bae48c762838b8f9a9429d0f01e415848484604051610a4e939291906116a2565b60405180910390a250505050565b60038054906000610a6c83611450565b90915550506040805160a08101825285815260208082018681528284018690526001600160a01b038516606084015283518085018552600781526670656e64696e6760c81b818401526080840152600354600090815260069092529290208151815591519091906001820190610ae29082611586565b506040820151600282015560608201516003820180546001600160a01b0319166001600160a01b0390921691909117905560808201516004820190610b279082611586565b50905050837f95defd389f7b3e1c5e092dc8442a13e20cb0f52d65a66d666c1cdae6b284f63e848484604051610a4e939291906116a2565b60066020526000908152604090208054600182018054919291610b81906113d7565b80601f0160208091040260200160405190810160405280929190818152602001828054610bad906113d7565b8015610bfa5780601f10610bcf57610100808354040283529160200191610bfa565b820191906000526020600020905b815481529060010190602001808311610bdd57829003601f168201915b5050505060028301546003840154600485018054949592946001600160a01b03909216935090610c29906113d7565b80601f0160208091040260200160405190810160405280929190818152602001828054610c55906113d7565b8015610ca25780601f10610c7757610100808354040283529160200191610ca2565b820191906000526020600020905b815481529060010190602001808311610c8557829003601f168201915b5050505050905085565b60076020526000908152604090208054600182018054919291610cce906113d7565b80601f0160208091040260200160405190810160405280929190818152602001828054610cfa906113d7565b8015610d475780601f10610d1c57610100808354040283529160200191610d47565b820191906000526020600020905b815481529060010190602001808311610d2a57829003601f168201915b5050505060028301546003840154600485018054949592946001600160a01b03909216935090610d76906113d7565b80601f0160208091040260200160405190810160405280929190818152602001828054610da2906113d7565b8015610def5780601f10610dc457610100808354040283529160200191610def565b820191906000526020600020905b815481529060010190602001808311610dd257829003601f168201915b5050505050908060050154905086565b600054604051637d95117560e11b81526001600160a01b039091169063fb2a22ea90610e2f903390600401611469565b602060405180830381865afa158015610e4c573d6000803e3d6000fd5b505050506040513d601f19601f82011682018060405250810190610e70919061149d565b610eb65760405162461bcd60e51b81526020600482015260176024820152762737ba1030903b32b934b334b2b21039bab8383634b2b960491b60448201526064016107bf565b60028054906000610ec683611450565b90915550506040805160c08101825260025480825260208083018881528385018890526060840187905285151560808501523360a0850152600092835260059091529290208151815591519091906001820190610f239082611586565b506040828101516002808401919091556060840151600384015560808401516004909301805460a0909501516001600160a01b031661010002610100600160a81b0319941515949094166001600160a81b031990951694909417929092179092555490517fd8d7ee6084adf5d09b9d0fc92de553b78cbf2205386633a9aad3eb3357adbe8d90610a4e90879087908790879033906116d5565b6000815180845260005b81811015610fe257602081850181015186830182015201610fc6565b506000602082860101526020601f19601f83011685010191505092915050565b60006020808301818452808551808352604092508286019150828160051b87010184880160005b838110156110b057603f19898403018552815160c08151855288820151818a87015261105782870182610fbc565b838a0151878b01526060808501516001600160a01b031690880152608080850151888303828a0152919350915061108e8382610fbc565b60a0948501519790940196909652505094870194925090860190600101611029565b509098975050505050505050565b6000602082840312156110d057600080fd5b5035919050565b86815260c0602082015260006110f060c0830188610fbc565b604083019690965250606081019390935290151560808301526001600160a01b031660a09091015292915050565b60006020808301818452808551808352604092508286019150828160051b87010184880160005b838110156110b057603f19898403018552815160c08151855288820151818a87015261117382870182610fbc565b838a0151878b01526060808501519088015260808085015115159088015260a0938401516001600160a01b0316939096019290925250509386019390860190600101611145565b634e487b7160e01b600052604160045260246000fd5b600082601f8301126111e157600080fd5b813567ffffffffffffffff808211156111fc576111fc6111ba565b604051601f8301601f19908116603f01168101908282118183101715611224576112246111ba565b8160405283815286602085880101111561123d57600080fd5b836020870160208301376000602085830101528094505050505092915050565b6000806000806080858703121561127357600080fd5b84359350602085013567ffffffffffffffff81111561129157600080fd5b61129d878288016111d0565b9350506040850135915060608501356001600160a01b03811681146112c157600080fd5b939692955090935050565b85815260a0602082015260006112e560a0830187610fbc565b604083018690526001600160a01b0385166060840152828103608084015261130d8185610fbc565b98975050505050505050565b86815260c06020820152600061133260c0830188610fbc565b604083018790526001600160a01b0386166060840152828103608084015261135a8186610fbc565b9150508260a0830152979650505050505050565b801515811461137c57600080fd5b50565b6000806000806080858703121561139557600080fd5b843567ffffffffffffffff8111156113ac57600080fd5b6113b8878288016111d0565b945050602085013592506040850135915060608501356112c18161136e565b600181811c908216806113eb57607f821691505b60208210810361046b57634e487b7160e01b600052602260045260246000fd5b634e487b7160e01b600052601160045260246000fd5b818103818111156114345761143461140b565b92915050565b634e487b7160e01b600052603260045260246000fd5b6000600182016114625761146261140b565b5060010190565b6001600160a01b039190911681526040602082018190526008908201526729bab8383634b2b960c11b606082015260800190565b6000602082840312156114af57600080fd5b81516114ba8161136e565b9392505050565b60008083546114cf816113d7565b600182811680156114e757600181146114fc5761152b565b60ff198416875282151583028701945061152b565b8760005260208060002060005b858110156115225781548a820152908401908201611509565b50505082870194505b50929695505050505050565b601f82111561158157600081815260208120601f850160051c8101602086101561155e5750805b601f850160051c820191505b8181101561157d5782815560010161156a565b5050505b505050565b815167ffffffffffffffff8111156115a0576115a06111ba565b6115b4816115ae84546113d7565b84611537565b602080601f8311600181146115e957600084156115d15750858301515b600019600386901b1c1916600185901b17855561157d565b600085815260208120601f198616915b82811015611618578886015182559484019460019091019084016115f9565b50858210156116365787850151600019600388901b60f8161c191681555b5050505050600190811b01905550565b80820281158282048414176114345761143461140b565b6001600160a01b038681168252851660208201526040810184905260a06060820181905260009061169090830185610fbc565b90508260808301529695505050505050565b6060815260006116b56060830186610fbc565b6020830194909452506001600160a01b0391909116604090910152919050565b60a0815260006116e860a0830188610fbc565b602083019690965250604081019390935290151560608301526001600160a01b031660809091015291905056fea264697066735822122075bd9112ca90f05153f594942c32c54fce2c56dc5fce967fb151245343f5b8fc64736f6c63430008130033",
  "immutableReferences": {},
  "source": "// SPDX-License-Identifier: MIT\npragma solidity ^0.8.0;\n\nimport \"./Admin.sol\";\nimport \"./Transaction.sol\";\n\ncontract Supplier {\n    Admin public adminContract;\n    Transaction public transactionContract;\n\n    struct Material {\n        uint materialId;\n        string materialName;\n        uint quantity;\n        uint pricePerKg;\n        bool certified;\n        address supplier;\n    }\n\n    struct Order {\n        uint orderId;\n        string materialName;\n        uint quantity;\n        address manufacturer;\n        string status; // \"pending\", \"supplied\", \"delivered\"\n    }\n\n    struct Delivery {\n        uint deliveryId;\n        string materialName;\n        uint quantity;\n        address destination;\n        string status;\n        uint timestamp;\n    }\n\n    uint public materialCount;\n    uint public orderCount;\n    uint public deliveryCount;\n\n    mapping(uint => Material) public materials;\n    mapping(uint => Order) public orders;\n    mapping(uint => Delivery) public deliveries;\n\n    event MaterialAdded(uint indexed materialId, string materialName, uint quantity, uint pricePerKg, bool certified, address supplier);\n    event OrderReceived(uint indexed orderId, string materialName, uint quantity, address manufacturer);\n    event DeliveryCreated(uint indexed deliveryId, string materialName, uint quantity, address destination);\n\n    constructor(address _adminContract, address _transactionContract) {\n        adminContract = Admin(_adminContract);\n        transactionContract = Transaction(_transactionContract);\n    }\n\n    modifier onlyVerifiedSupplier() {\n        require(adminContract.isVerified(msg.sender, \"Supplier\"), \"Not a verified supplier\");\n        _;\n    }\n\n    function addMaterial(\n        string memory materialName,\n        uint quantity,\n        uint pricePerKg,\n        bool certified\n    ) external onlyVerifiedSupplier {\n        materialCount++;\n        materials[materialCount] = Material(materialCount, materialName, quantity, pricePerKg, certified, msg.sender);\n        emit MaterialAdded(materialCount, materialName, quantity, pricePerKg, certified, msg.sender);\n    }\n\n    function receiveOrder(\n        uint orderId,\n        string memory materialName,\n        uint quantity,\n        address manufacturer\n    ) external {\n        orderCount++;\n        orders[orderCount] = Order(orderId, materialName, quantity, manufacturer, \"pending\");\n        emit OrderReceived(orderId, materialName, quantity, manufacturer);\n    }\n\n    function createDelivery(\n        uint orderId,\n        string memory materialName,\n        uint quantity,\n        address destination\n    ) external onlyVerifiedSupplier {\n        require(keccak256(abi.encodePacked(orders[orderId].status)) == keccak256(abi.encodePacked(\"pending\")), \"Order not pending\");\n\n        deliveryCount++;\n        deliveries[deliveryCount] = Delivery(deliveryCount, materialName, quantity, destination, \"shipped\", block.timestamp);\n        orders[orderId].status = \"supplied\";\n\n        transactionContract.recordTransaction(msg.sender, destination, quantity * materials[orderId].pricePerKg, materialName, orderId);\n        emit DeliveryCreated(deliveryCount, materialName, quantity, destination);\n    }\n\n    function getMaterials() external view returns (Material[] memory) {\n        Material[] memory result = new Material[](materialCount);\n        for (uint i = 1; i <= materialCount; i++) {\n            result[i - 1] = materials[i];\n        }\n        return result;\n    }\n\n    function getDeliveries() external view returns (Delivery[] memory) {\n        Delivery[] memory result = new Delivery[](deliveryCount);\n        for (uint i = 1; i <= deliveryCount; i++) {\n            result[i - 1] = deliveries[i];\n        }\n        return result;\n    }\n}",
  "sourcePath": "D:\\Amrita\\SEM2\\BCT\\Supply-chain-main\\contracts\\Supplier.sol",
  "compiler": {
    "name": "solc",
    "version": "0.8.19+commit.7dd6d404.Emscripten.clang"
  },
  "schemaVersion": "3.4.16",
  "updatedAt": "2025-05-05T20:18:46.256Z",
  "networkType": "ethereum",
  "devdoc": {
    "kind": "dev",
    "methods": {},
    "version": 1
  },
  "userdoc": {
    "kind": "user",
    "methods": {},
    "version": 1
  }
}