{
  "contractName": "Transaction",
  "abi": [
    {
      "anonymous": false,
      "inputs": [
        {
          "indexed": true,
          "internalType": "uint256",
          "name": "transactionId",
          "type": "uint256"
        },
        {
          "indexed": false,
          "internalType": "address",
          "name": "sender",
          "type": "address"
        },
        {
          "indexed": false,
          "internalType": "address",
          "name": "receiver",
          "type": "address"
        },
        {
          "indexed": false,
          "internalType": "uint256",
          "name": "amount",
          "type": "uint256"
        },
        {
          "indexed": false,
          "internalType": "string",
          "name": "materialName",
          "type": "string"
        },
        {
          "indexed": false,
          "internalType": "uint256",
          "name": "orderId",
          "type": "uint256"
        }
      ],
      "name": "TransactionRecorded",
      "type": "event"
    },
    {
      "inputs": [],
      "name": "transactionCount",
      "outputs": [
        {
          "internalType": "uint256",
          "name": "",
          "type": "uint256"
        }
      ],
      "stateMutability": "view",
      "type": "function",
      "constant": true
    },
    {
      "inputs": [
        {
          "internalType": "uint256",
          "name": "",
          "type": "uint256"
        }
      ],
      "name": "transactions",
      "outputs": [
        {
          "internalType": "uint256",
          "name": "transactionId",
          "type": "uint256"
        },
        {
          "internalType": "address",
          "name": "sender",
          "type": "address"
        },
        {
          "internalType": "address",
          "name": "receiver",
          "type": "address"
        },
        {
          "internalType": "uint256",
          "name": "amount",
          "type": "uint256"
        },
        {
          "internalType": "string",
          "name": "materialName",
          "type": "string"
        },
        {
          "internalType": "uint256",
          "name": "orderId",
          "type": "uint256"
        },
        {
          "internalType": "uint256",
          "name": "timestamp",
          "type": "uint256"
        }
      ],
      "stateMutability": "view",
      "type": "function",
      "constant": true
    },
    {
      "inputs": [
        {
          "internalType": "address",
          "name": "sender",
          "type": "address"
        },
        {
          "internalType": "address",
          "name": "receiver",
          "type": "address"
        },
        {
          "internalType": "uint256",
          "name": "amount",
          "type": "uint256"
        },
        {
          "internalType": "string",
          "name": "materialName",
          "type": "string"
        },
        {
          "internalType": "uint256",
          "name": "orderId",
          "type": "uint256"
        }
      ],
      "name": "recordTransaction",
      "outputs": [],
      "stateMutability": "nonpayable",
      "type": "function"
    },
    {
      "inputs": [],
      "name": "getTransactions",
      "outputs": [
        {
          "components": [
            {
              "internalType": "uint256",
              "name": "transactionId",
              "type": "uint256"
            },
            {
              "internalType": "address",
              "name": "sender",
              "type": "address"
            },
            {
              "internalType": "address",
              "name": "receiver",
              "type": "address"
            },
            {
              "internalType": "uint256",
              "name": "amount",
              "type": "uint256"
            },
            {
              "internalType": "string",
              "name": "materialName",
              "type": "string"
            },
            {
              "internalType": "uint256",
              "name": "orderId",
              "type": "uint256"
            },
            {
              "internalType": "uint256",
              "name": "timestamp",
              "type": "uint256"
            }
          ],
          "internalType": "struct Transaction.TransactionData[]",
          "name": "",
          "type": "tuple[]"
        }
      ],
      "stateMutability": "view",
      "type": "function",
      "constant": true
    }
  ],
  "bytecode": "0x608060405234801561001057600080fd5b5061092e806100206000396000f3fe608060405234801561001057600080fd5b506004361061004c5760003560e01c806383920e90146100515780639ace38c21461006f578063b77bf60014610095578063ef4e7e13146100ac575b600080fd5b6100596100c1565b60405161006691906104db565b60405180910390f35b61008261007d366004610594565b6102ad565b60405161006697969594939291906105ad565b61009e60005481565b604051908152602001610066565b6100bf6100ba36600461062e565b61037f565b005b60606000805467ffffffffffffffff8111156100df576100df610618565b60405190808252806020026020018201604052801561016257816020015b61014f6040518060e001604052806000815260200160006001600160a01b0316815260200160006001600160a01b03168152602001600081526020016060815260200160008152602001600081525090565b8152602001906001900390816100fd5790505b50905060015b60005481116102a757600081815260016020818152604092839020835160e08101855281548152928101546001600160a01b0390811692840192909252600281015490911692820192909252600382015460608201526004820180549192916080840191906101d690610712565b80601f016020809104026020016040519081016040528092919081815260200182805461020290610712565b801561024f5780601f106102245761010080835404028352916020019161024f565b820191906000526020600020905b81548152906001019060200180831161023257829003601f168201915b5050509183525050600582015460208201526006909101546040909101528261027960018461075c565b8151811061028957610289610775565b6020026020010181905250808061029f9061078b565b915050610168565b50919050565b6001602081905260009182526040909120805491810154600282015460038301546004840180546001600160a01b0394851695949093169391926102f090610712565b80601f016020809104026020016040519081016040528092919081815260200182805461031c90610712565b80156103695780601f1061033e57610100808354040283529160200191610369565b820191906000526020600020905b81548152906001019060200180831161034c57829003601f168201915b5050505050908060050154908060060154905087565b60008054908061038e8361078b565b90915550506040805160e081018252600080548083526001600160a01b03808a1660208086019182528a8316868801908152606087018b8152608088018b815260a089018b90524260c08a01529587526001928390529790952086518155915190820180549184166001600160a01b03199283161790559351600282018054919093169416939093179055925160038201559151909190600482019061043490826107f3565b5060a0820151816005015560c082015181600601559050506000547f25d4b2dd57e0cda7eaa9b0645bbfc5751f170884ba6bd7460507e688c981a84c86868686866040516104869594939291906108b3565b60405180910390a25050505050565b6000815180845260005b818110156104bb5760208185018101518683018201520161049f565b506000602082860101526020601f19601f83011685010191505092915050565b60006020808301818452808551808352604092508286019150828160051b87010184880160005b8381101561058657888303603f19018552815180518452878101516001600160a01b03908116898601528782015116878501526060808201519085015260808082015160e0828701819052919061055b83880182610495565b60a0858101519089015260c09485015194909701939093525050509386019390860190600101610502565b509098975050505050505050565b6000602082840312156105a657600080fd5b5035919050565b8781526001600160a01b038781166020830152861660408201526060810185905260e0608082018190526000906105e690830186610495565b60a08301949094525060c0015295945050505050565b80356001600160a01b038116811461061357600080fd5b919050565b634e487b7160e01b600052604160045260246000fd5b600080600080600060a0868803121561064657600080fd5b61064f866105fc565b945061065d602087016105fc565b935060408601359250606086013567ffffffffffffffff8082111561068157600080fd5b818801915088601f83011261069557600080fd5b8135818111156106a7576106a7610618565b604051601f8201601f19908116603f011681019083821181831017156106cf576106cf610618565b816040528281528b60208487010111156106e857600080fd5b82602086016020830137600092810160200192909252509699959850939660800135949350505050565b600181811c9082168061072657607f821691505b6020821081036102a757634e487b7160e01b600052602260045260246000fd5b634e487b7160e01b600052601160045260246000fd5b8181038181111561076f5761076f610746565b92915050565b634e487b7160e01b600052603260045260246000fd5b60006001820161079d5761079d610746565b5060010190565b601f8211156107ee57600081815260208120601f850160051c810160208610156107cb5750805b601f850160051c820191505b818110156107ea578281556001016107d7565b5050505b505050565b815167ffffffffffffffff81111561080d5761080d610618565b6108218161081b8454610712565b846107a4565b602080601f831160018114610856576000841561083e5750858301515b600019600386901b1c1916600185901b1785556107ea565b600085815260208120601f198616915b8281101561088557888601518255948401946001909101908401610866565b50858210156108a35787850151600019600388901b60f8161c191681555b5050505050600190811b01905550565b6001600160a01b038681168252851660208201526040810184905260a0606082018190526000906108e690830185610495565b9050826080830152969550505050505056fea26469706673582212203bf9be70d3f26624bc960955c53716af719a11e97d2044778e30a3e5cd4aa3d964736f6c63430008130033",
  "immutableReferences": {},
  "source": "// SPDX-License-Identifier: MIT\r\npragma solidity ^0.8.0;\r\n\r\ncontract Transaction {\r\n    struct TransactionData {\r\n        uint transactionId;\r\n        address sender;\r\n        address receiver;\r\n        uint amount;\r\n        string materialName;\r\n        uint orderId;\r\n        uint timestamp;\r\n    }\r\n\r\n    uint public transactionCount;\r\n    mapping(uint => TransactionData) public transactions;\r\n\r\n    event TransactionRecorded(uint indexed transactionId, address sender, address receiver, uint amount, string materialName, uint orderId);\r\n\r\n    function recordTransaction(\r\n        address sender,\r\n        address receiver,\r\n        uint amount,\r\n        string memory materialName,\r\n        uint orderId\r\n    ) external {\r\n        transactionCount++;\r\n        transactions[transactionCount] = TransactionData(\r\n            transactionCount,\r\n            sender,\r\n            receiver,\r\n            amount,\r\n            materialName,\r\n            orderId,\r\n            block.timestamp\r\n        );\r\n        emit TransactionRecorded(transactionCount, sender, receiver, amount, materialName, orderId);\r\n    }\r\n\r\n    function getTransactions() external view returns (TransactionData[] memory) {\r\n        TransactionData[] memory result = new TransactionData[](transactionCount);\r\n        for (uint i = 1; i <= transactionCount; i++) {\r\n            result[i - 1] = transactions[i];\r\n        }\r\n        return result;\r\n    }\r\n}",
  "sourcePath": "D:\\Amrita\\SEM2\\BCT\\Supply-chain-main\\contracts\\Transaction.sol",
  "compiler": {
    "name": "solc",
    "version": "0.8.19+commit.7dd6d404.Emscripten.clang"
  },
  "schemaVersion": "3.4.16",
  "updatedAt": "2025-05-05T20:18:46.240Z",
  "networkType": "ethereum",
  "devdoc": {
    "kind": "dev",
    "methods": {},
    "version": 1
  },
  "userdoc": {
    "kind": "user",
    "methods": {},
    "version": 1
  }
}