{
  "contractName": "Airline",
  "abi": [
    {
      "inputs": [
        {
          "internalType": "address",
          "name": "_adminContract",
          "type": "address"
        },
        {
          "internalType": "address",
          "name": "_transaction",
          "type": "address"
        },
        {
          "internalType": "address",
          "name": "_fine",
          "type": "address"
        }
      ],
      "stateMutability": "nonpayable",
      "type": "constructor"
    },
    {
      "anonymous": false,
      "inputs": [
        {
          "indexed": false,
          "internalType": "uint256",
          "name": "logId",
          "type": "uint256"
        },
        {
          "indexed": false,
          "internalType": "string",
          "name": "aircraftId",
          "type": "string"
        },
        {
          "indexed": false,
          "internalType": "string",
          "name": "issueDescription",
          "type": "string"
        },
        {
          "indexed": false,
          "internalType": "uint256",
          "name": "timestamp",
          "type": "uint256"
        }
      ],
      "name": "MaintenanceLogged",
      "type": "event"
    },
    {
      "anonymous": false,
      "inputs": [
        {
          "indexed": false,
          "internalType": "uint256",
          "name": "logId",
          "type": "uint256"
        },
        {
          "indexed": false,
          "internalType": "string",
          "name": "newStatus",
          "type": "string"
        }
      ],
      "name": "StatusUpdated",
      "type": "event"
    },
    {
      "inputs": [],
      "name": "adminContract",
      "outputs": [
        {
          "internalType": "contract Admin",
          "name": "",
          "type": "address"
        }
      ],
      "stateMutability": "view",
      "type": "function",
      "constant": true
    },
    {
      "inputs": [],
      "name": "fineContract",
      "outputs": [
        {
          "internalType": "contract Fine",
          "name": "",
          "type": "address"
        }
      ],
      "stateMutability": "view",
      "type": "function",
      "constant": true
    },
    {
      "inputs": [],
      "name": "logCount",
      "outputs": [
        {
          "internalType": "uint256",
          "name": "",
          "type": "uint256"
        }
      ],
      "stateMutability": "view",
      "type": "function",
      "constant": true
    },
    {
      "inputs": [
        {
          "internalType": "uint256",
          "name": "",
          "type": "uint256"
        }
      ],
      "name": "maintenanceLogs",
      "outputs": [
        {
          "internalType": "string",
          "name": "status",
          "type": "string"
        },
        {
          "internalType": "string",
          "name": "aircraftId",
          "type": "string"
        },
        {
          "internalType": "string",
          "name": "issueDescription",
          "type": "string"
        },
        {
          "internalType": "address",
          "name": "airline",
          "type": "address"
        },
        {
          "internalType": "uint256",
          "name": "timestamp",
          "type": "uint256"
        }
      ],
      "stateMutability": "view",
      "type": "function",
      "constant": true
    },
    {
      "inputs": [],
      "name": "transactionContract",
      "outputs": [
        {
          "internalType": "contract Transaction",
          "name": "",
          "type": "address"
        }
      ],
      "stateMutability": "view",
      "type": "function",
      "constant": true
    },
    {
      "inputs": [
        {
          "internalType": "string",
          "name": "aircraftId",
          "type": "string"
        },
        {
          "internalType": "string",
          "name": "issueDescription",
          "type": "string"
        }
      ],
      "name": "logMaintenance",
      "outputs": [],
      "stateMutability": "nonpayable",
      "type": "function"
    },
    {
      "inputs": [
        {
          "internalType": "uint256",
          "name": "logId",
          "type": "uint256"
        },
        {
          "internalType": "string",
          "name": "newStatus",
          "type": "string"
        }
      ],
      "name": "updateStatus",
      "outputs": [],
      "stateMutability": "nonpayable",
      "type": "function"
    },
    {
      "inputs": [],
      "name": "getAllLogs",
      "outputs": [
        {
          "components": [
            {
              "internalType": "string",
              "name": "status",
              "type": "string"
            },
            {
              "internalType": "string",
              "name": "aircraftId",
              "type": "string"
            },
            {
              "internalType": "string",
              "name": "issueDescription",
              "type": "string"
            },
            {
              "internalType": "address",
              "name": "airline",
              "type": "address"
            },
            {
              "internalType": "uint256",
              "name": "timestamp",
              "type": "uint256"
            }
          ],
          "internalType": "struct Airline.MaintenanceLog[]",
          "name": "",
          "type": "tuple[]"
        }
      ],
      "stateMutability": "view",
      "type": "function",
      "constant": true
    }
  ],
  "bytecode": "0x608060405234801561001057600080fd5b50604051610f16380380610f1683398101604081905261002f9161008d565b600280546001600160a01b039485166001600160a01b0319918216179091556003805493851693821693909317909255600480549190931691161790556100d0565b80516001600160a01b038116811461008857600080fd5b919050565b6000806000606084860312156100a257600080fd5b6100ab84610071565b92506100b960208501610071565b91506100c760408501610071565b90509250925092565b610e37806100df6000396000f3fe608060405234801561001057600080fd5b50600436106100885760003560e01c8063d1b34dd81161005b578063d1b34dd8146100fa578063d9d096151461010f578063dc996b6f14610122578063e581329b1461014657600080fd5b80631f45275b1461008d578063487b535f146100bd578063a503898f146100d0578063c05c5e94146100e7575b600080fd5b6003546100a0906001600160a01b031681565b6040516001600160a01b0390911681526020015b60405180910390f35b6004546100a0906001600160a01b031681565b6100d960005481565b6040519081526020016100b4565b6002546100a0906001600160a01b031681565b61010d6101083660046109aa565b61015b565b005b61010d61011d3660046109f1565b6102b1565b610135610130366004610a4b565b610479565b6040516100b4959493929190610aaa565b61014e610649565b6040516100b49190610b01565b6002546040516324b6deb960e11b81526001600160a01b039091169063496dbd729061018e903390600390600401610bbf565b602060405180830381865afa1580156101ab573d6000803e3d6000fd5b505050506040513d601f19601f820116820180604052508101906101cf9190610bfa565b6102195760405162461bcd60e51b81526020600482015260166024820152754e6f742061207665726966696564204169726c696e6560501b60448201526064015b60405180910390fd5b600054821061025b5760405162461bcd60e51b815260206004820152600e60248201526d125b9d985b1a59081b1bd9c8125160921b6044820152606401610210565b60008281526001602052604090206102738282610ca6565b507fdc280875b120650ffe3edf5f724f07fd086361a32c2a387fe34b495f5679e77d82826040516102a5929190610d66565b60405180910390a15050565b6002546040516324b6deb960e11b81526001600160a01b039091169063496dbd72906102e4903390600390600401610bbf565b602060405180830381865afa158015610301573d6000803e3d6000fd5b505050506040513d601f19601f820116820180604052508101906103259190610bfa565b61036a5760405162461bcd60e51b81526020600482015260166024820152754e6f742061207665726966696564204169726c696e6560501b6044820152606401610210565b6040805160e081018252600660a08201908152651b1bd9d9d95960d21b60c083015281526020808201859052818301849052336060830152426080830152600080548152600190915291909120815181906103c59082610ca6565b50602082015160018201906103da9082610ca6565b50604082015160028201906103ef9082610ca6565b5060608201516003820180546001600160a01b0319166001600160a01b039092169190911790556080909101516004909101556000546040517ff62cab62deb5d057f8263f60c76a9514a048535296f238beb84910c73816663d9161045991859085904290610d87565b60405180910390a160008054908061047083610dc4565b91905055505050565b60016020526000908152604090208054819061049490610c23565b80601f01602080910402602001604051908101604052809291908181526020018280546104c090610c23565b801561050d5780601f106104e25761010080835404028352916020019161050d565b820191906000526020600020905b8154815290600101906020018083116104f057829003601f168201915b50505050509080600101805461052290610c23565b80601f016020809104026020016040519081016040528092919081815260200182805461054e90610c23565b801561059b5780601f106105705761010080835404028352916020019161059b565b820191906000526020600020905b81548152906001019060200180831161057e57829003601f168201915b5050505050908060020180546105b090610c23565b80601f01602080910402602001604051908101604052809291908181526020018280546105dc90610c23565b80156106295780601f106105fe57610100808354040283529160200191610629565b820191906000526020600020905b81548152906001019060200180831161060c57829003601f168201915b50505050600383015460049093015491926001600160a01b031691905085565b60606000805467ffffffffffffffff81111561066757610667610907565b6040519080825280602002602001820160405280156106d357816020015b6106c06040518060a0016040528060608152602001606081526020016060815260200160006001600160a01b03168152602001600081525090565b8152602001906001900390816106855790505b50905060005b6000548110156109015760008181526001602052604090819020815160a0810190925280548290829061070b90610c23565b80601f016020809104026020016040519081016040528092919081815260200182805461073790610c23565b80156107845780601f1061075957610100808354040283529160200191610784565b820191906000526020600020905b81548152906001019060200180831161076757829003601f168201915b5050505050815260200160018201805461079d90610c23565b80601f01602080910402602001604051908101604052809291908181526020018280546107c990610c23565b80156108165780601f106107eb57610100808354040283529160200191610816565b820191906000526020600020905b8154815290600101906020018083116107f957829003601f168201915b5050505050815260200160028201805461082f90610c23565b80601f016020809104026020016040519081016040528092919081815260200182805461085b90610c23565b80156108a85780601f1061087d576101008083540402835291602001916108a8565b820191906000526020600020905b81548152906001019060200180831161088b57829003601f168201915b505050918352505060038201546001600160a01b0316602082015260049091015460409091015282518390839081106108e3576108e3610deb565b602002602001018190525080806108f990610dc4565b9150506106d9565b50919050565b634e487b7160e01b600052604160045260246000fd5b600082601f83011261092e57600080fd5b813567ffffffffffffffff8082111561094957610949610907565b604051601f8301601f19908116603f0116810190828211818310171561097157610971610907565b8160405283815286602085880101111561098a57600080fd5b836020870160208301376000602085830101528094505050505092915050565b600080604083850312156109bd57600080fd5b82359150602083013567ffffffffffffffff8111156109db57600080fd5b6109e78582860161091d565b9150509250929050565b60008060408385031215610a0457600080fd5b823567ffffffffffffffff80821115610a1c57600080fd5b610a288683870161091d565b93506020850135915080821115610a3e57600080fd5b506109e78582860161091d565b600060208284031215610a5d57600080fd5b5035919050565b6000815180845260005b81811015610a8a57602081850181015186830182015201610a6e565b506000602082860101526020601f19601f83011685010191505092915050565b60a081526000610abd60a0830188610a64565b8281036020840152610acf8188610a64565b90508281036040840152610ae38187610a64565b6001600160a01b039590951660608401525050608001529392505050565b60006020808301818452808551808352604092508286019150828160051b87010184880160005b83811015610bb157603f19898403018552815160a08151818652610b4e82870182610a64565b915050888201518582038a870152610b668282610a64565b9150508782015185820389870152610b7e8282610a64565b6060848101516001600160a01b031690880152608093840151939096019290925250509386019390860190600101610b28565b509098975050505050505050565b6001600160a01b03831681526040810160058310610bed57634e487b7160e01b600052602160045260246000fd5b8260208301529392505050565b600060208284031215610c0c57600080fd5b81518015158114610c1c57600080fd5b9392505050565b600181811c90821680610c3757607f821691505b60208210810361090157634e487b7160e01b600052602260045260246000fd5b601f821115610ca157600081815260208120601f850160051c81016020861015610c7e5750805b601f850160051c820191505b81811015610c9d57828155600101610c8a565b5050505b505050565b815167ffffffffffffffff811115610cc057610cc0610907565b610cd481610cce8454610c23565b84610c57565b602080601f831160018114610d095760008415610cf15750858301515b600019600386901b1c1916600185901b178555610c9d565b600085815260208120601f198616915b82811015610d3857888601518255948401946001909101908401610d19565b5085821015610d565787850151600019600388901b60f8161c191681555b5050505050600190811b01905550565b828152604060208201526000610d7f6040830184610a64565b949350505050565b848152608060208201526000610da06080830186610a64565b8281036040840152610db28186610a64565b91505082606083015295945050505050565b600060018201610de457634e487b7160e01b600052601160045260246000fd5b5060010190565b634e487b7160e01b600052603260045260246000fdfea2646970667358221220abbe985fd384a7ed3b73a0686fcee0d101a1590280e5df3daa3ff1b5fa2e222c64736f6c63430008130033",
  "immutableReferences": {},
  "source": "// SPDX-License-Identifier: MIT\r\npragma solidity ^0.8.0;\r\n\r\nimport \"./Admin.sol\";\r\nimport \"./Transaction.sol\";\r\nimport \"./Fine.sol\";\r\n\r\ncontract Airline {\r\n    struct MaintenanceLog {\r\n        string status; // \"logged\", \"inspected\", \"cleared\"\r\n        string aircraftId;\r\n        string issueDescription;\r\n        address airline;\r\n        uint timestamp;\r\n    }\r\n\r\n    uint public logCount;\r\n    mapping(uint => MaintenanceLog) public maintenanceLogs;\r\n\r\n    event MaintenanceLogged(uint logId, string aircraftId, string issueDescription, uint timestamp);\r\n    event StatusUpdated(uint logId, string newStatus);\r\n\r\n    modifier onlyVerifiedAirline() {\r\n        require(adminContract.isVerified(msg.sender, Admin.Role.Airline), \"Not a verified Airline\");\r\n        _;\r\n    }\r\n\r\n    Admin public adminContract;\r\n    Transaction public transactionContract;\r\n    Fine public fineContract;\r\n\r\n    constructor(address _adminContract, address _transaction, address _fine) {\r\n        adminContract = Admin(_adminContract);\r\n        transactionContract = Transaction(_transaction);\r\n        fineContract = Fine(_fine);\r\n    }\r\n\r\n    function logMaintenance(string memory aircraftId, string memory issueDescription) external onlyVerifiedAirline {\r\n        maintenanceLogs[logCount] = MaintenanceLog(\r\n            \"logged\",\r\n            aircraftId,\r\n            issueDescription,\r\n            msg.sender,\r\n            block.timestamp\r\n        );\r\n        emit MaintenanceLogged(logCount, aircraftId, issueDescription, block.timestamp);\r\n        logCount++;\r\n    }\r\n\r\n    function updateStatus(uint logId, string memory newStatus) external onlyVerifiedAirline {\r\n        require(logId < logCount, \"Invalid log ID\");\r\n        maintenanceLogs[logId].status = newStatus;\r\n        emit StatusUpdated(logId, newStatus);\r\n    }\r\n\r\n    function getAllLogs() external view returns (MaintenanceLog[] memory) {\r\n        MaintenanceLog[] memory result = new MaintenanceLog[](logCount);\r\n        for (uint i = 0; i < logCount; i++) {\r\n            result[i] = maintenanceLogs[i];\r\n        }\r\n        return result;\r\n    }\r\n}\r\n",
  "sourcePath": "D:\\Amrita\\SEM2\\BCT\\Supply-chain-main\\contracts\\Airline.sol",
  "compiler": {
    "name": "solc",
    "version": "0.8.19+commit.7dd6d404.Emscripten.clang"
  },
  "schemaVersion": "3.4.16",
  "updatedAt": "2025-05-21T02:42:34.817Z",
  "networkType": "ethereum",
  "devdoc": {
    "kind": "dev",
    "methods": {},
    "version": 1
  },
  "userdoc": {
    "kind": "user",
    "methods": {},
    "version": 1
  }
}