{
  "contractName": "Manufacturer",
  "abi": [
    {
      "inputs": [
        {
          "internalType": "address",
          "name": "_adminContract",
          "type": "address"
        },
        {
          "internalType": "address",
          "name": "_supplierContract",
          "type": "address"
        },
        {
          "internalType": "address",
          "name": "_transactionContract",
          "type": "address"
        }
      ],
      "stateMutability": "nonpayable",
      "type": "constructor"
    },
    {
      "anonymous": false,
      "inputs": [
        {
          "indexed": true,
          "internalType": "uint256",
          "name": "orderId",
          "type": "uint256"
        },
        {
          "indexed": false,
          "internalType": "string",
          "name": "materialName",
          "type": "string"
        },
        {
          "indexed": false,
          "internalType": "uint256",
          "name": "quantity",
          "type": "uint256"
        },
        {
          "indexed": false,
          "internalType": "address",
          "name": "supplier",
          "type": "address"
        },
        {
          "indexed": false,
          "internalType": "uint256",
          "name": "totalPrice",
          "type": "uint256"
        }
      ],
      "name": "OrderPlaced",
      "type": "event"
    },
    {
      "inputs": [],
      "name": "adminContract",
      "outputs": [
        {
          "internalType": "contract Admin",
          "name": "",
          "type": "address"
        }
      ],
      "stateMutability": "view",
      "type": "function",
      "constant": true
    },
    {
      "inputs": [],
      "name": "orderCount",
      "outputs": [
        {
          "internalType": "uint256",
          "name": "",
          "type": "uint256"
        }
      ],
      "stateMutability": "view",
      "type": "function",
      "constant": true
    },
    {
      "inputs": [
        {
          "internalType": "uint256",
          "name": "",
          "type": "uint256"
        }
      ],
      "name": "orders",
      "outputs": [
        {
          "internalType": "uint256",
          "name": "orderId",
          "type": "uint256"
        },
        {
          "internalType": "string",
          "name": "materialName",
          "type": "string"
        },
        {
          "internalType": "uint256",
          "name": "quantity",
          "type": "uint256"
        },
        {
          "internalType": "address",
          "name": "supplier",
          "type": "address"
        },
        {
          "internalType": "uint256",
          "name": "totalPrice",
          "type": "uint256"
        }
      ],
      "stateMutability": "view",
      "type": "function",
      "constant": true
    },
    {
      "inputs": [],
      "name": "supplierContract",
      "outputs": [
        {
          "internalType": "contract Supplier",
          "name": "",
          "type": "address"
        }
      ],
      "stateMutability": "view",
      "type": "function",
      "constant": true
    },
    {
      "inputs": [],
      "name": "transactionContract",
      "outputs": [
        {
          "internalType": "contract Transaction",
          "name": "",
          "type": "address"
        }
      ],
      "stateMutability": "view",
      "type": "function",
      "constant": true
    },
    {
      "inputs": [
        {
          "internalType": "address",
          "name": "supplier",
          "type": "address"
        },
        {
          "internalType": "string",
          "name": "materialName",
          "type": "string"
        },
        {
          "internalType": "uint256",
          "name": "quantity",
          "type": "uint256"
        },
        {
          "internalType": "uint256",
          "name": "totalPrice",
          "type": "uint256"
        }
      ],
      "name": "placeOrder",
      "outputs": [],
      "stateMutability": "payable",
      "type": "function",
      "payable": true
    },
    {
      "inputs": [],
      "name": "getOrders",
      "outputs": [
        {
          "components": [
            {
              "internalType": "uint256",
              "name": "orderId",
              "type": "uint256"
            },
            {
              "internalType": "string",
              "name": "materialName",
              "type": "string"
            },
            {
              "internalType": "uint256",
              "name": "quantity",
              "type": "uint256"
            },
            {
              "internalType": "address",
              "name": "supplier",
              "type": "address"
            },
            {
              "internalType": "uint256",
              "name": "totalPrice",
              "type": "uint256"
            }
          ],
          "internalType": "struct Manufacturer.Order[]",
          "name": "",
          "type": "tuple[]"
        }
      ],
      "stateMutability": "view",
      "type": "function",
      "constant": true
    }
  ],
  "bytecode": "0x608060405234801561001057600080fd5b50604051610ce5380380610ce583398101604081905261002f9161008d565b600080546001600160a01b039485166001600160a01b0319918216179091556001805493851693821693909317909255600280549190931691161790556100d0565b80516001600160a01b038116811461008857600080fd5b919050565b6000806000606084860312156100a257600080fd5b6100ab84610071565b92506100b960208501610071565b91506100c760408501610071565b90509250925092565b610c06806100df6000396000f3fe6080604052600436106100705760003560e01c8063315b798f1161004e578063315b798f146100f8578063a85c38ef1461010d578063c05c5e941461013e578063cacdba401461015e57600080fd5b80631f45275b146100755780632453ffa8146100b25780632e2dc43e146100d6575b600080fd5b34801561008157600080fd5b50600254610095906001600160a01b031681565b6040516001600160a01b0390911681526020015b60405180910390f35b3480156100be57600080fd5b506100c860035481565b6040519081526020016100a9565b3480156100e257600080fd5b506100eb61017e565b6040516100a99190610763565b61010b610106366004610817565b61033a565b005b34801561011957600080fd5b5061012d6101283660046108f7565b61065a565b6040516100a9959493929190610910565b34801561014a57600080fd5b50600054610095906001600160a01b031681565b34801561016a57600080fd5b50600154610095906001600160a01b031681565b6060600060035467ffffffffffffffff81111561019d5761019d610801565b60405190808252806020026020018201604052801561020957816020015b6101f66040518060a0016040528060008152602001606081526020016000815260200160006001600160a01b03168152602001600081525090565b8152602001906001900390816101bb5790505b50905060015b600354811161033457600460008281526020019081526020016000206040518060a0016040529081600082015481526020016001820180546102509061094f565b80601f016020809104026020016040519081016040528092919081815260200182805461027c9061094f565b80156102c95780601f1061029e576101008083540402835291602001916102c9565b820191906000526020600020905b8154815290600101906020018083116102ac57829003601f168201915b50505091835250506002820154602082015260038201546001600160a01b0316604082015260049091015460609091015282610306600184610999565b81518110610316576103166109b2565b6020026020010181905250808061032c906109c8565b91505061020f565b50919050565b60005460408051637d95117560e11b81523360048201526024810191909152600c60448201526b26b0b73ab330b1ba3ab932b960a11b60648201526001600160a01b039091169063fb2a22ea90608401602060405180830381865afa1580156103a7573d6000803e3d6000fd5b505050506040513d601f19601f820116820180604052508101906103cb91906109e1565b61041c5760405162461bcd60e51b815260206004820152601b60248201527f4e6f742061207665726966696564206d616e756661637475726572000000000060448201526064015b60405180910390fd5b80341461046b5760405162461bcd60e51b815260206004820152601860248201527f496e636f7272656374207061796d656e7420616d6f756e7400000000000000006044820152606401610413565b6003805490600061047b836109c8565b90915550506040805160a08101825260035480825260208083018781528385018790526001600160a01b0389166060850152608084018690526000928352600490915292902081518155915190919060018201906104d99082610a59565b5060408281015160028301556060830151600380840180546001600160a01b0319166001600160a01b0393841617905560809094015160049384015560015493549151639dea196560e01b8152931692639dea196592610540929188918891339101610b19565b600060405180830381600087803b15801561055a57600080fd5b505af115801561056e573d6000803e3d6000fd5b505060025460035460405163ef4e7e1360e01b81526001600160a01b03909216935063ef4e7e1392506105ab913391899187918a91600401610b53565b600060405180830381600087803b1580156105c557600080fd5b505af11580156105d9573d6000803e3d6000fd5b505050506003547f9ab585a5a20fec1c4522148050d7b4bc12993e4797f994c6d9533cc5cc58d2f5848487856040516106159493929190610b98565b60405180910390a26040516001600160a01b0385169082156108fc029083906000818181858888f19350505050158015610653573d6000803e3d6000fd5b5050505050565b6004602052600090815260409020805460018201805491929161067c9061094f565b80601f01602080910402602001604051908101604052809291908181526020018280546106a89061094f565b80156106f55780601f106106ca576101008083540402835291602001916106f5565b820191906000526020600020905b8154815290600101906020018083116106d857829003601f168201915b5050505060028301546003840154600490940154929390926001600160a01b03909116915085565b6000815180845260005b8181101561074357602081850181015186830182015201610727565b506000602082860101526020601f19601f83011685010191505092915050565b60006020808301818452808551808352604092508286019150828160051b87010184880160005b838110156107f357603f19898403018552815160a08151855288820151818a8701526107b88287018261071d565b838a0151878b01526060808501516001600160a01b03169088015260809384015193909601929092525050938601939086019060010161078a565b509098975050505050505050565b634e487b7160e01b600052604160045260246000fd5b6000806000806080858703121561082d57600080fd5b84356001600160a01b038116811461084457600080fd5b9350602085013567ffffffffffffffff8082111561086157600080fd5b818701915087601f83011261087557600080fd5b81358181111561088757610887610801565b604051601f8201601f19908116603f011681019083821181831017156108af576108af610801565b816040528281528a60208487010111156108c857600080fd5b826020860160208301376000928101602001929092525095989597505050506040840135936060013592915050565b60006020828403121561090957600080fd5b5035919050565b85815260a06020820152600061092960a083018761071d565b6040830195909552506001600160a01b0392909216606083015260809091015292915050565b600181811c9082168061096357607f821691505b60208210810361033457634e487b7160e01b600052602260045260246000fd5b634e487b7160e01b600052601160045260246000fd5b818103818111156109ac576109ac610983565b92915050565b634e487b7160e01b600052603260045260246000fd5b6000600182016109da576109da610983565b5060010190565b6000602082840312156109f357600080fd5b81518015158114610a0357600080fd5b9392505050565b601f821115610a5457600081815260208120601f850160051c81016020861015610a315750805b601f850160051c820191505b81811015610a5057828155600101610a3d565b5050505b505050565b815167ffffffffffffffff811115610a7357610a73610801565b610a8781610a81845461094f565b84610a0a565b602080601f831160018114610abc5760008415610aa45750858301515b600019600386901b1c1916600185901b178555610a50565b600085815260208120601f198616915b82811015610aeb57888601518255948401946001909101908401610acc565b5085821015610b095787850151600019600388901b60f8161c191681555b5050505050600190811b01905550565b848152608060208201526000610b32608083018661071d565b6040830194909452506001600160a01b039190911660609091015292915050565b6001600160a01b038681168252851660208201526040810184905260a060608201819052600090610b869083018561071d565b90508260808301529695505050505050565b608081526000610bab608083018761071d565b6020830195909552506001600160a01b0392909216604083015260609091015291905056fea2646970667358221220eb32eb229391f8bd236cc4578b9283a78e971dea7aa0c5a43d2fa046f609e83564736f6c63430008130033",
  "immutableReferences": {},
  "source": "// SPDX-License-Identifier: MIT\npragma solidity ^0.8.0;\n\nimport \"./Admin.sol\";\nimport \"./Supplier.sol\";\nimport \"./Transaction.sol\";\n\ncontract Manufacturer {\n    Admin public adminContract;\n    Supplier public supplierContract;\n    Transaction public transactionContract;\n\n    struct Order {\n        uint orderId;\n        string materialName;\n        uint quantity;\n        address supplier;\n        uint totalPrice;\n    }\n\n    uint public orderCount;\n\n    mapping(uint => Order) public orders;\n\n    event OrderPlaced(uint indexed orderId, string materialName, uint quantity, address supplier, uint totalPrice);\n\n    constructor(address _adminContract, address _supplierContract, address _transactionContract) {\n        adminContract = Admin(_adminContract);\n        supplierContract = Supplier(_supplierContract);\n        transactionContract = Transaction(_transactionContract);\n    }\n\n    modifier onlyVerifiedManufacturer() {\n        require(adminContract.isVerified(msg.sender, \"Manufacturer\"), \"Not a verified manufacturer\");\n        _;\n    }\n\n    function placeOrder(\n        address supplier,\n        string memory materialName,\n        uint quantity,\n        uint totalPrice\n    ) external payable onlyVerifiedManufacturer {\n        require(msg.value == totalPrice, \"Incorrect payment amount\");\n\n        orderCount++;\n        orders[orderCount] = Order(orderCount, materialName, quantity, supplier, totalPrice);\n        supplierContract.receiveOrder(orderCount, materialName, quantity, msg.sender);\n\n        transactionContract.recordTransaction(msg.sender, supplier, totalPrice, materialName, orderCount);\n        emit OrderPlaced(orderCount, materialName, quantity, supplier, totalPrice);\n\n        payable(supplier).transfer(totalPrice);\n    }\n\n    function getOrders() external view returns (Order[] memory) {\n        Order[] memory result = new Order[](orderCount);\n        for (uint i = 1; i <= orderCount; i++) {\n            result[i - 1] = orders[i];\n        }\n        return result;\n    }\n}",
  "sourcePath": "D:\\Amrita\\SEM2\\BCT\\Supply-chain-main\\contracts\\Manufacturer.sol",
  "compiler": {
    "name": "solc",
    "version": "0.8.19+commit.7dd6d404.Emscripten.clang"
  },
  "schemaVersion": "3.4.16",
  "updatedAt": "2025-05-12T19:33:00.796Z",
  "networkType": "ethereum",
  "devdoc": {
    "kind": "dev",
    "methods": {},
    "version": 1
  },
  "userdoc": {
    "kind": "user",
    "methods": {},
    "version": 1
  }
}