{
  "contractName": "MRO",
  "abi": [
    {
      "inputs": [
        {
          "internalType": "address",
          "name": "_admin",
          "type": "address"
        }
      ],
      "stateMutability": "nonpayable",
      "type": "constructor"
    },
    {
      "anonymous": false,
      "inputs": [
        {
          "indexed": true,
          "internalType": "address",
          "name": "mro",
          "type": "address"
        }
      ],
      "name": "MRORegistered",
      "type": "event"
    },
    {
      "anonymous": false,
      "inputs": [
        {
          "indexed": true,
          "internalType": "uint256",
          "name": "partId",
          "type": "uint256"
        },
        {
          "indexed": false,
          "internalType": "enum Utils.PartStatus",
          "name": "status",
          "type": "uint8"
        }
      ],
      "name": "PartStatusUpdated",
      "type": "event"
    },
    {
      "inputs": [],
      "name": "admin",
      "outputs": [
        {
          "internalType": "contract Admin",
          "name": "",
          "type": "address"
        }
      ],
      "stateMutability": "view",
      "type": "function",
      "constant": true
    },
    {
      "inputs": [
        {
          "internalType": "address",
          "name": "",
          "type": "address"
        }
      ],
      "name": "isMRO",
      "outputs": [
        {
          "internalType": "bool",
          "name": "",
          "type": "bool"
        }
      ],
      "stateMutability": "view",
      "type": "function",
      "constant": true
    },
    {
      "inputs": [
        {
          "internalType": "address",
          "name": "_mro",
          "type": "address"
        }
      ],
      "name": "registerMRO",
      "outputs": [],
      "stateMutability": "nonpayable",
      "type": "function"
    },
    {
      "inputs": [
        {
          "internalType": "string",
          "name": "_aircraftId",
          "type": "string"
        },
        {
          "internalType": "string",
          "name": "_description",
          "type": "string"
        }
      ],
      "name": "createServiceOrder",
      "outputs": [],
      "stateMutability": "nonpayable",
      "type": "function"
    },
    {
      "inputs": [
        {
          "internalType": "uint256",
          "name": "_partId",
          "type": "uint256"
        },
        {
          "internalType": "enum Utils.PartStatus",
          "name": "_status",
          "type": "uint8"
        }
      ],
      "name": "updatePartStatus",
      "outputs": [],
      "stateMutability": "nonpayable",
      "type": "function"
    },
    {
      "inputs": [],
      "name": "getServiceOrders",
      "outputs": [
        {
          "components": [
            {
              "internalType": "uint256",
              "name": "serviceOrderId",
              "type": "uint256"
            },
            {
              "internalType": "string",
              "name": "aircraftId",
              "type": "string"
            },
            {
              "internalType": "string",
              "name": "description",
              "type": "string"
            },
            {
              "internalType": "string",
              "name": "status",
              "type": "string"
            }
          ],
          "internalType": "struct Utils.ServiceOrder[]",
          "name": "",
          "type": "tuple[]"
        }
      ],
      "stateMutability": "view",
      "type": "function",
      "constant": true
    },
    {
      "inputs": [],
      "name": "getParts",
      "outputs": [
        {
          "components": [
            {
              "internalType": "uint256",
              "name": "partId",
              "type": "uint256"
            },
            {
              "internalType": "string",
              "name": "name",
              "type": "string"
            },
            {
              "internalType": "string",
              "name": "description",
              "type": "string"
            },
            {
              "internalType": "address",
              "name": "manufacturer",
              "type": "address"
            },
            {
              "internalType": "enum Utils.PartStatus",
              "name": "status",
              "type": "uint8"
            }
          ],
          "internalType": "struct Utils.Part[]",
          "name": "",
          "type": "tuple[]"
        }
      ],
      "stateMutability": "view",
      "type": "function",
      "constant": true
    }
  ],
  "bytecode": "0x608060405234801561001057600080fd5b50604051610de8380380610de883398101604081905261002f916100ae565b6001600160a01b0381166100895760405162461bcd60e51b815260206004820152601c60248201527f41646d696e20616464726573732063616e6e6f74206265207a65726f00000000604482015260640160405180910390fd5b600080546001600160a01b0319166001600160a01b03929092169190911790556100de565b6000602082840312156100c057600080fd5b81516001600160a01b03811681146100d757600080fd5b9392505050565b610cfb806100ed6000396000f3fe608060405234801561001057600080fd5b506004361061007d5760003560e01c80634e69dba51161005b5780634e69dba5146100e457806383993327146100f757806398431dbc1461010c578063f851a4401461011f57600080fd5b806324d9fe521461008257806327daaaae146100ba5780633261f66b146100cf575b600080fd5b6100a5610090366004610581565b60016020526000908152604090205460ff1681565b60405190151581526020015b60405180910390f35b6100cd6100c83660046106b6565b61014a565b005b6100d76101ea565b6040516100b1919061078c565b6100cd6100f2366004610581565b610260565b6100ff610429565b6040516100b19190610846565b6100cd61011a3660046108f1565b61049a565b600054610132906001600160a01b031681565b6040516001600160a01b0390911681526020016100b1565b3360009081526001602052604090205460ff166101825760405162461bcd60e51b815260040161017990610921565b60405180910390fd5b6000546040516313ed555760e11b81526001600160a01b03909116906327daaaae906101b4908590859060040161096c565b600060405180830381600087803b1580156101ce57600080fd5b505af11580156101e2573d6000803e3d6000fd5b505050505050565b6000805460408051633261f66b60e01b815290516060936001600160a01b0390931692633261f66b92600480820193918290030181865afa158015610233573d6000803e3d6000fd5b505050506040513d6000823e601f3d908101601f1916820160405261025b9190810190610a0b565b905090565b600054604051630935e01b60e21b81523360048201526001600160a01b03909116906324d7806c90602401602060405180830381865afa1580156102a8573d6000803e3d6000fd5b505050506040513d601f19601f820116820180604052508101906102cc9190610b4b565b6103225760405162461bcd60e51b815260206004820152602160248201527f4f6e6c792061646d696e2063616e2063616c6c20746869732066756e6374696f6044820152603760f91b6064820152608401610179565b6001600160a01b0381166103785760405162461bcd60e51b815260206004820152601a60248201527f4d524f20616464726573732063616e6e6f74206265207a65726f0000000000006044820152606401610179565b6001600160a01b03811660009081526001602052604090205460ff16156103da5760405162461bcd60e51b8152602060048201526016602482015275135493c8185b1c9958591e481c9959da5cdd195c995960521b6044820152606401610179565b6001600160a01b0381166000818152600160208190526040808320805460ff1916909217909155517f45643798a4a7f98ef5857a59fdf46204bb0c2ccb6194174b529769635df055609190a250565b6000805460408051638399332760e01b815290516060936001600160a01b0390931692638399332792600480820193918290030181865afa158015610472573d6000803e3d6000fd5b505050506040513d6000823e601f3d908101601f1916820160405261025b9190810190610b6d565b3360009081526001602052604090205460ff166104c95760405162461bcd60e51b815260040161017990610921565b600054604051632610c76f60e21b81526001600160a01b03909116906398431dbc906104fb9085908590600401610c9d565b600060405180830381600087803b15801561051557600080fd5b505af1158015610529573d6000803e3d6000fd5b50505050817f6661c3d1c5ae3dbb4656111d74a5152cf90dc5d1d427b814c84c20fca346abff8260405161055d9190610cb1565b60405180910390a25050565b6001600160a01b038116811461057e57600080fd5b50565b60006020828403121561059357600080fd5b813561059e81610569565b9392505050565b634e487b7160e01b600052604160045260246000fd5b60405160a0810167ffffffffffffffff811182821017156105de576105de6105a5565b60405290565b6040516080810167ffffffffffffffff811182821017156105de576105de6105a5565b604051601f8201601f1916810167ffffffffffffffff81118282101715610630576106306105a5565b604052919050565b600067ffffffffffffffff821115610652576106526105a5565b50601f01601f191660200190565b600082601f83011261067157600080fd5b813561068461067f82610638565b610607565b81815284602083860101111561069957600080fd5b816020850160208301376000918101602001919091529392505050565b600080604083850312156106c957600080fd5b823567ffffffffffffffff808211156106e157600080fd5b6106ed86838701610660565b9350602085013591508082111561070357600080fd5b5061071085828601610660565b9150509250929050565b60005b8381101561073557818101518382015260200161071d565b50506000910152565b6000815180845261075681602086016020860161071a565b601f01601f19169290920160200192915050565b6003811061078857634e487b7160e01b600052602160045260246000fd5b9052565b60006020808301818452808551808352604092508286019150828160051b87010184880160005b8381101561083857603f19898403018552815160a08151855288820151818a8701526107e18287018261073e565b91505087820151858203898701526107f9828261073e565b6060848101516001600160a01b0316908801526080938401519390925090506108248187018461076a565b5095880195935050908601906001016107b3565b509098975050505050505050565b60006020808301818452808551808352604092508286019150828160051b87010184880160005b8381101561083857603f19898403018552815160808151855288820151818a87015261089b8287018261073e565b91505087820151858203898701526108b3828261073e565b915050606080830151925085820381870152506108d0818361073e565b96890196945050509086019060010161086d565b6003811061057e57600080fd5b6000806040838503121561090457600080fd5b823591506020830135610916816108e4565b809150509250929050565b6020808252602b908201527f4f6e6c792072656769737465726564204d524f732063616e2063616c6c20746860408201526a34b990333ab731ba34b7b760a91b606082015260800190565b60408152600061097f604083018561073e565b8281036020840152610991818561073e565b95945050505050565b600067ffffffffffffffff8211156109b4576109b46105a5565b5060051b60200190565b600082601f8301126109cf57600080fd5b81516109dd61067f82610638565b8181528460208386010111156109f257600080fd5b610a0382602083016020870161071a565b949350505050565b60006020808385031215610a1e57600080fd5b825167ffffffffffffffff80821115610a3657600080fd5b818501915085601f830112610a4a57600080fd5b8151610a5861067f8261099a565b81815260059190911b83018401908481019088831115610a7757600080fd5b8585015b83811015610b3e57805185811115610a9257600080fd5b860160a0818c03601f19011215610aa95760008081fd5b610ab16105bb565b88820151815260408083015188811115610acb5760008081fd5b610ad98e8c838701016109be565b8b8401525060608084015189811115610af25760008081fd5b610b008f8d838801016109be565b83850152506080915081840151610b1681610569565b9083015260a0929092015191610b2b836108e4565b8101919091528352918601918601610a7b565b5098975050505050505050565b600060208284031215610b5d57600080fd5b8151801515811461059e57600080fd5b60006020808385031215610b8057600080fd5b825167ffffffffffffffff80821115610b9857600080fd5b818501915085601f830112610bac57600080fd5b8151610bba61067f8261099a565b81815260059190911b83018401908481019088831115610bd957600080fd5b8585015b83811015610b3e57805185811115610bf457600080fd5b86016080818c03601f19011215610c0b5760008081fd5b610c136105e4565b88820151815260408083015188811115610c2d5760008081fd5b610c3b8e8c838701016109be565b8b8401525060608084015189811115610c545760008081fd5b610c628f8d838801016109be565b83850152506080840151915088821115610c7c5760008081fd5b610c8a8e8c848701016109be565b9083015250845250918601918601610bdd565b8281526040810161059e602083018461076a565b60208101610cbf828461076a565b9291505056fea26469706673582212200968676dff5c4bf1810755dd824a6bee645fad3551eeae7c6892a66d48e1368e64736f6c63430008130033",
  "immutableReferences": {},
  "source": "// SPDX-License-Identifier: MIT\npragma solidity ^0.8.19;\n\nimport \"./Admin.sol\";\nimport \"./Utils.sol\";\n\ncontract MRO {\n    Admin public admin;\n    mapping(address => bool) public isMRO;\n\n    event MRORegistered(address indexed mro);\n    event PartStatusUpdated(uint indexed partId, Utils.PartStatus status);\n\n    modifier onlyAdmin() {\n        require(admin.isAdmin(msg.sender), \"Only admin can call this function\");\n        _;\n    }\n\n    modifier onlyMRO() {\n        require(isMRO[msg.sender], \"Only registered MROs can call this function\");\n        _;\n    }\n\n    constructor(address _admin) {\n        require(_admin != address(0), \"Admin address cannot be zero\");\n        admin = Admin(_admin);\n    }\n\n    function registerMRO(address _mro) external onlyAdmin {\n        require(_mro != address(0), \"MRO address cannot be zero\");\n        require(!isMRO[_mro], \"MRO already registered\");\n        isMRO[_mro] = true;\n        emit MRORegistered(_mro);\n    }\n\n    function createServiceOrder(string memory _aircraftId, string memory _description) external onlyMRO {\n        admin.createServiceOrder(_aircraftId, _description);\n    }\n\n    function updatePartStatus(uint _partId, Utils.PartStatus _status) external onlyMRO {\n        admin.updatePartStatus(_partId, _status);\n        emit PartStatusUpdated(_partId, _status);\n    }\n\n    function getServiceOrders() external view returns (Utils.ServiceOrder[] memory) {\n        return admin.getServiceOrders();\n    }\n\n    function getParts() external view returns (Utils.Part[] memory) {\n        return admin.getParts();\n    }\n}",
  "sourcePath": "D:\\Amrita\\SEM2\\BCT\\Supply-chain-main\\contracts\\MRO.sol",
  "compiler": {
    "name": "solc",
    "version": "0.8.19+commit.7dd6d404.Emscripten.clang"
  },
  "schemaVersion": "3.4.16",
  "updatedAt": "2025-05-05T10:26:53.972Z",
  "networkType": "ethereum",
  "devdoc": {
    "kind": "dev",
    "methods": {},
    "version": 1
  },
  "userdoc": {
    "kind": "user",
    "methods": {},
    "version": 1
  }
}