{
  "contractName": "PartProduction",
  "abi": [
    {
      "anonymous": false,
      "inputs": [
        {
          "indexed": false,
          "internalType": "string",
          "name": "partName",
          "type": "string"
        },
        {
          "indexed": false,
          "internalType": "string",
          "name": "serialBatch",
          "type": "string"
        },
        {
          "indexed": false,
          "internalType": "string",
          "name": "materialUsed",
          "type": "string"
        },
        {
          "indexed": false,
          "internalType": "string",
          "name": "manufacturer",
          "type": "string"
        },
        {
          "indexed": false,
          "internalType": "string",
          "name": "status",
          "type": "string"
        },
        {
          "indexed": false,
          "internalType": "string",
          "name": "manufactureDate",
          "type": "string"
        },
        {
          "indexed": false,
          "internalType": "string",
          "name": "deliveryDate",
          "type": "string"
        }
      ],
      "name": "PartProduced",
      "type": "event"
    },
    {
      "inputs": [
        {
          "internalType": "uint256",
          "name": "",
          "type": "uint256"
        }
      ],
      "name": "parts",
      "outputs": [
        {
          "internalType": "string",
          "name": "partName",
          "type": "string"
        },
        {
          "internalType": "string",
          "name": "serialBatch",
          "type": "string"
        },
        {
          "internalType": "string",
          "name": "materialUsed",
          "type": "string"
        },
        {
          "internalType": "string",
          "name": "manufacturer",
          "type": "string"
        },
        {
          "internalType": "string",
          "name": "status",
          "type": "string"
        },
        {
          "internalType": "string",
          "name": "manufactureDate",
          "type": "string"
        },
        {
          "internalType": "string",
          "name": "deliveryDate",
          "type": "string"
        }
      ],
      "stateMutability": "view",
      "type": "function",
      "constant": true
    },
    {
      "inputs": [
        {
          "internalType": "string",
          "name": "_partName",
          "type": "string"
        },
        {
          "internalType": "string",
          "name": "_serialBatch",
          "type": "string"
        },
        {
          "internalType": "string",
          "name": "_materialUsed",
          "type": "string"
        },
        {
          "internalType": "string",
          "name": "_manufacturer",
          "type": "string"
        },
        {
          "internalType": "string",
          "name": "_status",
          "type": "string"
        },
        {
          "internalType": "string",
          "name": "_manufactureDate",
          "type": "string"
        },
        {
          "internalType": "string",
          "name": "_deliveryDate",
          "type": "string"
        }
      ],
      "name": "producePart",
      "outputs": [],
      "stateMutability": "nonpayable",
      "type": "function"
    },
    {
      "inputs": [],
      "name": "getAllParts",
      "outputs": [
        {
          "components": [
            {
              "internalType": "string",
              "name": "partName",
              "type": "string"
            },
            {
              "internalType": "string",
              "name": "serialBatch",
              "type": "string"
            },
            {
              "internalType": "string",
              "name": "materialUsed",
              "type": "string"
            },
            {
              "internalType": "string",
              "name": "manufacturer",
              "type": "string"
            },
            {
              "internalType": "string",
              "name": "status",
              "type": "string"
            },
            {
              "internalType": "string",
              "name": "manufactureDate",
              "type": "string"
            },
            {
              "internalType": "string",
              "name": "deliveryDate",
              "type": "string"
            }
          ],
          "internalType": "struct PartProduction.Part[]",
          "name": "",
          "type": "tuple[]"
        }
      ],
      "stateMutability": "view",
      "type": "function",
      "constant": true
    }
  ],
  "bytecode": "0x608060405234801561001057600080fd5b50610f8c806100206000396000f3fe608060405234801561001057600080fd5b50600436106100415760003560e01c80639d1f1a18146100465780639df263dd1461005b578063c9eb466214610079575b600080fd5b610059610054366004610aef565b61009f565b005b6100636101e5565b6040516100709190610c50565b60405180910390f35b61008c610087366004610d5d565b610642565b6040516100709796959493929190610d76565b6040805160e08101825288815260208101889052908101869052606081018590526080810184905260a0810183905260c0810182905260008054600181018255908052815160079091027f290decd9548b62a8d60345a988386fc84ba6bc95484008f6362f93160ef3e563019081906101189082610e96565b506020820151600182019061012d9082610e96565b50604082015160028201906101429082610e96565b50606082015160038201906101579082610e96565b506080820151600482019061016c9082610e96565b5060a082015160058201906101819082610e96565b5060c082015160068201906101969082610e96565b5050507f16ccfc9ba597b0efe7431d03050714296bb1ec28b4bf59d944e9c6920984f574878787878787876040516101d49796959493929190610d76565b60405180910390a150505050505050565b60606000805480602002602001604051908101604052809291908181526020016000905b8282101561063957838290600052602060002090600702016040518060e001604052908160008201805461023c90610e0d565b80601f016020809104026020016040519081016040528092919081815260200182805461026890610e0d565b80156102b55780601f1061028a576101008083540402835291602001916102b5565b820191906000526020600020905b81548152906001019060200180831161029857829003601f168201915b505050505081526020016001820180546102ce90610e0d565b80601f01602080910402602001604051908101604052809291908181526020018280546102fa90610e0d565b80156103475780601f1061031c57610100808354040283529160200191610347565b820191906000526020600020905b81548152906001019060200180831161032a57829003601f168201915b5050505050815260200160028201805461036090610e0d565b80601f016020809104026020016040519081016040528092919081815260200182805461038c90610e0d565b80156103d95780601f106103ae576101008083540402835291602001916103d9565b820191906000526020600020905b8154815290600101906020018083116103bc57829003601f168201915b505050505081526020016003820180546103f290610e0d565b80601f016020809104026020016040519081016040528092919081815260200182805461041e90610e0d565b801561046b5780601f106104405761010080835404028352916020019161046b565b820191906000526020600020905b81548152906001019060200180831161044e57829003601f168201915b5050505050815260200160048201805461048490610e0d565b80601f01602080910402602001604051908101604052809291908181526020018280546104b090610e0d565b80156104fd5780601f106104d2576101008083540402835291602001916104fd565b820191906000526020600020905b8154815290600101906020018083116104e057829003601f168201915b5050505050815260200160058201805461051690610e0d565b80601f016020809104026020016040519081016040528092919081815260200182805461054290610e0d565b801561058f5780601f106105645761010080835404028352916020019161058f565b820191906000526020600020905b81548152906001019060200180831161057257829003601f168201915b505050505081526020016006820180546105a890610e0d565b80601f01602080910402602001604051908101604052809291908181526020018280546105d490610e0d565b80156106215780601f106105f657610100808354040283529160200191610621565b820191906000526020600020905b81548152906001019060200180831161060457829003601f168201915b50505050508152505081526020019060010190610209565b50505050905090565b6000818154811061065257600080fd5b906000526020600020906007020160009150905080600001805461067590610e0d565b80601f01602080910402602001604051908101604052809291908181526020018280546106a190610e0d565b80156106ee5780601f106106c3576101008083540402835291602001916106ee565b820191906000526020600020905b8154815290600101906020018083116106d157829003601f168201915b50505050509080600101805461070390610e0d565b80601f016020809104026020016040519081016040528092919081815260200182805461072f90610e0d565b801561077c5780601f106107515761010080835404028352916020019161077c565b820191906000526020600020905b81548152906001019060200180831161075f57829003601f168201915b50505050509080600201805461079190610e0d565b80601f01602080910402602001604051908101604052809291908181526020018280546107bd90610e0d565b801561080a5780601f106107df5761010080835404028352916020019161080a565b820191906000526020600020905b8154815290600101906020018083116107ed57829003601f168201915b50505050509080600301805461081f90610e0d565b80601f016020809104026020016040519081016040528092919081815260200182805461084b90610e0d565b80156108985780601f1061086d57610100808354040283529160200191610898565b820191906000526020600020905b81548152906001019060200180831161087b57829003601f168201915b5050505050908060040180546108ad90610e0d565b80601f01602080910402602001604051908101604052809291908181526020018280546108d990610e0d565b80156109265780601f106108fb57610100808354040283529160200191610926565b820191906000526020600020905b81548152906001019060200180831161090957829003601f168201915b50505050509080600501805461093b90610e0d565b80601f016020809104026020016040519081016040528092919081815260200182805461096790610e0d565b80156109b45780601f10610989576101008083540402835291602001916109b4565b820191906000526020600020905b81548152906001019060200180831161099757829003601f168201915b5050505050908060060180546109c990610e0d565b80601f01602080910402602001604051908101604052809291908181526020018280546109f590610e0d565b8015610a425780601f10610a1757610100808354040283529160200191610a42565b820191906000526020600020905b815481529060010190602001808311610a2557829003601f168201915b5050505050905087565b634e487b7160e01b600052604160045260246000fd5b600082601f830112610a7357600080fd5b813567ffffffffffffffff80821115610a8e57610a8e610a4c565b604051601f8301601f19908116603f01168101908282118183101715610ab657610ab6610a4c565b81604052838152866020858801011115610acf57600080fd5b836020870160208301376000602085830101528094505050505092915050565b600080600080600080600060e0888a031215610b0a57600080fd5b873567ffffffffffffffff80821115610b2257600080fd5b610b2e8b838c01610a62565b985060208a0135915080821115610b4457600080fd5b610b508b838c01610a62565b975060408a0135915080821115610b6657600080fd5b610b728b838c01610a62565b965060608a0135915080821115610b8857600080fd5b610b948b838c01610a62565b955060808a0135915080821115610baa57600080fd5b610bb68b838c01610a62565b945060a08a0135915080821115610bcc57600080fd5b610bd88b838c01610a62565b935060c08a0135915080821115610bee57600080fd5b50610bfb8a828b01610a62565b91505092959891949750929550565b6000815180845260005b81811015610c3057602081850181015186830182015201610c14565b506000602082860101526020601f19601f83011685010191505092915050565b60006020808301818452808551808352604092508286019150828160051b87010184880160005b83811015610d4f57603f19898403018552815160e08151818652610c9d82870182610c0a565b915050888201518582038a870152610cb58282610c0a565b9150508782015185820389870152610ccd8282610c0a565b91505060608083015186830382880152610ce78382610c0a565b9250505060808083015186830382880152610d028382610c0a565b9250505060a08083015186830382880152610d1d8382610c0a565b9250505060c08083015192508582038187015250610d3b8183610c0a565b968901969450505090860190600101610c77565b509098975050505050505050565b600060208284031215610d6f57600080fd5b5035919050565b60e081526000610d8960e083018a610c0a565b8281036020840152610d9b818a610c0a565b90508281036040840152610daf8189610c0a565b90508281036060840152610dc38188610c0a565b90508281036080840152610dd78187610c0a565b905082810360a0840152610deb8186610c0a565b905082810360c0840152610dff8185610c0a565b9a9950505050505050505050565b600181811c90821680610e2157607f821691505b602082108103610e4157634e487b7160e01b600052602260045260246000fd5b50919050565b601f821115610e9157600081815260208120601f850160051c81016020861015610e6e5750805b601f850160051c820191505b81811015610e8d57828155600101610e7a565b5050505b505050565b815167ffffffffffffffff811115610eb057610eb0610a4c565b610ec481610ebe8454610e0d565b84610e47565b602080601f831160018114610ef95760008415610ee15750858301515b600019600386901b1c1916600185901b178555610e8d565b600085815260208120601f198616915b82811015610f2857888601518255948401946001909101908401610f09565b5085821015610f465787850151600019600388901b60f8161c191681555b5050505050600190811b0190555056fea264697066735822122098bb075edbccadeb7567a3f5521d96210713c2449dafbaceac638b22f612de2664736f6c63430008130033",
  "immutableReferences": {},
  "source": "// SPDX-License-Identifier: MIT\r\npragma solidity ^0.8.0;\r\n\r\ncontract PartProduction {\r\n    struct Part {\r\n        string partName;\r\n        string serialBatch;\r\n        string materialUsed;\r\n        string manufacturer;\r\n        string status;\r\n        string manufactureDate;\r\n        string deliveryDate;\r\n    }\r\n\r\n    Part[] public parts;\r\n\r\n    event PartProduced(\r\n        string partName,\r\n        string serialBatch,\r\n        string materialUsed,\r\n        string manufacturer,\r\n        string status,\r\n        string manufactureDate,\r\n        string deliveryDate\r\n    );\r\n\r\n    function producePart(\r\n        string memory _partName,\r\n        string memory _serialBatch,\r\n        string memory _materialUsed,\r\n        string memory _manufacturer,\r\n        string memory _status,\r\n        string memory _manufactureDate,\r\n        string memory _deliveryDate\r\n    ) public {\r\n        parts.push(\r\n            Part(\r\n                _partName,\r\n                _serialBatch,\r\n                _materialUsed,\r\n                _manufacturer,\r\n                _status,\r\n                _manufactureDate,\r\n                _deliveryDate\r\n            )\r\n        );\r\n        emit PartProduced(_partName, _serialBatch, _materialUsed, _manufacturer, _status, _manufactureDate, _deliveryDate);\r\n    }\r\n\r\n    function getAllParts() public view returns (Part[] memory) {\r\n        return parts;\r\n    }\r\n}\r\n",
  "sourcePath": "D:\\Amrita\\SEM2\\BCT\\Supply-chain-main\\contracts\\PartProduction.sol",
  "compiler": {
    "name": "solc",
    "version": "0.8.19+commit.7dd6d404.Emscripten.clang"
  },
  "schemaVersion": "3.4.16",
  "updatedAt": "2025-05-21T02:42:34.835Z",
  "networkType": "ethereum",
  "devdoc": {
    "kind": "dev",
    "methods": {},
    "version": 1
  },
  "userdoc": {
    "kind": "user",
    "methods": {},
    "version": 1
  }
}