{
  "contractName": "RegulatoryAuthority",
  "abi": [
    {
      "inputs": [
        {
          "internalType": "address",
          "name": "_adminContract",
          "type": "address"
        },
        {
          "internalType": "address",
          "name": "_transaction",
          "type": "address"
        },
        {
          "internalType": "address",
          "name": "_fine",
          "type": "address"
        }
      ],
      "stateMutability": "nonpayable",
      "type": "constructor"
    },
    {
      "anonymous": false,
      "inputs": [
        {
          "indexed": false,
          "internalType": "uint256",
          "name": "certId",
          "type": "uint256"
        },
        {
          "indexed": false,
          "internalType": "string",
          "name": "partId",
          "type": "string"
        },
        {
          "indexed": false,
          "internalType": "address",
          "name": "issuedTo",
          "type": "address"
        }
      ],
      "name": "CertificationIssued",
      "type": "event"
    },
    {
      "anonymous": false,
      "inputs": [
        {
          "indexed": false,
          "internalType": "uint256",
          "name": "certId",
          "type": "uint256"
        },
        {
          "indexed": false,
          "internalType": "string",
          "name": "newStatus",
          "type": "string"
        }
      ],
      "name": "CertificationStatusUpdated",
      "type": "event"
    },
    {
      "inputs": [],
      "name": "adminContract",
      "outputs": [
        {
          "internalType": "contract Admin",
          "name": "",
          "type": "address"
        }
      ],
      "stateMutability": "view",
      "type": "function",
      "constant": true
    },
    {
      "inputs": [],
      "name": "certCount",
      "outputs": [
        {
          "internalType": "uint256",
          "name": "",
          "type": "uint256"
        }
      ],
      "stateMutability": "view",
      "type": "function",
      "constant": true
    },
    {
      "inputs": [
        {
          "internalType": "uint256",
          "name": "",
          "type": "uint256"
        }
      ],
      "name": "certifications",
      "outputs": [
        {
          "internalType": "uint256",
          "name": "certId",
          "type": "uint256"
        },
        {
          "internalType": "string",
          "name": "partId",
          "type": "string"
        },
        {
          "internalType": "string",
          "name": "certDetails",
          "type": "string"
        },
        {
          "internalType": "address",
          "name": "issuedTo",
          "type": "address"
        },
        {
          "internalType": "string",
          "name": "status",
          "type": "string"
        }
      ],
      "stateMutability": "view",
      "type": "function",
      "constant": true
    },
    {
      "inputs": [],
      "name": "fineContract",
      "outputs": [
        {
          "internalType": "contract Fine",
          "name": "",
          "type": "address"
        }
      ],
      "stateMutability": "view",
      "type": "function",
      "constant": true
    },
    {
      "inputs": [],
      "name": "transactionContract",
      "outputs": [
        {
          "internalType": "contract Transaction",
          "name": "",
          "type": "address"
        }
      ],
      "stateMutability": "view",
      "type": "function",
      "constant": true
    },
    {
      "inputs": [
        {
          "internalType": "string",
          "name": "partId",
          "type": "string"
        },
        {
          "internalType": "string",
          "name": "certDetails",
          "type": "string"
        },
        {
          "internalType": "address",
          "name": "issuedTo",
          "type": "address"
        }
      ],
      "name": "issueCertification",
      "outputs": [],
      "stateMutability": "nonpayable",
      "type": "function"
    },
    {
      "inputs": [
        {
          "internalType": "uint256",
          "name": "certId",
          "type": "uint256"
        },
        {
          "internalType": "string",
          "name": "newStatus",
          "type": "string"
        }
      ],
      "name": "updateCertificationStatus",
      "outputs": [],
      "stateMutability": "nonpayable",
      "type": "function"
    },
    {
      "inputs": [],
      "name": "getAllCertifications",
      "outputs": [
        {
          "components": [
            {
              "internalType": "uint256",
              "name": "certId",
              "type": "uint256"
            },
            {
              "internalType": "string",
              "name": "partId",
              "type": "string"
            },
            {
              "internalType": "string",
              "name": "certDetails",
              "type": "string"
            },
            {
              "internalType": "address",
              "name": "issuedTo",
              "type": "address"
            },
            {
              "internalType": "string",
              "name": "status",
              "type": "string"
            }
          ],
          "internalType": "struct RegulatoryAuthority.Certification[]",
          "name": "",
          "type": "tuple[]"
        }
      ],
      "stateMutability": "view",
      "type": "function",
      "constant": true
    }
  ],
  "bytecode": "0x608060405234801561001057600080fd5b50604051610f87380380610f8783398101604081905261002f9161008d565b600080546001600160a01b039485166001600160a01b0319918216179091556002805493851693821693909317909255600180549190931691161790556100d0565b80516001600160a01b038116811461008857600080fd5b919050565b6000806000606084860312156100a257600080fd5b6100ab84610071565b92506100b960208501610071565b91506100c760408501610071565b90509250925092565b610ea8806100df6000396000f3fe608060405234801561001057600080fd5b50600436106100885760003560e01c8063b46dc5cb1161005b578063b46dc5cb14610109578063c05c5e941461011e578063d4e207a214610131578063ec4cd7381461014857600080fd5b80631f45275b1461008d5780633c0359a4146100bd578063487b535f146100e15780636632573b146100f4575b600080fd5b6002546100a0906001600160a01b031681565b6040516001600160a01b0390911681526020015b60405180910390f35b6100d06100cb3660046108f1565b61015b565b6040516100b4959493929190610950565b6001546100a0906001600160a01b031681565b610107610102366004610a4d565b610331565b005b6101116104e5565b6040516100b49190610ad1565b6000546100a0906001600160a01b031681565b61013a60035481565b6040519081526020016100b4565b610107610156366004610b91565b6107b6565b6004602052600090815260409020805460018201805491929161017d90610bd8565b80601f01602080910402602001604051908101604052809291908181526020018280546101a990610bd8565b80156101f65780601f106101cb576101008083540402835291602001916101f6565b820191906000526020600020905b8154815290600101906020018083116101d957829003601f168201915b50505050509080600201805461020b90610bd8565b80601f016020809104026020016040519081016040528092919081815260200182805461023790610bd8565b80156102845780601f1061025957610100808354040283529160200191610284565b820191906000526020600020905b81548152906001019060200180831161026757829003601f168201915b505050600384015460048501805494956001600160a01b039092169491935091506102ae90610bd8565b80601f01602080910402602001604051908101604052809291908181526020018280546102da90610bd8565b80156103275780601f106102fc57610100808354040283529160200191610327565b820191906000526020600020905b81548152906001019060200180831161030a57829003601f168201915b5050505050905085565b6000546040516324b6deb960e11b81526001600160a01b039091169063496dbd72906103639033906004908101610c0c565b602060405180830381865afa158015610380573d6000803e3d6000fd5b505050506040513d601f19601f820116820180604052508101906103a49190610c47565b6103c95760405162461bcd60e51b81526004016103c090610c70565b60405180910390fd5b600380549060006103d983610cc9565b90915550506040805160a08101825260035480825260208083018781528385018790526001600160a01b038616606085015284518086018652600781526670656e64696e6760c81b81840152608085015260009283526004909152929020815181559151909190600182019061044f9082610d31565b50604082015160028201906104649082610d31565b5060608201516003820180546001600160a01b0319166001600160a01b039092169190911790556080820151600482019061049f9082610d31565b509050507f06a66fc30d84ec50ae4e00e70d926c6c84e7e3c31613e32edf0385c5165e855f60035484836040516104d893929190610df1565b60405180910390a1505050565b6060600060035467ffffffffffffffff811115610504576105046109aa565b60405190808252806020026020018201604052801561057057816020015b61055d6040518060a0016040528060008152602001606081526020016060815260200160006001600160a01b03168152602001606081525090565b8152602001906001900390816105225790505b50905060015b60035481116107b057600460008281526020019081526020016000206040518060a0016040529081600082015481526020016001820180546105b790610bd8565b80601f01602080910402602001604051908101604052809291908181526020018280546105e390610bd8565b80156106305780601f1061060557610100808354040283529160200191610630565b820191906000526020600020905b81548152906001019060200180831161061357829003601f168201915b5050505050815260200160028201805461064990610bd8565b80601f016020809104026020016040519081016040528092919081815260200182805461067590610bd8565b80156106c25780601f10610697576101008083540402835291602001916106c2565b820191906000526020600020905b8154815290600101906020018083116106a557829003601f168201915b505050918352505060038201546001600160a01b031660208201526004820180546040909201916106f290610bd8565b80601f016020809104026020016040519081016040528092919081815260200182805461071e90610bd8565b801561076b5780601f106107405761010080835404028352916020019161076b565b820191906000526020600020905b81548152906001019060200180831161074e57829003601f168201915b505050505081525050826001836107829190610e22565b8151811061079257610792610e3b565b602002602001018190525080806107a890610cc9565b915050610576565b50919050565b6000546040516324b6deb960e11b81526001600160a01b039091169063496dbd72906107e89033906004908101610c0c565b602060405180830381865afa158015610805573d6000803e3d6000fd5b505050506040513d601f19601f820116820180604052508101906108299190610c47565b6108455760405162461bcd60e51b81526004016103c090610c70565b6003548211156108975760405162461bcd60e51b815260206004820152601860248201527f496e76616c69642063657274696669636174696f6e204944000000000000000060448201526064016103c0565b6000828152600460208190526040909120016108b38282610d31565b507f880e109adeecbf0f31138dec4215a42c3e6a8551f801b13ba3aac22270a52d2082826040516108e5929190610e51565b60405180910390a15050565b60006020828403121561090357600080fd5b5035919050565b6000815180845260005b8181101561093057602081850181015186830182015201610914565b506000602082860101526020601f19601f83011685010191505092915050565b85815260a06020820152600061096960a083018761090a565b828103604084015261097b818761090a565b6001600160a01b03861660608501528381036080850152905061099e818561090a565b98975050505050505050565b634e487b7160e01b600052604160045260246000fd5b600082601f8301126109d157600080fd5b813567ffffffffffffffff808211156109ec576109ec6109aa565b604051601f8301601f19908116603f01168101908282118183101715610a1457610a146109aa565b81604052838152866020858801011115610a2d57600080fd5b836020870160208301376000602085830101528094505050505092915050565b600080600060608486031215610a6257600080fd5b833567ffffffffffffffff80821115610a7a57600080fd5b610a86878388016109c0565b94506020860135915080821115610a9c57600080fd5b50610aa9868287016109c0565b92505060408401356001600160a01b0381168114610ac657600080fd5b809150509250925092565b60006020808301818452808551808352604092508286019150828160051b87010184880160005b83811015610b8357603f19898403018552815160a08151855288820151818a870152610b268287018261090a565b9150508782015185820389870152610b3e828261090a565b6060848101516001600160a01b031690880152608093840151878203948801949094529150610b6f9050818361090a565b968901969450505090860190600101610af8565b509098975050505050505050565b60008060408385031215610ba457600080fd5b82359150602083013567ffffffffffffffff811115610bc257600080fd5b610bce858286016109c0565b9150509250929050565b600181811c90821680610bec57607f821691505b6020821081036107b057634e487b7160e01b600052602260045260246000fd5b6001600160a01b03831681526040810160058310610c3a57634e487b7160e01b600052602160045260246000fd5b8260208301529392505050565b600060208284031215610c5957600080fd5b81518015158114610c6957600080fd5b9392505050565b60208082526023908201527f4e6f74206120766572696669656420526567756c61746f727920417574686f7260408201526269747960e81b606082015260800190565b634e487b7160e01b600052601160045260246000fd5b600060018201610cdb57610cdb610cb3565b5060010190565b601f821115610d2c57600081815260208120601f850160051c81016020861015610d095750805b601f850160051c820191505b81811015610d2857828155600101610d15565b5050505b505050565b815167ffffffffffffffff811115610d4b57610d4b6109aa565b610d5f81610d598454610bd8565b84610ce2565b602080601f831160018114610d945760008415610d7c5750858301515b600019600386901b1c1916600185901b178555610d28565b600085815260208120601f198616915b82811015610dc357888601518255948401946001909101908401610da4565b5085821015610de15787850151600019600388901b60f8161c191681555b5050505050600190811b01905550565b838152606060208201526000610e0a606083018561090a565b905060018060a01b0383166040830152949350505050565b81810381811115610e3557610e35610cb3565b92915050565b634e487b7160e01b600052603260045260246000fd5b828152604060208201526000610e6a604083018461090a565b94935050505056fea2646970667358221220bfd73d5711a944fff599409bbbfdf05bfa5415a1150b980ab2b77269fb0c5efa64736f6c63430008130033",
  "immutableReferences": {},
  "source": "// SPDX-License-Identifier: MIT\r\npragma solidity ^0.8.0;\r\n\r\nimport \"./Admin.sol\";\r\nimport \"./Transaction.sol\";\r\nimport \"./Fine.sol\";\r\n\r\ncontract RegulatoryAuthority {\r\n    Admin public adminContract;\r\n    Fine public fineContract;\r\n    Transaction public transactionContract;\r\n\r\n    struct Certification {\r\n        uint certId;\r\n        string partId;\r\n        string certDetails;\r\n        address issuedTo;\r\n        string status; // \"pending\", \"approved\", \"revoked\"\r\n    }\r\n\r\n    uint public certCount;\r\n    mapping(uint => Certification) public certifications;\r\n\r\n    event CertificationIssued(uint certId, string partId, address issuedTo);\r\n    event CertificationStatusUpdated(uint certId, string newStatus);\r\n\r\n    modifier onlyVerifiedRegulator() {\r\n        require(\r\n            adminContract.isVerified(msg.sender, Admin.Role.RegulatoryAuthority),\r\n            \"Not a verified Regulatory Authority\"\r\n        );\r\n        _;\r\n    }\r\n\r\n    constructor(address _adminContract, address _transaction, address _fine) {\r\n        adminContract = Admin(_adminContract);\r\n        transactionContract = Transaction(_transaction);\r\n        fineContract = Fine(_fine);\r\n    }\r\n\r\n    function issueCertification(\r\n        string memory partId,\r\n        string memory certDetails,\r\n        address issuedTo\r\n    ) external onlyVerifiedRegulator {\r\n        certCount++;\r\n        certifications[certCount] = Certification({\r\n            certId: certCount,\r\n            partId: partId,\r\n            certDetails: certDetails,\r\n            issuedTo: issuedTo,\r\n            status: \"pending\"\r\n        });\r\n\r\n        emit CertificationIssued(certCount, partId, issuedTo);\r\n    }\r\n\r\n    function updateCertificationStatus(\r\n        uint certId,\r\n        string memory newStatus\r\n    ) external onlyVerifiedRegulator {\r\n        require(certId <= certCount, \"Invalid certification ID\");\r\n        certifications[certId].status = newStatus;\r\n        emit CertificationStatusUpdated(certId, newStatus);\r\n    }\r\n\r\n    function getAllCertifications() external view returns (Certification[] memory) {\r\n        Certification[] memory result = new Certification[](certCount);\r\n        for (uint i = 1; i <= certCount; i++) {\r\n            result[i - 1] = certifications[i];\r\n        }\r\n        return result;\r\n    }\r\n}\r\n",
  "sourcePath": "D:\\Amrita\\SEM2\\BCT\\Supply-chain-main\\contracts\\RegulatoryAuthority.sol",
  "compiler": {
    "name": "solc",
    "version": "0.8.19+commit.7dd6d404.Emscripten.clang"
  },
  "schemaVersion": "3.4.16",
  "updatedAt": "2025-05-21T03:59:27.063Z",
  "networkType": "ethereum",
  "devdoc": {
    "kind": "dev",
    "methods": {},
    "version": 1
  },
  "userdoc": {
    "kind": "user",
    "methods": {},
    "version": 1
  }
}