{
  "contractName": "RegulatoryAuthority",
  "abi": [
    {
      "inputs": [
        {
          "internalType": "address",
          "name": "_admin",
          "type": "address"
        }
      ],
      "stateMutability": "nonpayable",
      "type": "constructor"
    },
    {
      "anonymous": false,
      "inputs": [
        {
          "indexed": false,
          "internalType": "string",
          "name": "entityId",
          "type": "string"
        },
        {
          "indexed": false,
          "internalType": "string",
          "name": "regulation",
          "type": "string"
        },
        {
          "indexed": false,
          "internalType": "bool",
          "name": "compliant",
          "type": "bool"
        }
      ],
      "name": "ComplianceRecorded",
      "type": "event"
    },
    {
      "anonymous": false,
      "inputs": [
        {
          "indexed": true,
          "internalType": "address",
          "name": "authority",
          "type": "address"
        }
      ],
      "name": "RegulatoryAuthorityRegistered",
      "type": "event"
    },
    {
      "inputs": [],
      "name": "admin",
      "outputs": [
        {
          "internalType": "contract Admin",
          "name": "",
          "type": "address"
        }
      ],
      "stateMutability": "view",
      "type": "function",
      "constant": true
    },
    {
      "inputs": [
        {
          "internalType": "address",
          "name": "",
          "type": "address"
        }
      ],
      "name": "isRegulatoryAuthority",
      "outputs": [
        {
          "internalType": "bool",
          "name": "",
          "type": "bool"
        }
      ],
      "stateMutability": "view",
      "type": "function",
      "constant": true
    },
    {
      "inputs": [
        {
          "internalType": "address",
          "name": "_authority",
          "type": "address"
        }
      ],
      "name": "registerRegulatoryAuthority",
      "outputs": [],
      "stateMutability": "nonpayable",
      "type": "function"
    },
    {
      "inputs": [
        {
          "internalType": "string",
          "name": "_entityId",
          "type": "string"
        },
        {
          "internalType": "string",
          "name": "_regulation",
          "type": "string"
        },
        {
          "internalType": "bool",
          "name": "_compliant",
          "type": "bool"
        }
      ],
      "name": "recordCompliance",
      "outputs": [],
      "stateMutability": "nonpayable",
      "type": "function"
    },
    {
      "inputs": [],
      "name": "getComplianceRecords",
      "outputs": [
        {
          "components": [
            {
              "internalType": "string",
              "name": "entityId",
              "type": "string"
            },
            {
              "internalType": "string",
              "name": "regulation",
              "type": "string"
            },
            {
              "internalType": "bool",
              "name": "compliant",
              "type": "bool"
            }
          ],
          "internalType": "struct Utils.Compliance[]",
          "name": "",
          "type": "tuple[]"
        }
      ],
      "stateMutability": "view",
      "type": "function",
      "constant": true
    },
    {
      "inputs": [],
      "name": "getMaterials",
      "outputs": [
        {
          "components": [
            {
              "internalType": "string",
              "name": "materialId",
              "type": "string"
            },
            {
              "internalType": "string",
              "name": "name",
              "type": "string"
            },
            {
              "internalType": "uint256",
              "name": "quantity",
              "type": "uint256"
            },
            {
              "internalType": "address",
              "name": "supplier",
              "type": "address"
            },
            {
              "internalType": "address",
              "name": "manufacturer",
              "type": "address"
            },
            {
              "internalType": "string",
              "name": "materialDetails",
              "type": "string"
            },
            {
              "internalType": "string",
              "name": "serialNumber",
              "type": "string"
            },
            {
              "internalType": "string",
              "name": "batchNumber",
              "type": "string"
            },
            {
              "internalType": "uint256",
              "name": "pricePerKg",
              "type": "uint256"
            }
          ],
          "internalType": "struct Utils.Material[]",
          "name": "",
          "type": "tuple[]"
        }
      ],
      "stateMutability": "view",
      "type": "function",
      "constant": true
    },
    {
      "inputs": [],
      "name": "getParts",
      "outputs": [
        {
          "components": [
            {
              "internalType": "uint256",
              "name": "partId",
              "type": "uint256"
            },
            {
              "internalType": "string",
              "name": "name",
              "type": "string"
            },
            {
              "internalType": "string",
              "name": "description",
              "type": "string"
            },
            {
              "internalType": "address",
              "name": "manufacturer",
              "type": "address"
            },
            {
              "internalType": "enum Utils.PartStatus",
              "name": "status",
              "type": "uint8"
            }
          ],
          "internalType": "struct Utils.Part[]",
          "name": "",
          "type": "tuple[]"
        }
      ],
      "stateMutability": "view",
      "type": "function",
      "constant": true
    }
  ],
  "bytecode": "0x608060405234801561001057600080fd5b5060405161105638038061105683398101604081905261002f916100ae565b6001600160a01b0381166100895760405162461bcd60e51b815260206004820152601c60248201527f41646d696e20616464726573732063616e6e6f74206265207a65726f00000000604482015260640160405180910390fd5b600080546001600160a01b0319166001600160a01b03929092169190911790556100de565b6000602082840312156100c057600080fd5b81516001600160a01b03811681146100d757600080fd5b9392505050565b610f69806100ed6000396000f3fe608060405234801561001057600080fd5b506004361061007d5760003560e01c806380dfedcd1161005b57806380dfedcd146100e4578063d142c731146100f9578063f851a4401461010c578063ffcc2f471461013757600080fd5b806304f3e3b1146100825780630af448ae146100ba5780633261f66b146100cf575b600080fd5b6100a56100903660046105bf565b60016020526000908152604090205460ff1681565b60405190151581526020015b60405180910390f35b6100cd6100c83660046105bf565b61014c565b005b6100d7610321565b6040516100b19190610633565b6100ec610397565b6040516100b19190610700565b6100cd610107366004610961565b610408565b60005461011f906001600160a01b031681565b6040516001600160a01b0390911681526020016100b1565b61013f610533565b6040516100b191906109d9565b600054604051630935e01b60e21b81523360048201526001600160a01b03909116906324d7806c90602401602060405180830381865afa158015610194573d6000803e3d6000fd5b505050506040513d601f19601f820116820180604052508101906101b89190610a5e565b6102135760405162461bcd60e51b815260206004820152602160248201527f4f6e6c792061646d696e2063616e2063616c6c20746869732066756e6374696f6044820152603760f91b60648201526084015b60405180910390fd5b6001600160a01b0381166102695760405162461bcd60e51b815260206004820181905260248201527f417574686f7269747920616464726573732063616e6e6f74206265207a65726f604482015260640161020a565b6001600160a01b03811660009081526001602052604090205460ff16156102d25760405162461bcd60e51b815260206004820152601c60248201527f417574686f7269747920616c7265616479207265676973746572656400000000604482015260640161020a565b6001600160a01b0381166000818152600160208190526040808320805460ff1916909217909155517f0cde9f96e417e295e7b85e83e825bcc6e7cab79886200d0a96e4b030260393329190a250565b6000805460408051633261f66b60e01b815290516060936001600160a01b0390931692633261f66b92600480820193918290030181865afa15801561036a573d6000803e3d6000fd5b505050506040513d6000823e601f3d908101601f191682016040526103929190810190610afc565b905090565b60008054604080516380dfedcd60e01b815290516060936001600160a01b03909316926380dfedcd92600480820193918290030181865afa1580156103e0573d6000803e3d6000fd5b505050506040513d6000823e601f3d908101601f191682016040526103929190810190610c41565b3360009081526001602052604090205460ff1661048d5760405162461bcd60e51b815260206004820152603d60248201527f4f6e6c79207265676973746572656420726567756c61746f727920617574686f60448201527f7269746965732063616e2063616c6c20746869732066756e6374696f6e000000606482015260840161020a565b60005460405163d142c73160e01b81526001600160a01b039091169063d142c731906104c190869086908690600401610de7565b600060405180830381600087803b1580156104db57600080fd5b505af11580156104ef573d6000803e3d6000fd5b505050507ff0d75ec7339316ad6b269911e996e6fc90388e4b25cb5a736035bc6f5d32625d83838360405161052693929190610de7565b60405180910390a1505050565b600080546040805160016233d0b960e01b0319815290516060936001600160a01b039093169263ffcc2f4792600480820193918290030181865afa15801561057f573d6000803e3d6000fd5b505050506040513d6000823e601f3d908101601f191682016040526103929190810190610e1f565b6001600160a01b03811681146105bc57600080fd5b50565b6000602082840312156105d157600080fd5b81356105dc816105a7565b9392505050565b60005b838110156105fe5781810151838201526020016105e6565b50506000910152565b6000815180845261061f8160208601602086016105e3565b601f01601f19169290920160200192915050565b60006020808301818452808551808352604092508286019150828160051b8701018488016000805b848110156106f157603f198a8503018652825160a08151865289820151818b88015261068982880182610607565b915050888201518682038a8801526106a18282610607565b6060848101516001600160a01b031690890152608093840151939092509050600383106106dc57634e487b7160e01b85526021600452602485fd5b9590950152948701949187019160010161065b565b50919998505050505050505050565b60006020808301818452808551808352604092508286019150828160051b87010184880160005b8381101561081057603f198984030185528151610120815181865261074e82870182610607565b915050888201518582038a8701526107668282610607565b915050878201518886015260608083015161078b828801826001600160a01b03169052565b50506080828101516001600160a01b03169086015260a080830151868303828801526107b78382610607565b9250505060c080830151868303828801526107d28382610607565b9250505060e080830151868303828801526107ed8382610607565b610100948501519790940196909652505094870194925090860190600101610727565b509098975050505050505050565b634e487b7160e01b600052604160045260246000fd5b60405160a0810167ffffffffffffffff811182821017156108575761085761081e565b60405290565b604051610120810167ffffffffffffffff811182821017156108575761085761081e565b6040516060810167ffffffffffffffff811182821017156108575761085761081e565b604051601f8201601f1916810167ffffffffffffffff811182821017156108cd576108cd61081e565b604052919050565b600067ffffffffffffffff8211156108ef576108ef61081e565b50601f01601f191660200190565b600082601f83011261090e57600080fd5b813561092161091c826108d5565b6108a4565b81815284602083860101111561093657600080fd5b816020850160208301376000918101602001919091529392505050565b80151581146105bc57600080fd5b60008060006060848603121561097657600080fd5b833567ffffffffffffffff8082111561098e57600080fd5b61099a878388016108fd565b945060208601359150808211156109b057600080fd5b506109bd868287016108fd565b92505060408401356109ce81610953565b809150509250925092565b60006020808301818452808551808352604092508286019150828160051b87010184880160005b8381101561081057603f19898403018552815160608151818652610a2682870182610607565b915050888201518582038a870152610a3e8282610607565b928901511515958901959095525094870194925090860190600101610a00565b600060208284031215610a7057600080fd5b81516105dc81610953565b600067ffffffffffffffff821115610a9557610a9561081e565b5060051b60200190565b600082601f830112610ab057600080fd5b8151610abe61091c826108d5565b818152846020838601011115610ad357600080fd5b610ae48260208301602087016105e3565b949350505050565b8051610af7816105a7565b919050565b60006020808385031215610b0f57600080fd5b825167ffffffffffffffff80821115610b2757600080fd5b818501915085601f830112610b3b57600080fd5b8151610b4961091c82610a7b565b81815260059190911b83018401908481019088831115610b6857600080fd5b8585015b83811015610c3457805185811115610b8357600080fd5b860160a0818c03601f19011215610b9a5760008081fd5b610ba2610834565b88820151815260408083015188811115610bbc5760008081fd5b610bca8e8c83870101610a9f565b8b8401525060608084015189811115610be35760008081fd5b610bf18f8d83880101610a9f565b83850152506080915081840151610c07816105a7565b9083015260a092909201519160038310610c215760008081fd5b8101919091528352918601918601610b6c565b5098975050505050505050565b60006020808385031215610c5457600080fd5b825167ffffffffffffffff80821115610c6c57600080fd5b818501915085601f830112610c8057600080fd5b8151610c8e61091c82610a7b565b81815260059190911b83018401908481019088831115610cad57600080fd5b8585015b83811015610c3457805185811115610cc857600080fd5b8601610120818c03601f1901811315610ce057600080fd5b610ce861085d565b8983015188811115610cf957600080fd5b610d078e8c83870101610a9f565b825250604083015188811115610d1c57600080fd5b610d2a8e8c83870101610a9f565b8b8301525060608301516040820152610d4560808401610aec565b6060820152610d5660a08401610aec565b608082015260c083015188811115610d6d57600080fd5b610d7b8e8c83870101610a9f565b60a08301525060e083015188811115610d945760008081fd5b610da28e8c83870101610a9f565b60c0830152506101008084015189811115610dbd5760008081fd5b610dcb8f8d83880101610a9f565b60e0840152509190920151908201528352918601918601610cb1565b606081526000610dfa6060830186610607565b8281036020840152610e0c8186610607565b9150508215156040830152949350505050565b60006020808385031215610e3257600080fd5b825167ffffffffffffffff80821115610e4a57600080fd5b818501915085601f830112610e5e57600080fd5b8151610e6c61091c82610a7b565b81815260059190911b83018401908481019088831115610e8b57600080fd5b8585015b83811015610c3457805185811115610ea75760008081fd5b86016060818c03601f1901811315610ebf5760008081fd5b610ec7610881565b8983015188811115610ed95760008081fd5b610ee78e8c83870101610a9f565b82525060408084015189811115610efe5760008081fd5b610f0c8f8d83880101610a9f565b838d0152509282015192610f1f84610953565b810192909252508352918601918601610e8f56fea26469706673582212208323912e234deadc39acd62624cd6592f1642c0ca3d90c64ee28edf1bc77dadf64736f6c63430008130033",
  "immutableReferences": {},
  "source": "// SPDX-License-Identifier: MIT\npragma solidity ^0.8.19;\n\nimport \"./Admin.sol\";\nimport \"./Utils.sol\";\n\ncontract RegulatoryAuthority {\n    Admin public admin;\n    mapping(address => bool) public isRegulatoryAuthority;\n\n    event RegulatoryAuthorityRegistered(address indexed authority);\n    event ComplianceRecorded(string entityId, string regulation, bool compliant);\n\n    modifier onlyAdmin() {\n        require(admin.isAdmin(msg.sender), \"Only admin can call this function\");\n        _;\n    }\n\n    modifier onlyRegulatoryAuthority() {\n        require(isRegulatoryAuthority[msg.sender], \"Only registered regulatory authorities can call this function\");\n        _;\n    }\n\n    constructor(address _admin) {\n        require(_admin != address(0), \"Admin address cannot be zero\");\n        admin = Admin(_admin);\n    }\n\n    function registerRegulatoryAuthority(address _authority) external onlyAdmin {\n        require(_authority != address(0), \"Authority address cannot be zero\");\n        require(!isRegulatoryAuthority[_authority], \"Authority already registered\");\n        isRegulatoryAuthority[_authority] = true;\n        emit RegulatoryAuthorityRegistered(_authority);\n    }\n\n    function recordCompliance(string memory _entityId, string memory _regulation, bool _compliant) external onlyRegulatoryAuthority {\n        admin.recordCompliance(_entityId, _regulation, _compliant);\n        emit ComplianceRecorded(_entityId, _regulation, _compliant);\n    }\n\n    function getComplianceRecords() external view returns (Utils.Compliance[] memory) {\n        return admin.getComplianceRecords();\n    }\n\n    function getMaterials() external view returns (Utils.Material[] memory) {\n        return admin.getMaterials();\n    }\n\n    function getParts() external view returns (Utils.Part[] memory) {\n        return admin.getParts();\n    }\n}",
  "sourcePath": "D:\\Amrita\\SEM2\\BCT\\Supply-chain-main\\contracts\\RegulatoryAuthority.sol",
  "compiler": {
    "name": "solc",
    "version": "0.8.19+commit.7dd6d404.Emscripten.clang"
  },
  "schemaVersion": "3.4.16",
  "updatedAt": "2025-05-05T10:26:53.994Z",
  "networkType": "ethereum",
  "devdoc": {
    "kind": "dev",
    "methods": {},
    "version": 1
  },
  "userdoc": {
    "kind": "user",
    "methods": {},
    "version": 1
  }
}