{
  "contractName": "Supplier",
  "abi": [
    {
      "inputs": [
        {
          "internalType": "address",
          "name": "_admin",
          "type": "address"
        },
        {
          "internalType": "address",
          "name": "_transaction",
          "type": "address"
        }
      ],
      "stateMutability": "nonpayable",
      "type": "constructor"
    },
    {
      "anonymous": false,
      "inputs": [
        {
          "indexed": false,
          "internalType": "string",
          "name": "message",
          "type": "string"
        }
      ],
      "name": "Debug",
      "type": "event"
    },
    {
      "anonymous": false,
      "inputs": [
        {
          "indexed": true,
          "internalType": "uint256",
          "name": "id",
          "type": "uint256"
        },
        {
          "indexed": false,
          "internalType": "uint256",
          "name": "orderId",
          "type": "uint256"
        },
        {
          "indexed": false,
          "internalType": "address",
          "name": "destination",
          "type": "address"
        }
      ],
      "name": "DeliveryCreated",
      "type": "event"
    },
    {
      "anonymous": false,
      "inputs": [
        {
          "indexed": true,
          "internalType": "uint256",
          "name": "id",
          "type": "uint256"
        },
        {
          "indexed": false,
          "internalType": "string",
          "name": "name",
          "type": "string"
        }
      ],
      "name": "MaterialAdded",
      "type": "event"
    },
    {
      "anonymous": false,
      "inputs": [
        {
          "indexed": true,
          "internalType": "uint256",
          "name": "id",
          "type": "uint256"
        },
        {
          "indexed": false,
          "internalType": "string",
          "name": "materialName",
          "type": "string"
        },
        {
          "indexed": false,
          "internalType": "uint256",
          "name": "quantity",
          "type": "uint256"
        }
      ],
      "name": "OrderReceived",
      "type": "event"
    },
    {
      "inputs": [],
      "name": "admin",
      "outputs": [
        {
          "internalType": "contract Admin",
          "name": "",
          "type": "address"
        }
      ],
      "stateMutability": "view",
      "type": "function",
      "constant": true
    },
    {
      "inputs": [
        {
          "internalType": "uint256",
          "name": "",
          "type": "uint256"
        }
      ],
      "name": "deliveries",
      "outputs": [
        {
          "internalType": "uint256",
          "name": "id",
          "type": "uint256"
        },
        {
          "internalType": "uint256",
          "name": "orderId",
          "type": "uint256"
        },
        {
          "internalType": "string",
          "name": "materialName",
          "type": "string"
        },
        {
          "internalType": "uint256",
          "name": "quantity",
          "type": "uint256"
        },
        {
          "internalType": "address",
          "name": "destination",
          "type": "address"
        },
        {
          "internalType": "string",
          "name": "status",
          "type": "string"
        },
        {
          "internalType": "uint256",
          "name": "timestamp",
          "type": "uint256"
        }
      ],
      "stateMutability": "view",
      "type": "function",
      "constant": true
    },
    {
      "inputs": [],
      "name": "deliveryCounter",
      "outputs": [
        {
          "internalType": "uint256",
          "name": "",
          "type": "uint256"
        }
      ],
      "stateMutability": "view",
      "type": "function",
      "constant": true
    },
    {
      "inputs": [],
      "name": "materialCounter",
      "outputs": [
        {
          "internalType": "uint256",
          "name": "",
          "type": "uint256"
        }
      ],
      "stateMutability": "view",
      "type": "function",
      "constant": true
    },
    {
      "inputs": [
        {
          "internalType": "uint256",
          "name": "",
          "type": "uint256"
        }
      ],
      "name": "materials",
      "outputs": [
        {
          "internalType": "uint256",
          "name": "id",
          "type": "uint256"
        },
        {
          "internalType": "string",
          "name": "name",
          "type": "string"
        },
        {
          "internalType": "string",
          "name": "details",
          "type": "string"
        },
        {
          "internalType": "uint256",
          "name": "quantity",
          "type": "uint256"
        },
        {
          "internalType": "string",
          "name": "serialNumber",
          "type": "string"
        },
        {
          "internalType": "string",
          "name": "batchNumber",
          "type": "string"
        },
        {
          "internalType": "bool",
          "name": "certified",
          "type": "bool"
        },
        {
          "internalType": "string",
          "name": "certifiedAuthority",
          "type": "string"
        },
        {
          "internalType": "uint256",
          "name": "pricePerKg",
          "type": "uint256"
        },
        {
          "internalType": "address",
          "name": "supplier",
          "type": "address"
        }
      ],
      "stateMutability": "view",
      "type": "function",
      "constant": true
    },
    {
      "inputs": [],
      "name": "orderCounter",
      "outputs": [
        {
          "internalType": "uint256",
          "name": "",
          "type": "uint256"
        }
      ],
      "stateMutability": "view",
      "type": "function",
      "constant": true
    },
    {
      "inputs": [
        {
          "internalType": "uint256",
          "name": "",
          "type": "uint256"
        }
      ],
      "name": "orders",
      "outputs": [
        {
          "internalType": "uint256",
          "name": "id",
          "type": "uint256"
        },
        {
          "internalType": "string",
          "name": "materialName",
          "type": "string"
        },
        {
          "internalType": "uint256",
          "name": "quantity",
          "type": "uint256"
        },
        {
          "internalType": "address",
          "name": "manufacturer",
          "type": "address"
        },
        {
          "internalType": "address",
          "name": "supplier",
          "type": "address"
        },
        {
          "internalType": "uint256",
          "name": "totalPrice",
          "type": "uint256"
        },
        {
          "internalType": "string",
          "name": "status",
          "type": "string"
        }
      ],
      "stateMutability": "view",
      "type": "function",
      "constant": true
    },
    {
      "inputs": [],
      "name": "transactionContract",
      "outputs": [
        {
          "internalType": "contract Transaction",
          "name": "",
          "type": "address"
        }
      ],
      "stateMutability": "view",
      "type": "function",
      "constant": true
    },
    {
      "inputs": [
        {
          "internalType": "string",
          "name": "name",
          "type": "string"
        },
        {
          "internalType": "string",
          "name": "details",
          "type": "string"
        },
        {
          "internalType": "uint256",
          "name": "quantity",
          "type": "uint256"
        },
        {
          "internalType": "string",
          "name": "serialNumber",
          "type": "string"
        },
        {
          "internalType": "string",
          "name": "batchNumber",
          "type": "string"
        },
        {
          "internalType": "bool",
          "name": "certified",
          "type": "bool"
        },
        {
          "internalType": "string",
          "name": "certifiedAuthority",
          "type": "string"
        },
        {
          "internalType": "uint256",
          "name": "pricePerKg",
          "type": "uint256"
        }
      ],
      "name": "addMaterial",
      "outputs": [],
      "stateMutability": "payable",
      "type": "function",
      "payable": true
    },
    {
      "inputs": [
        {
          "internalType": "string",
          "name": "materialName",
          "type": "string"
        },
        {
          "internalType": "uint256",
          "name": "quantity",
          "type": "uint256"
        },
        {
          "internalType": "address",
          "name": "manufacturer",
          "type": "address"
        },
        {
          "internalType": "uint256",
          "name": "totalPrice",
          "type": "uint256"
        }
      ],
      "name": "receiveOrder",
      "outputs": [],
      "stateMutability": "nonpayable",
      "type": "function"
    },
    {
      "inputs": [
        {
          "internalType": "uint256",
          "name": "orderId",
          "type": "uint256"
        },
        {
          "internalType": "string",
          "name": "materialName",
          "type": "string"
        },
        {
          "internalType": "uint256",
          "name": "quantity",
          "type": "uint256"
        },
        {
          "internalType": "address",
          "name": "destination",
          "type": "address"
        }
      ],
      "name": "createDelivery",
      "outputs": [],
      "stateMutability": "nonpayable",
      "type": "function"
    },
    {
      "inputs": [],
      "name": "getAllMaterials",
      "outputs": [
        {
          "components": [
            {
              "internalType": "uint256",
              "name": "id",
              "type": "uint256"
            },
            {
              "internalType": "string",
              "name": "name",
              "type": "string"
            },
            {
              "internalType": "string",
              "name": "details",
              "type": "string"
            },
            {
              "internalType": "uint256",
              "name": "quantity",
              "type": "uint256"
            },
            {
              "internalType": "string",
              "name": "serialNumber",
              "type": "string"
            },
            {
              "internalType": "string",
              "name": "batchNumber",
              "type": "string"
            },
            {
              "internalType": "bool",
              "name": "certified",
              "type": "bool"
            },
            {
              "internalType": "string",
              "name": "certifiedAuthority",
              "type": "string"
            },
            {
              "internalType": "uint256",
              "name": "pricePerKg",
              "type": "uint256"
            },
            {
              "internalType": "address",
              "name": "supplier",
              "type": "address"
            }
          ],
          "internalType": "struct Supplier.Material[]",
          "name": "",
          "type": "tuple[]"
        }
      ],
      "stateMutability": "view",
      "type": "function",
      "constant": true
    },
    {
      "inputs": [],
      "name": "getAllDeliveries",
      "outputs": [
        {
          "components": [
            {
              "internalType": "uint256",
              "name": "id",
              "type": "uint256"
            },
            {
              "internalType": "uint256",
              "name": "orderId",
              "type": "uint256"
            },
            {
              "internalType": "string",
              "name": "materialName",
              "type": "string"
            },
            {
              "internalType": "uint256",
              "name": "quantity",
              "type": "uint256"
            },
            {
              "internalType": "address",
              "name": "destination",
              "type": "address"
            },
            {
              "internalType": "string",
              "name": "status",
              "type": "string"
            },
            {
              "internalType": "uint256",
              "name": "timestamp",
              "type": "uint256"
            }
          ],
          "internalType": "struct Supplier.Delivery[]",
          "name": "",
          "type": "tuple[]"
        }
      ],
      "stateMutability": "view",
      "type": "function",
      "constant": true
    }
  ],
  "bytecode": "0x60806040523480156200001157600080fd5b50604051620021e3380380620021e3833981016040819052620000349162000083565b600080546001600160a01b039384166001600160a01b03199182161790915560018054929093169116179055620000bb565b80516001600160a01b03811681146200007e57600080fd5b919050565b600080604083850312156200009757600080fd5b620000a28362000066565b9150620000b26020840162000066565b90509250929050565b61211880620000cb6000396000f3fe6080604052600436106100c25760003560e01c80638d52c3b31161007f578063a9e4a32411610059578063a9e4a32414610220578063b789bf5214610253578063c1b0012b14610269578063f851a4401461028957600080fd5b80638d52c3b3146101ab5780638f00c315146101cb578063a85c38ef146101ed57600080fd5b806318e328ae146100c75780631f45275b146100f057806342a4a6cc14610128578063765a521b1461013d5780637a8e85261461015f57806383e32b3f14610195575b600080fd5b3480156100d357600080fd5b506100dd60045481565b6040519081526020015b60405180910390f35b3480156100fc57600080fd5b50600154610110906001600160a01b031681565b6040516001600160a01b0390911681526020016100e7565b61013b610136366004611865565b6102a9565b005b34801561014957600080fd5b506101526106b7565b6040516100e791906119a1565b34801561016b57600080fd5b5061017f61017a366004611ace565b610af5565b6040516100e79a99989796959493929190611ae7565b3480156101a157600080fd5b506100dd60025481565b3480156101b757600080fd5b5061013b6101c6366004611ba0565b610dfd565b3480156101d757600080fd5b506101e0611149565b6040516100e79190611c01565b3480156101f957600080fd5b5061020d610208366004611ace565b6113ae565b6040516100e79796959493929190611cb9565b34801561022c57600080fd5b5061024061023b366004611ace565b61150c565b6040516100e79796959493929190611d17565b34801561025f57600080fd5b506100dd60035481565b34801561027557600080fd5b5061013b610284366004611d73565b611665565b34801561029557600080fd5b50600054610110906001600160a01b031681565b6000805160206120c38339815191526040516102f6906020808252601d908201527f5374657020313a20436865636b696e6720766572696669636174696f6e000000604082015260600190565b60405180910390a1600080546040516324b6deb960e11b81526001600160a01b039091169063496dbd72906103319033908590600401611dd2565b602060405180830381865afa15801561034e573d6000803e3d6000fd5b505050506040513d601f19601f820116820180604052508101906103729190611e0d565b9050806103c65760405162461bcd60e51b815260206004820152601860248201527f537570706c696572206973206e6f74207665726966696564000000000000000060448201526064015b60405180910390fd5b6000805160206120c3833981519152604051610413906020808252601b908201527f5374657020323a2050617373656420766572696669636174696f6e0000000000604082015260600190565b60405180910390a166038d7ea4c680003410156104845760405162461bcd60e51b815260206004820152602960248201527f496e73756666696369656e74204554483a206174206c6561737420302e303031604482015268081c995c5d5a5c995960ba1b60648201526084016103bd565b6000805160206120c38339815191526040516104d19060208082526018908201527f5374657020333a205061737365642045544820636865636b0000000000000000604082015260600190565b60405180910390a1600280549060006104e983611e47565b9091555050604080516101408101825260025480825260208083018d81528385018d9052606084018c9052608084018b905260a084018a905288151560c085015260e084018890526101008401879052336101208501526000928352600590915292902081518155915190919060018201906105659082611ee3565b506040820151600282019061057a9082611ee3565b5060608201516003820155608082015160048201906105999082611ee3565b5060a082015160058201906105ae9082611ee3565b5060c082015160068201805460ff191691151591909117905560e082015160078201906105db9082611ee3565b50610100820151600882015561012090910151600990910180546001600160a01b0319166001600160a01b039092169190911790556002546040517ff5b4def5973d014960ead91323c90ae13e6dd9fc1b7eed2de3a4dccf2422ecbe90610643908c90611fa3565b60405180910390a26000805160206120c38339815191526040516106a49060208082526023908201527f5374657020343a204d6174657269616c206164646564207375636365737366756040820152626c6c7960e81b606082015260800190565b60405180910390a1505050505050505050565b6060600060025467ffffffffffffffff8111156106d6576106d66117a1565b60405190808252806020026020018201604052801561076857816020015b610755604051806101400160405280600081526020016060815260200160608152602001600081526020016060815260200160608152602001600015158152602001606081526020016000815260200160006001600160a01b031681525090565b8152602001906001900390816106f45790505b50905060015b6002548111610aef576005600082815260200190815260200160002060405180610140016040529081600082015481526020016001820180546107b090611e60565b80601f01602080910402602001604051908101604052809291908181526020018280546107dc90611e60565b80156108295780601f106107fe57610100808354040283529160200191610829565b820191906000526020600020905b81548152906001019060200180831161080c57829003601f168201915b5050505050815260200160028201805461084290611e60565b80601f016020809104026020016040519081016040528092919081815260200182805461086e90611e60565b80156108bb5780601f10610890576101008083540402835291602001916108bb565b820191906000526020600020905b81548152906001019060200180831161089e57829003601f168201915b50505050508152602001600382015481526020016004820180546108de90611e60565b80601f016020809104026020016040519081016040528092919081815260200182805461090a90611e60565b80156109575780601f1061092c57610100808354040283529160200191610957565b820191906000526020600020905b81548152906001019060200180831161093a57829003601f168201915b5050505050815260200160058201805461097090611e60565b80601f016020809104026020016040519081016040528092919081815260200182805461099c90611e60565b80156109e95780601f106109be576101008083540402835291602001916109e9565b820191906000526020600020905b8154815290600101906020018083116109cc57829003601f168201915b5050509183525050600682015460ff1615156020820152600782018054604090920191610a1590611e60565b80601f0160208091040260200160405190810160405280929190818152602001828054610a4190611e60565b8015610a8e5780601f10610a6357610100808354040283529160200191610a8e565b820191906000526020600020905b815481529060010190602001808311610a7157829003601f168201915b5050509183525050600882015460208201526009909101546001600160a01b031660409091015282610ac1600184611fb6565b81518110610ad157610ad1611fcf565b60200260200101819052508080610ae790611e47565b91505061076e565b50919050565b60056020526000908152604090208054600182018054919291610b1790611e60565b80601f0160208091040260200160405190810160405280929190818152602001828054610b4390611e60565b8015610b905780601f10610b6557610100808354040283529160200191610b90565b820191906000526020600020905b815481529060010190602001808311610b7357829003601f168201915b505050505090806002018054610ba590611e60565b80601f0160208091040260200160405190810160405280929190818152602001828054610bd190611e60565b8015610c1e5780601f10610bf357610100808354040283529160200191610c1e565b820191906000526020600020905b815481529060010190602001808311610c0157829003601f168201915b505050505090806003015490806004018054610c3990611e60565b80601f0160208091040260200160405190810160405280929190818152602001828054610c6590611e60565b8015610cb25780601f10610c8757610100808354040283529160200191610cb2565b820191906000526020600020905b815481529060010190602001808311610c9557829003601f168201915b505050505090806005018054610cc790611e60565b80601f0160208091040260200160405190810160405280929190818152602001828054610cf390611e60565b8015610d405780601f10610d1557610100808354040283529160200191610d40565b820191906000526020600020905b815481529060010190602001808311610d2357829003601f168201915b5050506006840154600785018054949560ff909216949193509150610d6490611e60565b80601f0160208091040260200160405190810160405280929190818152602001828054610d9090611e60565b8015610ddd5780601f10610db257610100808354040283529160200191610ddd565b820191906000526020600020905b815481529060010190602001808311610dc057829003601f168201915b5050505060088301546009909301549192916001600160a01b031690508a565b600080546040516324b6deb960e11b81526001600160a01b039091169163496dbd7291610e2e913391600401611dd2565b602060405180830381865afa158015610e4b573d6000803e3d6000fd5b505050506040513d601f19601f82011682018060405250810190610e6f9190611e0d565b610eb35760405162461bcd60e51b815260206004820152601560248201527414dd5c1c1b1a595c881b9bdd081d995c9a599a5959605a1b60448201526064016103bd565b60008481526006602081815260409283902092517fb4d829413f0d2c4d74c8ff63e02c9925119a56008208dd29db841c5f35ed3ad393610ef593019101611fe5565b6040516020818303038152906040528051906020012014610f4c5760405162461bcd60e51b81526020600482015260116024820152704f72646572206e6f742070656e64696e6760781b60448201526064016103bd565b60048054906000610f5c83611e47565b90915550506040805160e0810182526004548082526020808301888152838501888152606085018890526001600160a01b0387166080860152855180870187526007808252661cda1a5c1c195960ca1b8286015260a08701919091524260c08701526000948552909252939091208251815592516001840155519091906002820190610fe89082611ee3565b506060820151600382015560808201516004820180546001600160a01b0319166001600160a01b0390921691909117905560a0820151600582019061102d9082611ee3565b5060c08201518160060155905050604051806040016040528060088152602001671cdd5c1c1b1a595960c21b81525060066000868152602001908152602001600020600601908161107e9190611ee3565b506000848152600660205260409081902060050154600154915163ef4e7e1360e01b815290916001600160a01b03169063ef4e7e13906110ca903390869086908a908c9060040161205b565b600060405180830381600087803b1580156110e457600080fd5b505af11580156110f8573d6000803e3d6000fd5b5050600454604080518981526001600160a01b03871660208201529193507f874dce5cee3087b1ecc98fe48589050785d293c374f6b183e9d94c978950bb4992500160405180910390a25050505050565b6060600060045467ffffffffffffffff811115611168576111686117a1565b6040519080825280602002602001820160405280156111e257816020015b6111cf6040518060e001604052806000815260200160008152602001606081526020016000815260200160006001600160a01b0316815260200160608152602001600081525090565b8152602001906001900390816111865790505b50905060015b6004548111610aef57600760008281526020019081526020016000206040518060e0016040529081600082015481526020016001820154815260200160028201805461123390611e60565b80601f016020809104026020016040519081016040528092919081815260200182805461125f90611e60565b80156112ac5780601f10611281576101008083540402835291602001916112ac565b820191906000526020600020905b81548152906001019060200180831161128f57829003601f168201915b50505091835250506003820154602082015260048201546001600160a01b031660408201526005820180546060909201916112e690611e60565b80601f016020809104026020016040519081016040528092919081815260200182805461131290611e60565b801561135f5780601f106113345761010080835404028352916020019161135f565b820191906000526020600020905b81548152906001019060200180831161134257829003601f168201915b50505050508152602001600682015481525050826001836113809190611fb6565b8151811061139057611390611fcf565b602002602001018190525080806113a690611e47565b9150506111e8565b600660205260009081526040902080546001820180549192916113d090611e60565b80601f01602080910402602001604051908101604052809291908181526020018280546113fc90611e60565b80156114495780601f1061141e57610100808354040283529160200191611449565b820191906000526020600020905b81548152906001019060200180831161142c57829003601f168201915b5050506002840154600385015460048601546005870154600688018054979894976001600160a01b03948516975092909316945092919061148990611e60565b80601f01602080910402602001604051908101604052809291908181526020018280546114b590611e60565b80156115025780601f106114d757610100808354040283529160200191611502565b820191906000526020600020905b8154815290600101906020018083116114e557829003601f168201915b5050505050905087565b6007602052600090815260409020805460018201546002830180549293919261153490611e60565b80601f016020809104026020016040519081016040528092919081815260200182805461156090611e60565b80156115ad5780601f10611582576101008083540402835291602001916115ad565b820191906000526020600020905b81548152906001019060200180831161159057829003601f168201915b5050505060038301546004840154600585018054949592946001600160a01b039092169350906115dc90611e60565b80601f016020809104026020016040519081016040528092919081815260200182805461160890611e60565b80156116555780601f1061162a57610100808354040283529160200191611655565b820191906000526020600020905b81548152906001019060200180831161163857829003601f168201915b5050505050908060060154905087565b6003805490600061167583611e47565b90915550506040805160e08101825260035480825260208083018881528385018890526001600160a01b038716606085015233608085015260a0840186905284518086018652600781526670656e64696e6760c81b8184015260c08501526000928352600690915292902081518155915190919060018201906116f89082611ee3565b506040820151600282015560608201516003820180546001600160a01b039283166001600160a01b031991821617909155608084015160048401805491909316911617905560a0820151600582015560c0820151600682019061175b9082611ee3565b509050506003547fe892b80b01aff8720d2838e3e0320f92cfaa43ef330c96e5e5942d509bf9fe8885856040516117939291906120a0565b60405180910390a250505050565b634e487b7160e01b600052604160045260246000fd5b600082601f8301126117c857600080fd5b813567ffffffffffffffff808211156117e3576117e36117a1565b604051601f8301601f19908116603f0116810190828211818310171561180b5761180b6117a1565b8160405283815286602085880101111561182457600080fd5b836020870160208301376000602085830101528094505050505092915050565b801515811461185257600080fd5b50565b803561186081611844565b919050565b600080600080600080600080610100898b03121561188257600080fd5b883567ffffffffffffffff8082111561189a57600080fd5b6118a68c838d016117b7565b995060208b01359150808211156118bc57600080fd5b6118c88c838d016117b7565b985060408b0135975060608b01359150808211156118e557600080fd5b6118f18c838d016117b7565b965060808b013591508082111561190757600080fd5b6119138c838d016117b7565b955061192160a08c01611855565b945060c08b013591508082111561193757600080fd5b506119448b828c016117b7565b92505060e089013590509295985092959890939650565b6000815180845260005b8181101561198157602081850181015186830182015201611965565b506000602082860101526020601f19601f83011685010191505092915050565b60006020808301818452808551808352604092508286019150828160051b87010184880160005b83811015611ac057603f1989840301855281516101408151855288820151818a8701526119f78287018261195b565b9150508782015185820389870152611a0f828261195b565b915050606080830151818701525060808083015186830382880152611a34838261195b565b9250505060a08083015186830382880152611a4f838261195b565b9250505060c080830151611a668288018215159052565b505060e08083015186830382880152611a7f838261195b565b92505050610100808301518187015250610120808301519250611aac818701846001600160a01b03169052565b5095880195935050908601906001016119c8565b509098975050505050505050565b600060208284031215611ae057600080fd5b5035919050565b60006101408c8352806020840152611b018184018d61195b565b90508281036040840152611b15818c61195b565b90508960608401528281036080840152611b2f818a61195b565b905082810360a0840152611b43818961195b565b905086151560c084015282810360e0840152611b5f818761195b565b61010084019590955250506001600160a01b03919091166101209091015298975050505050505050565b80356001600160a01b038116811461186057600080fd5b60008060008060808587031215611bb657600080fd5b84359350602085013567ffffffffffffffff811115611bd457600080fd5b611be0878288016117b7565b93505060408501359150611bf660608601611b89565b905092959194509250565b60006020808301818452808551808352604092508286019150828160051b87010184880160005b83811015611ac057603f19898403018552815160e0815185528882015189860152878201518189870152611c5e8287018261195b565b606084810151908801526080808501516001600160a01b03169088015260a080850151888303828a01529193509150611c97838261195b565b60c0948501519790940196909652505094870194925090860190600101611c28565b87815260e060208201526000611cd260e083018961195b565b604083018890526001600160a01b0387811660608501528616608084015260a0830185905282810360c0840152611d09818561195b565b9a9950505050505050505050565b87815286602082015260e060408201526000611d3660e083018861195b565b606083018790526001600160a01b038616608084015282810360a0840152611d5e818661195b565b9150508260c083015298975050505050505050565b60008060008060808587031215611d8957600080fd5b843567ffffffffffffffff811115611da057600080fd5b611dac878288016117b7565b94505060208501359250611dc260408601611b89565b9396929550929360600135925050565b6001600160a01b03831681526040810160058310611e0057634e487b7160e01b600052602160045260246000fd5b8260208301529392505050565b600060208284031215611e1f57600080fd5b8151611e2a81611844565b9392505050565b634e487b7160e01b600052601160045260246000fd5b600060018201611e5957611e59611e31565b5060010190565b600181811c90821680611e7457607f821691505b602082108103610aef57634e487b7160e01b600052602260045260246000fd5b601f821115611ede57600081815260208120601f850160051c81016020861015611ebb5750805b601f850160051c820191505b81811015611eda57828155600101611ec7565b5050505b505050565b815167ffffffffffffffff811115611efd57611efd6117a1565b611f1181611f0b8454611e60565b84611e94565b602080601f831160018114611f465760008415611f2e5750858301515b600019600386901b1c1916600185901b178555611eda565b600085815260208120601f198616915b82811015611f7557888601518255948401946001909101908401611f56565b5085821015611f935787850151600019600388901b60f8161c191681555b5050505050600190811b01905550565b602081526000611e2a602083018461195b565b81810381811115611fc957611fc9611e31565b92915050565b634e487b7160e01b600052603260045260246000fd5b6000808354611ff381611e60565b6001828116801561200b57600181146120205761204f565b60ff198416875282151583028701945061204f565b8760005260208060002060005b858110156120465781548a82015290840190820161202d565b50505082870194505b50929695505050505050565b6001600160a01b038681168252851660208201526040810184905260a06060820181905260009061208e9083018561195b565b90508260808301529695505050505050565b6040815260006120b3604083018561195b565b9050826020830152939250505056fe7cdb51e9dbbc205231228146c3246e7f914aa6d4a33170e43ecc8e3593481d1aa2646970667358221220a38bfca9f1ca82aceaa74d5e6ea9abe6c6b81fdec3e0f65cf507c559d4d3d99a64736f6c63430008130033",
  "immutableReferences": {},
  "source": "// SPDX-License-Identifier: MIT\r\npragma solidity ^0.8.0;\r\n\r\nimport \"./Admin.sol\";\r\nimport \"./Transaction.sol\";\r\n\r\ncontract Supplier {\r\n    Admin public admin;\r\n    Transaction public transactionContract;\r\n\r\n    constructor(address _admin, address _transaction) {\r\n        admin = Admin(_admin);\r\n        transactionContract = Transaction(_transaction);\r\n    }\r\n\r\n    struct Material {\r\n        uint256 id;\r\n        string name;\r\n        string details;\r\n        uint256 quantity;\r\n        string serialNumber;\r\n        string batchNumber;\r\n        bool certified;\r\n        string certifiedAuthority;\r\n        uint256 pricePerKg;\r\n        address supplier;\r\n    }\r\n\r\n    struct Order {\r\n        uint256 id;\r\n        string materialName;\r\n        uint256 quantity;\r\n        address manufacturer;\r\n        address supplier;\r\n        uint256 totalPrice;\r\n        string status; // pending, supplied\r\n    }\r\n\r\n    struct Delivery {\r\n        uint256 id;\r\n        uint256 orderId;\r\n        string materialName;\r\n        uint256 quantity;\r\n        address destination;\r\n        string status;\r\n        uint256 timestamp;\r\n    }\r\n\r\n    uint256 public materialCounter;\r\n    uint256 public orderCounter;\r\n    uint256 public deliveryCounter;\r\n\r\n    mapping(uint256 => Material) public materials;\r\n    mapping(uint256 => Order) public orders;\r\n    mapping(uint256 => Delivery) public deliveries;\r\n\r\n    event MaterialAdded(uint256 indexed id, string name);\r\n    event OrderReceived(uint256 indexed id, string materialName, uint256 quantity);\r\n    event DeliveryCreated(uint256 indexed id, uint256 orderId, address destination);\r\n\r\n    modifier onlyVerifiedSupplier() {\r\n        require(admin.isVerified(msg.sender, Admin.Role.Supplier), \"Supplier not verified\");\r\n        _;\r\n    }\r\n\r\n    function addMaterial(\r\n        string memory name,\r\n        string memory details,\r\n        uint256 quantity,\r\n        string memory serialNumber,\r\n        string memory batchNumber,\r\n        bool certified,\r\n        string memory certifiedAuthority,\r\n        uint256 pricePerKg\r\n    ) external payable {\r\n        emit Debug(\"Step 1: Checking verification\");\r\n        bool verified = admin.isVerified(msg.sender, Admin.Role.Supplier);\r\n        require(verified, \"Supplier is not verified\");\r\n\r\n        emit Debug(\"Step 2: Passed verification\");\r\n        require(msg.value >= 1e15, \"Insufficient ETH: at least 0.001 required\");\r\n\r\n        emit Debug(\"Step 3: Passed ETH check\");\r\n        materialCounter++;\r\n        materials[materialCounter] = Material(\r\n            materialCounter,\r\n            name,\r\n            details,\r\n            quantity,\r\n            serialNumber,\r\n            batchNumber,\r\n            certified,\r\n            certifiedAuthority,\r\n            pricePerKg,\r\n            msg.sender\r\n        );\r\n\r\n        emit MaterialAdded(materialCounter, name);\r\n        emit Debug(\"Step 4: Material added successfully\");\r\n    }\r\n\r\n    // Add this to top-level contract\r\n    event Debug(string message);\r\n\r\n\r\n\r\n    function receiveOrder(\r\n        string memory materialName,\r\n        uint256 quantity,\r\n        address manufacturer,\r\n        uint256 totalPrice\r\n    ) external {\r\n        orderCounter++;\r\n        orders[orderCounter] = Order(\r\n            orderCounter,\r\n            materialName,\r\n            quantity,\r\n            manufacturer,\r\n            msg.sender,\r\n            totalPrice,\r\n            \"pending\"\r\n        );\r\n        emit OrderReceived(orderCounter, materialName, quantity);\r\n    }\r\n\r\n    function createDelivery(\r\n        uint256 orderId,\r\n        string memory materialName,\r\n        uint256 quantity,\r\n        address destination\r\n    ) external onlyVerifiedSupplier {\r\n        require(\r\n            keccak256(abi.encodePacked(orders[orderId].status)) == keccak256(\"pending\"),\r\n            \"Order not pending\"\r\n        );\r\n\r\n        deliveryCounter++;\r\n        deliveries[deliveryCounter] = Delivery(\r\n            deliveryCounter,\r\n            orderId,\r\n            materialName,\r\n            quantity,\r\n            destination,\r\n            \"shipped\",\r\n            block.timestamp\r\n        );\r\n\r\n        orders[orderId].status = \"supplied\";\r\n\r\n        uint256 totalAmount = orders[orderId].totalPrice;\r\n        transactionContract.recordTransaction(\r\n            msg.sender,\r\n            destination,\r\n            totalAmount,\r\n            materialName,\r\n            orderId\r\n        );\r\n\r\n        emit DeliveryCreated(deliveryCounter, orderId, destination);\r\n    }\r\n\r\n    function getAllMaterials() external view returns (Material[] memory) {\r\n        Material[] memory result = new Material[](materialCounter);\r\n        for (uint256 i = 1; i <= materialCounter; i++) {\r\n            result[i - 1] = materials[i];\r\n        }\r\n        return result;\r\n    }\r\n\r\n    function getAllDeliveries() external view returns (Delivery[] memory) {\r\n        Delivery[] memory result = new Delivery[](deliveryCounter);\r\n        for (uint256 i = 1; i <= deliveryCounter; i++) {\r\n            result[i - 1] = deliveries[i];\r\n        }\r\n        return result;\r\n    }\r\n}\r\n",
  "sourcePath": "D:\\Amrita\\SEM2\\BCT\\loki-main\\contracts\\Supplier.sol",
  "compiler": {
    "name": "solc",
    "version": "0.8.19+commit.7dd6d404.Emscripten.clang"
  },
  "schemaVersion": "3.4.16",
  "updatedAt": "2025-05-20T01:33:49.553Z",
  "networkType": "ethereum",
  "devdoc": {
    "kind": "dev",
    "methods": {},
    "version": 1
  },
  "userdoc": {
    "kind": "user",
    "methods": {},
    "version": 1
  }
}