{
  "contractName": "Transaction",
  "abi": [
    {
      "anonymous": false,
      "inputs": [
        {
          "indexed": false,
          "internalType": "uint256",
          "name": "txId",
          "type": "uint256"
        },
        {
          "indexed": true,
          "internalType": "address",
          "name": "sender",
          "type": "address"
        },
        {
          "indexed": true,
          "internalType": "address",
          "name": "receiver",
          "type": "address"
        },
        {
          "indexed": false,
          "internalType": "string",
          "name": "materialName",
          "type": "string"
        },
        {
          "indexed": false,
          "internalType": "uint256",
          "name": "amount",
          "type": "uint256"
        },
        {
          "indexed": false,
          "internalType": "uint256",
          "name": "orderId",
          "type": "uint256"
        },
        {
          "indexed": false,
          "internalType": "uint256",
          "name": "timestamp",
          "type": "uint256"
        }
      ],
      "name": "TransactionRecorded",
      "type": "event"
    },
    {
      "inputs": [
        {
          "internalType": "uint256",
          "name": "",
          "type": "uint256"
        }
      ],
      "name": "transactions",
      "outputs": [
        {
          "internalType": "uint256",
          "name": "txId",
          "type": "uint256"
        },
        {
          "internalType": "address",
          "name": "sender",
          "type": "address"
        },
        {
          "internalType": "address",
          "name": "receiver",
          "type": "address"
        },
        {
          "internalType": "string",
          "name": "materialName",
          "type": "string"
        },
        {
          "internalType": "uint256",
          "name": "amount",
          "type": "uint256"
        },
        {
          "internalType": "uint256",
          "name": "orderId",
          "type": "uint256"
        },
        {
          "internalType": "uint256",
          "name": "timestamp",
          "type": "uint256"
        }
      ],
      "stateMutability": "view",
      "type": "function",
      "constant": true
    },
    {
      "inputs": [],
      "name": "txCount",
      "outputs": [
        {
          "internalType": "uint256",
          "name": "",
          "type": "uint256"
        }
      ],
      "stateMutability": "view",
      "type": "function",
      "constant": true
    },
    {
      "inputs": [
        {
          "internalType": "address",
          "name": "sender",
          "type": "address"
        },
        {
          "internalType": "address",
          "name": "receiver",
          "type": "address"
        },
        {
          "internalType": "uint256",
          "name": "amount",
          "type": "uint256"
        },
        {
          "internalType": "string",
          "name": "materialName",
          "type": "string"
        },
        {
          "internalType": "uint256",
          "name": "orderId",
          "type": "uint256"
        }
      ],
      "name": "recordTransaction",
      "outputs": [],
      "stateMutability": "nonpayable",
      "type": "function"
    },
    {
      "inputs": [],
      "name": "getAllTransactions",
      "outputs": [
        {
          "components": [
            {
              "internalType": "uint256",
              "name": "txId",
              "type": "uint256"
            },
            {
              "internalType": "address",
              "name": "sender",
              "type": "address"
            },
            {
              "internalType": "address",
              "name": "receiver",
              "type": "address"
            },
            {
              "internalType": "string",
              "name": "materialName",
              "type": "string"
            },
            {
              "internalType": "uint256",
              "name": "amount",
              "type": "uint256"
            },
            {
              "internalType": "uint256",
              "name": "orderId",
              "type": "uint256"
            },
            {
              "internalType": "uint256",
              "name": "timestamp",
              "type": "uint256"
            }
          ],
          "internalType": "struct Transaction.TxLog[]",
          "name": "",
          "type": "tuple[]"
        }
      ],
      "stateMutability": "view",
      "type": "function",
      "constant": true
    }
  ],
  "bytecode": "0x608060405234801561001057600080fd5b50610935806100206000396000f3fe608060405234801561001057600080fd5b506004361061004c5760003560e01c806327506f53146100515780633c5406871461006f5780639ace38c214610086578063ef4e7e13146100ac575b600080fd5b6100596100c1565b60405161006691906104ef565b60405180910390f35b61007860005481565b604051908152602001610066565b6100996100943660046105a8565b6102ad565b60405161006697969594939291906105c1565b6100bf6100ba366004610644565b61037e565b005b60606000805467ffffffffffffffff8111156100df576100df61062e565b60405190808252806020026020018201604052801561016257816020015b61014f6040518060e001604052806000815260200160006001600160a01b0316815260200160006001600160a01b03168152602001606081526020016000815260200160008152602001600081525090565b8152602001906001900390816100fd5790505b50905060015b60005481116102a757600081815260016020818152604092839020835160e08101855281548152928101546001600160a01b03908116928401929092526002810154909116928201929092526003820180549192916060840191906101cc90610728565b80601f01602080910402602001604051908101604052809291908181526020018280546101f890610728565b80156102455780601f1061021a57610100808354040283529160200191610245565b820191906000526020600020905b81548152906001019060200180831161022857829003601f168201915b5050509183525050600482015460208201526005820154604082015260069091015460609091015282610279600184610772565b815181106102895761028961078b565b6020026020010181905250808061029f906107a1565b915050610168565b50919050565b600160208190526000918252604090912080549181015460028201546003830180546001600160a01b039384169492909316926102e990610728565b80601f016020809104026020016040519081016040528092919081815260200182805461031590610728565b80156103625780601f1061033757610100808354040283529160200191610362565b820191906000526020600020905b81548152906001019060200180831161034557829003601f168201915b5050505050908060040154908060050154908060060154905087565b60008054908061038d836107a1565b90915550506040805160e081018252600080548083526001600160a01b0389811660208086019182528a8316868801908152606087018a8152608088018c905260a088018a90524260c08901529486526001918290529690942085518155905193810180546001600160a01b0319908116958416959095179055945160028601805490941691161790915551909190600382019061042b9082610809565b506080820151816004015560a0820151816005015560c08201518160060155905050836001600160a01b0316856001600160a01b03167f6a9bef59dcfafb8f10e87019ed36cc8fe2075d4e3f72f8ea010e0608fbb1da446000548587864260405161049a9594939291906108c9565b60405180910390a35050505050565b6000815180845260005b818110156104cf576020818501810151868301820152016104b3565b506000602082860101526020601f19601f83011685010191505092915050565b60006020808301818452808551808352604092508286019150828160051b87010184880160005b8381101561059a57888303603f19018552815180518452878101516001600160a01b039081168986015287820151168785015260608082015160e08287018190529190610565838801826104a9565b6080858101519089015260a0808601519089015260c09485015194909701939093525050509386019390860190600101610516565b509098975050505050505050565b6000602082840312156105ba57600080fd5b5035919050565b8781526001600160a01b0387811660208301528616604082015260e0606082018190526000906105f3908301876104a9565b60808301959095525060a081019290925260c090910152949350505050565b80356001600160a01b038116811461062957600080fd5b919050565b634e487b7160e01b600052604160045260246000fd5b600080600080600060a0868803121561065c57600080fd5b61066586610612565b945061067360208701610612565b935060408601359250606086013567ffffffffffffffff8082111561069757600080fd5b818801915088601f8301126106ab57600080fd5b8135818111156106bd576106bd61062e565b604051601f8201601f19908116603f011681019083821181831017156106e5576106e561062e565b816040528281528b60208487010111156106fe57600080fd5b82602086016020830137600092810160200192909252509699959850939660800135949350505050565b600181811c9082168061073c57607f821691505b6020821081036102a757634e487b7160e01b600052602260045260246000fd5b634e487b7160e01b600052601160045260246000fd5b818103818111156107855761078561075c565b92915050565b634e487b7160e01b600052603260045260246000fd5b6000600182016107b3576107b361075c565b5060010190565b601f82111561080457600081815260208120601f850160051c810160208610156107e15750805b601f850160051c820191505b81811015610800578281556001016107ed565b5050505b505050565b815167ffffffffffffffff8111156108235761082361062e565b610837816108318454610728565b846107ba565b602080601f83116001811461086c57600084156108545750858301515b600019600386901b1c1916600185901b178555610800565b600085815260208120601f198616915b8281101561089b5788860151825594840194600190910190840161087c565b50858210156108b95787850151600019600388901b60f8161c191681555b5050505050600190811b01905550565b85815260a0602082015260006108e260a08301876104a9565b60408301959095525060608101929092526080909101529291505056fea26469706673582212200cc0d61c0cfe24d019e9e1db43ad38b549e7e5b98f3819358babeea528fe011d64736f6c63430008130033",
  "immutableReferences": {},
  "source": "// SPDX-License-Identifier: MIT\r\npragma solidity ^0.8.0;\r\n\r\ncontract Transaction {\r\n    struct TxLog {\r\n        uint txId;\r\n        address sender;\r\n        address receiver;\r\n        string materialName;\r\n        uint amount;\r\n        uint orderId;\r\n        uint timestamp;\r\n    }\r\n\r\n    uint public txCount;\r\n    mapping(uint => TxLog) public transactions;\r\n\r\n    event TransactionRecorded(\r\n        uint txId,\r\n        address indexed sender,\r\n        address indexed receiver,\r\n        string materialName,\r\n        uint amount,\r\n        uint orderId,\r\n        uint timestamp\r\n    );\r\n\r\n    function recordTransaction(\r\n        address sender,\r\n        address receiver,\r\n        uint amount,\r\n        string memory materialName,\r\n        uint orderId\r\n    ) external {\r\n        txCount++;\r\n        transactions[txCount] = TxLog(\r\n            txCount,\r\n            sender,\r\n            receiver,\r\n            materialName,\r\n            amount,\r\n            orderId,\r\n            block.timestamp\r\n        );\r\n\r\n        emit TransactionRecorded(\r\n            txCount,\r\n            sender,\r\n            receiver,\r\n            materialName,\r\n            amount,\r\n            orderId,\r\n            block.timestamp\r\n        );\r\n    }\r\n\r\n    function getAllTransactions() external view returns (TxLog[] memory) {\r\n        TxLog[] memory result = new TxLog[](txCount);\r\n        for (uint i = 1; i <= txCount; i++) {\r\n            result[i - 1] = transactions[i];\r\n        }\r\n        return result;\r\n    }\r\n}\r\n",
  "sourcePath": "D:\\Amrita\\SEM2\\BCT\\Supply-chain-main\\contracts\\Transaction.sol",
  "compiler": {
    "name": "solc",
    "version": "0.8.19+commit.7dd6d404.Emscripten.clang"
  },
  "schemaVersion": "3.4.16",
  "updatedAt": "2025-05-21T02:42:34.782Z",
  "networkType": "ethereum",
  "devdoc": {
    "kind": "dev",
    "methods": {},
    "version": 1
  },
  "userdoc": {
    "kind": "user",
    "methods": {},
    "version": 1
  }
}