{
  "contractName": "Utils",
  "abi": [
    {
      "inputs": [
        {
          "internalType": "enum Utils.Role",
          "name": "role",
          "type": "uint8"
        }
      ],
      "name": "roleToString",
      "outputs": [
        {
          "internalType": "string",
          "name": "",
          "type": "string"
        }
      ],
      "stateMutability": "pure",
      "type": "function",
      "constant": true
    }
  ],
  "bytecode": "0x608060405234801561001057600080fd5b5061027a806100206000396000f3fe608060405234801561001057600080fd5b506004361061002b5760003560e01c80637946bb0b14610030575b600080fd5b61004361003e3660046101b8565b610059565b60405161005091906101e0565b60405180910390f35b6060600082600481111561006f5761006f61022e565b0361009857505060408051808201909152600881526729bab8383634b2b960c11b602082015290565b60018260048111156100ac576100ac61022e565b036100d957505060408051808201909152600c81526b26b0b73ab330b1ba3ab932b960a11b602082015290565b60028260048111156100ed576100ed61022e565b036101115750506040805180820190915260038152624d524f60e81b602082015290565b60038260048111156101255761012561022e565b0361014d5750506040805180820190915260078152664169726c696e6560c81b602082015290565b60048260048111156101615761016161022e565b03610195575050604080518082019091526013815272526567756c61746f7279417574686f7269747960681b602082015290565b50506040805180820190915260078152662ab735b737bbb760c91b602082015290565b6000602082840312156101ca57600080fd5b8135600581106101d957600080fd5b9392505050565b600060208083528351808285015260005b8181101561020d578581018301518582016040015282016101f1565b506000604082860101526040601f19601f8301168501019250505092915050565b634e487b7160e01b600052602160045260246000fdfea2646970667358221220592629531880ed92c5ae0ed6ef6481fadf844b5db3f036d4d36096009c176c8f64736f6c63430008130033",
  "immutableReferences": {},
  "source": "// SPDX-License-Identifier: MIT\r\npragma solidity ^0.8.0;\r\n\r\nimport \"./Fine.sol\";\r\n\r\ncontract Utils {\r\n    enum Role { Supplier, Manufacturer, MRO, Airline, RegulatoryAuthority }\r\n\r\n    function roleToString(Role role) external pure returns (string memory) {\r\n        if (role == Role.Supplier) return \"Supplier\";\r\n        if (role == Role.Manufacturer) return \"Manufacturer\";\r\n        if (role == Role.MRO) return \"MRO\";\r\n        if (role == Role.Airline) return \"Airline\";\r\n        if (role == Role.RegulatoryAuthority) return \"RegulatoryAuthority\";\r\n        return \"Unknown\";\r\n    }\r\n}\r\n",
  "sourcePath": "D:\\Amrita\\SEM2\\BCT\\Supply-chain-main\\contracts\\Utils.sol",
  "compiler": {
    "name": "solc",
    "version": "0.8.19+commit.7dd6d404.Emscripten.clang"
  },
  "schemaVersion": "3.4.16",
  "updatedAt": "2025-05-21T03:59:27.068Z",
  "networkType": "ethereum",
  "devdoc": {
    "kind": "dev",
    "methods": {},
    "version": 1
  },
  "userdoc": {
    "kind": "user",
    "methods": {},
    "version": 1
  }
}