{
  "contractName": "Fine",
  "abi": [
    {
      "anonymous": false,
      "inputs": [
        {
          "indexed": true,
          "internalType": "uint256",
          "name": "orderId",
          "type": "uint256"
        },
        {
          "indexed": false,
          "internalType": "address",
          "name": "manufacturer",
          "type": "address"
        },
        {
          "indexed": false,
          "internalType": "uint256",
          "name": "fineAmount",
          "type": "uint256"
        }
      ],
      "name": "FineIssued",
      "type": "event"
    },
    {
      "inputs": [],
      "name": "fineCount",
      "outputs": [
        {
          "internalType": "uint256",
          "name": "",
          "type": "uint256"
        }
      ],
      "stateMutability": "view",
      "type": "function",
      "constant": true
    },
    {
      "inputs": [
        {
          "internalType": "uint256",
          "name": "",
          "type": "uint256"
        }
      ],
      "name": "fines",
      "outputs": [
        {
          "internalType": "address",
          "name": "manufacturer",
          "type": "address"
        },
        {
          "internalType": "address",
          "name": "mro",
          "type": "address"
        },
        {
          "internalType": "uint256",
          "name": "orderId",
          "type": "uint256"
        },
        {
          "internalType": "uint256",
          "name": "requiredDeliveryDate",
          "type": "uint256"
        },
        {
          "internalType": "uint256",
          "name": "actualDeliveryDate",
          "type": "uint256"
        },
        {
          "internalType": "uint256",
          "name": "fineAmount",
          "type": "uint256"
        }
      ],
      "stateMutability": "view",
      "type": "function",
      "constant": true
    },
    {
      "inputs": [
        {
          "internalType": "address",
          "name": "manufacturer",
          "type": "address"
        },
        {
          "internalType": "address",
          "name": "mro",
          "type": "address"
        },
        {
          "internalType": "uint256",
          "name": "orderId",
          "type": "uint256"
        },
        {
          "internalType": "uint256",
          "name": "requiredDeliveryDate",
          "type": "uint256"
        },
        {
          "internalType": "uint256",
          "name": "actualDeliveryDate",
          "type": "uint256"
        },
        {
          "internalType": "uint256",
          "name": "fineAmount",
          "type": "uint256"
        }
      ],
      "name": "issueFine",
      "outputs": [],
      "stateMutability": "nonpayable",
      "type": "function"
    },
    {
      "inputs": [],
      "name": "getAllFines",
      "outputs": [
        {
          "components": [
            {
              "internalType": "address",
              "name": "manufacturer",
              "type": "address"
            },
            {
              "internalType": "address",
              "name": "mro",
              "type": "address"
            },
            {
              "internalType": "uint256",
              "name": "orderId",
              "type": "uint256"
            },
            {
              "internalType": "uint256",
              "name": "requiredDeliveryDate",
              "type": "uint256"
            },
            {
              "internalType": "uint256",
              "name": "actualDeliveryDate",
              "type": "uint256"
            },
            {
              "internalType": "uint256",
              "name": "fineAmount",
              "type": "uint256"
            }
          ],
          "internalType": "struct Fine.FineInfo[]",
          "name": "",
          "type": "tuple[]"
        }
      ],
      "stateMutability": "view",
      "type": "function",
      "constant": true
    }
  ],
  "bytecode": "0x608060405234801561001057600080fd5b5061050a806100206000396000f3fe608060405234801561001057600080fd5b506004361061004c5760003560e01c80636a2f5e84146100515780637532f3f214610066578063900e2060146100f3578063f2f9a3c01461010a575b600080fd5b61006461005f36600461036e565b61011f565b005b6100b66100743660046103c3565b6000602081905290815260409020805460018201546002830154600384015460048501546005909501546001600160a01b039485169593909416939192909186565b604080516001600160a01b039788168152969095166020870152938501929092526060840152608083015260a082015260c0015b60405180910390f35b6100fc60015481565b6040519081526020016100ea565b610112610208565b6040516100ea91906103dc565b6001805490600061012f83610476565b90915550506040805160c0810182526001600160a01b0388811680835288821660208085019182528486018a8152606086018a8152608087018a815260a088018a81526001805460009081528087528b902099518a54908a166001600160a01b0319918216178b559651908a018054919099169616959095179096559051600287015551600386015592516004850155516005909301929092558251918252810183905285917fd73f94d2b7859afd9463677349f595273b38a1aeb686954d93871c89064b21b8910160405180910390a2505050505050565b6060600060015467ffffffffffffffff8111156102275761022761048f565b6040519080825280602002602001820160405280156102a357816020015b6102906040518060c0016040528060006001600160a01b0316815260200160006001600160a01b03168152602001600081526020016000815260200160008152602001600081525090565b8152602001906001900390816102455790505b50905060015b600154811161034c5760008181526020818152604091829020825160c08101845281546001600160a01b0390811682526001808401549091169382019390935260028201549381019390935260038101546060840152600481015460808401526005015460a0830152839061031e90846104a5565b8151811061032e5761032e6104be565b6020026020010181905250808061034490610476565b9150506102a9565b50919050565b80356001600160a01b038116811461036957600080fd5b919050565b60008060008060008060c0878903121561038757600080fd5b61039087610352565b955061039e60208801610352565b95989597505050506040840135936060810135936080820135935060a0909101359150565b6000602082840312156103d557600080fd5b5035919050565b602080825282518282018190526000919060409081850190868401855b8281101561045357815180516001600160a01b0390811686528782015116878601528581015186860152606080820151908601526080808201519086015260a0908101519085015260c090930192908501906001016103f9565b5091979650505050505050565b634e487b7160e01b600052601160045260246000fd5b60006001820161048857610488610460565b5060010190565b634e487b7160e01b600052604160045260246000fd5b818103818111156104b8576104b8610460565b92915050565b634e487b7160e01b600052603260045260246000fdfea2646970667358221220d2d5caefdef6c3accbe6f20eae3d9a3fa97d9c16e35642bcaeaf62b9af0ca5ea64736f6c63430008130033",
  "immutableReferences": {},
  "source": "// SPDX-License-Identifier: MIT\r\npragma solidity ^0.8.0;\r\n\r\ncontract Fine {\r\n    struct FineInfo {\r\n        address manufacturer;\r\n        address mro;\r\n        uint orderId;\r\n        uint requiredDeliveryDate;\r\n        uint actualDeliveryDate;\r\n        uint fineAmount;\r\n    }\r\n\r\n\r\n    mapping(uint => FineInfo) public fines;\r\n    uint public fineCount;\r\n\r\n    event FineIssued(uint indexed orderId, address manufacturer, uint fineAmount);\r\n\r\n    function issueFine(\r\n        address manufacturer,\r\n        address mro,\r\n        uint orderId,\r\n        uint requiredDeliveryDate,\r\n        uint actualDeliveryDate,\r\n        uint fineAmount\r\n    ) external {\r\n        fineCount++;\r\n        fines[fineCount] = FineInfo(\r\n            manufacturer,\r\n            mro,\r\n            orderId,\r\n            requiredDeliveryDate,\r\n            actualDeliveryDate,\r\n            fineAmount\r\n        );\r\n\r\n        emit FineIssued(orderId, manufacturer, fineAmount);\r\n    }\r\n\r\n    function getAllFines() external view returns (FineInfo[] memory) {\r\n        FineInfo[] memory all = new FineInfo[](fineCount);\r\n        for (uint i = 1; i <= fineCount; i++) {\r\n            all[i - 1] = fines[i];\r\n        }\r\n        return all;\r\n    }\r\n}\r\n",
  "sourcePath": "D:\\Amrita\\SEM2\\BCT\\Supply-chain-main\\contracts\\Fine.sol",
  "compiler": {
    "name": "solc",
    "version": "0.8.19+commit.7dd6d404.Emscripten.clang"
  },
  "schemaVersion": "3.4.16",
  "updatedAt": "2025-05-21T02:42:34.786Z",
  "networkType": "ethereum",
  "devdoc": {
    "kind": "dev",
    "methods": {},
    "version": 1
  },
  "userdoc": {
    "kind": "user",
    "methods": {},
    "version": 1
  }
}