{
  "contractName": "Manufacturer",
  "abi": [
    {
      "inputs": [
        {
          "internalType": "address",
          "name": "_admin",
          "type": "address"
        },
        {
          "internalType": "address",
          "name": "_supplier",
          "type": "address"
        },
        {
          "internalType": "address",
          "name": "_transaction",
          "type": "address"
        }
      ],
      "stateMutability": "nonpayable",
      "type": "constructor"
    },
    {
      "anonymous": false,
      "inputs": [
        {
          "indexed": true,
          "internalType": "uint256",
          "name": "id",
          "type": "uint256"
        },
        {
          "indexed": false,
          "internalType": "string",
          "name": "materialName",
          "type": "string"
        },
        {
          "indexed": false,
          "internalType": "uint256",
          "name": "quantity",
          "type": "uint256"
        },
        {
          "indexed": false,
          "internalType": "uint256",
          "name": "totalPrice",
          "type": "uint256"
        },
        {
          "indexed": true,
          "internalType": "address",
          "name": "supplier",
          "type": "address"
        },
        {
          "indexed": true,
          "internalType": "address",
          "name": "manufacturer",
          "type": "address"
        }
      ],
      "name": "OrderPlaced",
      "type": "event"
    },
    {
      "inputs": [],
      "name": "adminContract",
      "outputs": [
        {
          "internalType": "contract Admin",
          "name": "",
          "type": "address"
        }
      ],
      "stateMutability": "view",
      "type": "function",
      "constant": true
    },
    {
      "inputs": [],
      "name": "orderCounter",
      "outputs": [
        {
          "internalType": "uint256",
          "name": "",
          "type": "uint256"
        }
      ],
      "stateMutability": "view",
      "type": "function",
      "constant": true
    },
    {
      "inputs": [
        {
          "internalType": "uint256",
          "name": "",
          "type": "uint256"
        }
      ],
      "name": "orders",
      "outputs": [
        {
          "internalType": "uint256",
          "name": "id",
          "type": "uint256"
        },
        {
          "internalType": "string",
          "name": "materialName",
          "type": "string"
        },
        {
          "internalType": "uint256",
          "name": "quantity",
          "type": "uint256"
        },
        {
          "internalType": "uint256",
          "name": "totalPrice",
          "type": "uint256"
        },
        {
          "internalType": "address",
          "name": "manufacturer",
          "type": "address"
        },
        {
          "internalType": "address",
          "name": "supplier",
          "type": "address"
        },
        {
          "internalType": "string",
          "name": "status",
          "type": "string"
        }
      ],
      "stateMutability": "view",
      "type": "function",
      "constant": true
    },
    {
      "inputs": [],
      "name": "supplierContract",
      "outputs": [
        {
          "internalType": "contract Supplier",
          "name": "",
          "type": "address"
        }
      ],
      "stateMutability": "view",
      "type": "function",
      "constant": true
    },
    {
      "inputs": [],
      "name": "transactionContract",
      "outputs": [
        {
          "internalType": "contract Transaction",
          "name": "",
          "type": "address"
        }
      ],
      "stateMutability": "view",
      "type": "function",
      "constant": true
    },
    {
      "inputs": [
        {
          "internalType": "string",
          "name": "materialName",
          "type": "string"
        },
        {
          "internalType": "uint256",
          "name": "quantity",
          "type": "uint256"
        },
        {
          "internalType": "address",
          "name": "supplier",
          "type": "address"
        },
        {
          "internalType": "uint256",
          "name": "pricePerKg",
          "type": "uint256"
        }
      ],
      "name": "placeOrder",
      "outputs": [],
      "stateMutability": "payable",
      "type": "function",
      "payable": true
    },
    {
      "inputs": [],
      "name": "getAllOrders",
      "outputs": [
        {
          "components": [
            {
              "internalType": "uint256",
              "name": "id",
              "type": "uint256"
            },
            {
              "internalType": "string",
              "name": "materialName",
              "type": "string"
            },
            {
              "internalType": "uint256",
              "name": "quantity",
              "type": "uint256"
            },
            {
              "internalType": "uint256",
              "name": "totalPrice",
              "type": "uint256"
            },
            {
              "internalType": "address",
              "name": "manufacturer",
              "type": "address"
            },
            {
              "internalType": "address",
              "name": "supplier",
              "type": "address"
            },
            {
              "internalType": "string",
              "name": "status",
              "type": "string"
            }
          ],
          "internalType": "struct Manufacturer.Order[]",
          "name": "",
          "type": "tuple[]"
        }
      ],
      "stateMutability": "view",
      "type": "function",
      "constant": true
    }
  ],
  "bytecode": "0x608060405234801561001057600080fd5b50604051610f27380380610f2783398101604081905261002f9161008d565b600080546001600160a01b039485166001600160a01b0319918216179091556001805493851693821693909317909255600280549190931691161790556100d0565b80516001600160a01b038116811461008857600080fd5b919050565b6000806000606084860312156100a257600080fd5b6100ab84610071565b92506100b960208501610071565b91506100c760408501610071565b90509250925092565b610e48806100df6000396000f3fe6080604052600436106100705760003560e01c8063a85c38ef1161004e578063a85c38ef146100e9578063b789bf521461011c578063c05c5e9414610140578063cacdba401461016057600080fd5b80631f45275b146100755780636d2a0fcd146100b25780637bea0d1c146100c7575b600080fd5b34801561008157600080fd5b50600254610095906001600160a01b031681565b6040516001600160a01b0390911681526020015b60405180910390f35b6100c56100c03660046108f8565b610180565b005b3480156100d357600080fd5b506100dc6104f4565b6040516100a99190610a11565b3480156100f557600080fd5b50610109610104366004610add565b61076a565b6040516100a99796959493929190610af6565b34801561012857600080fd5b5061013260035481565b6040519081526020016100a9565b34801561014c57600080fd5b50600054610095906001600160a01b031681565b34801561016c57600080fd5b50600154610095906001600160a01b031681565b6000546040516324b6deb960e11b81526001600160a01b039091169063496dbd72906101b3903390600190600401610b54565b602060405180830381865afa1580156101d0573d6000803e3d6000fd5b505050506040513d601f19601f820116820180604052508101906101f49190610b8f565b6102455760405162461bcd60e51b815260206004820152601960248201527f4d616e756661637475726572206e6f742076657269666965640000000000000060448201526064015b60405180910390fd5b60006102518285610bce565b90508034146102975760405162461bcd60e51b8152602060048201526012602482015271125b98dbdc9c9958dd08115512081cd95b9d60721b604482015260640161023c565b60015460405163c1b0012b60e01b81526001600160a01b039091169063c1b0012b906102cd908890889033908790600401610beb565b600060405180830381600087803b1580156102e757600080fd5b505af11580156102fb573d6000803e3d6000fd5b50506003805492509050600061031083610c23565b90915550506040805160e0810182526003548082526020808301898152838501899052606084018690523360808501526001600160a01b03881660a08501528451808601865260068152651c1b1858d95960d21b8184015260c08501526000928352600490915292902081518155915190919060018201906103929082610cbf565b50604082015160028201556060820151600382015560808201516004820180546001600160a01b039283166001600160a01b03199182161790915560a084015160058401805491909316911617905560c082015160068201906103f59082610cbf565b505060025460035460405163ef4e7e1360e01b81526001600160a01b03909216925063ef4e7e1391610432913391889187918c9190600401610d7f565b600060405180830381600087803b15801561044c57600080fd5b505af1158015610460573d6000803e3d6000fd5b50506040516001600160a01b038616925083156108fc02915083906000818181858888f1935050505015801561049a573d6000803e3d6000fd5b50336001600160a01b0316836001600160a01b03166003547f27eed8c2b12d31b355c4dda5ea3c9720daf9b26cc1f6254adfda28023bdb9a9a8888866040516104e593929190610dc4565b60405180910390a45050505050565b6060600060035467ffffffffffffffff811115610513576105136108c6565b60405190808252806020026020018201604052801561059657816020015b6105836040518060e001604052806000815260200160608152602001600081526020016000815260200160006001600160a01b0316815260200160006001600160a01b03168152602001606081525090565b8152602001906001900390816105315790505b50905060005b60035481101561076457600460006105b5836001610de9565b81526020019081526020016000206040518060e0016040529081600082015481526020016001820180546105e890610c3c565b80601f016020809104026020016040519081016040528092919081815260200182805461061490610c3c565b80156106615780601f1061063657610100808354040283529160200191610661565b820191906000526020600020905b81548152906001019060200180831161064457829003601f168201915b5050509183525050600282015460208201526003820154604082015260048201546001600160a01b039081166060830152600583015416608082015260068201805460a0909201916106b290610c3c565b80601f01602080910402602001604051908101604052809291908181526020018280546106de90610c3c565b801561072b5780601f106107005761010080835404028352916020019161072b565b820191906000526020600020905b81548152906001019060200180831161070e57829003601f168201915b50505050508152505082828151811061074657610746610dfc565b6020026020010181905250808061075c90610c23565b91505061059c565b50919050565b6004602052600090815260409020805460018201805491929161078c90610c3c565b80601f01602080910402602001604051908101604052809291908181526020018280546107b890610c3c565b80156108055780601f106107da57610100808354040283529160200191610805565b820191906000526020600020905b8154815290600101906020018083116107e857829003601f168201915b5050506002840154600385015460048601546005870154600688018054979894979396506001600160a01b0392831695509116929161084390610c3c565b80601f016020809104026020016040519081016040528092919081815260200182805461086f90610c3c565b80156108bc5780601f10610891576101008083540402835291602001916108bc565b820191906000526020600020905b81548152906001019060200180831161089f57829003601f168201915b5050505050905087565b634e487b7160e01b600052604160045260246000fd5b80356001600160a01b03811681146108f357600080fd5b919050565b6000806000806080858703121561090e57600080fd5b843567ffffffffffffffff8082111561092657600080fd5b818701915087601f83011261093a57600080fd5b81358181111561094c5761094c6108c6565b604051601f8201601f19908116603f01168101908382118183101715610974576109746108c6565b816040528281528a602084870101111561098d57600080fd5b826020860160208301376000602084830101528098505050505050602085013592506109bb604086016108dc565b9396929550929360600135925050565b6000815180845260005b818110156109f1576020818501810151868301820152016109d5565b506000602082860101526020601f19601f83011685010191505092915050565b60006020808301818452808551808352604092508286019150828160051b87010184880160005b83811015610acf57603f19898403018552815160e08151855288820151818a870152610a66828701826109cb565b838a0151878b0152606080850151908801526080808501516001600160a01b039081169189019190915260a0808601519091169088015260c093840151878203948801949094529150610abb905081836109cb565b968901969450505090860190600101610a38565b509098975050505050505050565b600060208284031215610aef57600080fd5b5035919050565b87815260e060208201526000610b0f60e08301896109cb565b60408301889052606083018790526001600160a01b038681166080850152851660a084015282810360c0840152610b4681856109cb565b9a9950505050505050505050565b6001600160a01b03831681526040810160058310610b8257634e487b7160e01b600052602160045260246000fd5b8260208301529392505050565b600060208284031215610ba157600080fd5b81518015158114610bb157600080fd5b9392505050565b634e487b7160e01b600052601160045260246000fd5b8082028115828204841417610be557610be5610bb8565b92915050565b608081526000610bfe60808301876109cb565b6020830195909552506001600160a01b03929092166040830152606090910152919050565b600060018201610c3557610c35610bb8565b5060010190565b600181811c90821680610c5057607f821691505b60208210810361076457634e487b7160e01b600052602260045260246000fd5b601f821115610cba57600081815260208120601f850160051c81016020861015610c975750805b601f850160051c820191505b81811015610cb657828155600101610ca3565b5050505b505050565b815167ffffffffffffffff811115610cd957610cd96108c6565b610ced81610ce78454610c3c565b84610c70565b602080601f831160018114610d225760008415610d0a5750858301515b600019600386901b1c1916600185901b178555610cb6565b600085815260208120601f198616915b82811015610d5157888601518255948401946001909101908401610d32565b5085821015610d6f5787850151600019600388901b60f8161c191681555b5050505050600190811b01905550565b6001600160a01b038681168252851660208201526040810184905260a060608201819052600090610db2908301856109cb565b90508260808301529695505050505050565b606081526000610dd760608301866109cb565b60208301949094525060400152919050565b80820180821115610be557610be5610bb8565b634e487b7160e01b600052603260045260246000fdfea26469706673582212206d515c93ac6d177b3fd90a81027b3086923eed1ddbc55cd9058b854d85bc77ba64736f6c63430008130033",
  "immutableReferences": {},
  "source": "// SPDX-License-Identifier: MIT\r\npragma solidity ^0.8.6;\r\n\r\nimport \"./Admin.sol\";\r\nimport \"./Supplier.sol\";\r\nimport \"./Transaction.sol\";\r\n\r\ncontract Manufacturer {\r\n    Admin public adminContract;\r\n    Supplier public supplierContract;\r\n    Transaction public transactionContract;\r\n\r\n    constructor(address _admin, address _supplier, address _transaction) {\r\n        adminContract = Admin(_admin);\r\n        supplierContract = Supplier(_supplier);\r\n        transactionContract = Transaction(_transaction);\r\n    }\r\n\r\n    struct Order {\r\n        uint256 id;\r\n        string materialName;\r\n        uint256 quantity;\r\n        uint256 totalPrice;\r\n        address manufacturer;\r\n        address supplier;\r\n        string status; // placed, delivered\r\n    }\r\n\r\n    uint256 public orderCounter;\r\n    mapping(uint256 => Order) public orders;\r\n\r\n    event OrderPlaced(\r\n        uint256 indexed id,\r\n        string materialName,\r\n        uint256 quantity,\r\n        uint256 totalPrice,\r\n        address indexed supplier,\r\n        address indexed manufacturer\r\n    );\r\n\r\n    modifier onlyVerifiedManufacturer() {\r\n        require(adminContract.isVerified(msg.sender, Admin.Role.Manufacturer), \"Manufacturer not verified\"); // 1 => Manufacturer\r\n        _;\r\n    }\r\n\r\n    function placeOrder(\r\n        string memory materialName,\r\n        uint256 quantity,\r\n        address supplier,\r\n        uint256 pricePerKg\r\n    ) external payable onlyVerifiedManufacturer {\r\n        uint256 totalPrice = quantity * pricePerKg;\r\n        require(msg.value == totalPrice, \"Incorrect ETH sent\");\r\n\r\n        // Call Supplier.receiveOrder\r\n        supplierContract.receiveOrder(materialName, quantity, msg.sender, totalPrice);\r\n\r\n        orderCounter++;\r\n        orders[orderCounter] = Order(\r\n            orderCounter,\r\n            materialName,\r\n            quantity,\r\n            totalPrice,\r\n            msg.sender,\r\n            supplier,\r\n            \"placed\"\r\n        );\r\n\r\n        // Log transaction\r\n        transactionContract.recordTransaction(\r\n            msg.sender,\r\n            supplier,\r\n            totalPrice,\r\n            materialName,\r\n            orderCounter\r\n        );\r\n\r\n        // Transfer payment\r\n        payable(supplier).transfer(totalPrice);\r\n\r\n        emit OrderPlaced(orderCounter, materialName, quantity, totalPrice, supplier, msg.sender);\r\n    }\r\n\r\n    function getAllOrders() external view returns (Order[] memory) {\r\n        Order[] memory result = new Order[](orderCounter);\r\n        for (uint256 i = 0; i < orderCounter; i++) {\r\n            result[i] = orders[i + 1];\r\n        }\r\n        return result;\r\n    }\r\n}\r\n",
  "sourcePath": "D:\\Amrita\\SEM2\\BCT\\Supply-chain-main\\contracts\\Manufacturer.sol",
  "compiler": {
    "name": "solc",
    "version": "0.8.19+commit.7dd6d404.Emscripten.clang"
  },
  "schemaVersion": "3.4.16",
  "updatedAt": "2025-05-21T03:59:27.038Z",
  "networkType": "ethereum",
  "devdoc": {
    "kind": "dev",
    "methods": {},
    "version": 1
  },
  "userdoc": {
    "kind": "user",
    "methods": {},
    "version": 1
  }
}