{
  "contractName": "Order",
  "abi": [
    {
      "anonymous": false,
      "inputs": [
        {
          "indexed": false,
          "internalType": "uint256",
          "name": "orderId",
          "type": "uint256"
        },
        {
          "indexed": false,
          "internalType": "address",
          "name": "supplier",
          "type": "address"
        },
        {
          "indexed": false,
          "internalType": "address",
          "name": "manufacturer",
          "type": "address"
        },
        {
          "indexed": false,
          "internalType": "string",
          "name": "materialName",
          "type": "string"
        },
        {
          "indexed": false,
          "internalType": "uint256",
          "name": "quantity",
          "type": "uint256"
        },
        {
          "indexed": false,
          "internalType": "uint256",
          "name": "timestamp",
          "type": "uint256"
        }
      ],
      "name": "OrderCreated",
      "type": "event"
    },
    {
      "inputs": [],
      "name": "orderCount",
      "outputs": [
        {
          "internalType": "uint256",
          "name": "",
          "type": "uint256"
        }
      ],
      "stateMutability": "view",
      "type": "function"
    },
    {
      "inputs": [
        {
          "internalType": "uint256",
          "name": "",
          "type": "uint256"
        }
      ],
      "name": "orders",
      "outputs": [
        {
          "internalType": "uint256",
          "name": "orderId",
          "type": "uint256"
        },
        {
          "internalType": "address",
          "name": "supplier",
          "type": "address"
        },
        {
          "internalType": "address",
          "name": "manufacturer",
          "type": "address"
        },
        {
          "internalType": "string",
          "name": "materialName",
          "type": "string"
        },
        {
          "internalType": "uint256",
          "name": "quantity",
          "type": "uint256"
        },
        {
          "internalType": "string",
          "name": "status",
          "type": "string"
        },
        {
          "internalType": "uint256",
          "name": "timestamp",
          "type": "uint256"
        }
      ],
      "stateMutability": "view",
      "type": "function"
    },
    {
      "inputs": [
        {
          "internalType": "address",
          "name": "supplier",
          "type": "address"
        },
        {
          "internalType": "address",
          "name": "manufacturer",
          "type": "address"
        },
        {
          "internalType": "string",
          "name": "materialName",
          "type": "string"
        },
        {
          "internalType": "uint256",
          "name": "quantity",
          "type": "uint256"
        }
      ],
      "name": "createOrder",
      "outputs": [],
      "stateMutability": "nonpayable",
      "type": "function"
    },
    {
      "inputs": [
        {
          "internalType": "uint256",
          "name": "orderId",
          "type": "uint256"
        },
        {
          "internalType": "string",
          "name": "status",
          "type": "string"
        }
      ],
      "name": "updateOrderStatus",
      "outputs": [],
      "stateMutability": "nonpayable",
      "type": "function"
    }
  ],
  "bytecode": "0x608060405234801561001057600080fd5b506107de806100206000396000f3fe608060405234801561001057600080fd5b506004361061004c5760003560e01c8063205fdde6146100515780632453ffa8146100665780636699b69e14610082578063a85c38ef14610095575b600080fd5b61006461005f36600461046b565b6100bb565b005b61006f60015481565b6040519081526020015b60405180910390f35b6100646100903660046104ce565b610133565b6100a86100a3366004610534565b61026f565b6040516100799796959493929190610593565b60008281526020819052604081205490036101135760405162461bcd60e51b815260206004820152601460248201527313dc99195c88191bd95cc81b9bdd08195e1a5cdd60621b604482015260640160405180910390fd5b600082815260208190526040902060050161012e828261067a565b505050565b600180549060006101438361073a565b90915550506040805160e081018252600180548083526001600160a01b038881166020808601918252898316868801908152606087018a8152608088018a90528851808a018a52600781526670656e64696e6760c81b8185015260a08901524260c08901526000958652918590529690932085518155905193810180546001600160a01b031990811695841695909517905594516002860180549094169116179091555190919060038201906101f9908261067a565b506080820151600482015560a08201516005820190610218908261067a565b5060c082015181600601559050507fed04ad24d21c67a9b6c83ecdde6d8b75ee13758916fe0ed83d93b7b89da3d2b5600154858585854260405161026196959493929190610761565b60405180910390a150505050565b600060208190529081526040902080546001820154600283015460038401805493946001600160a01b039384169493909216926102ab906105f2565b80601f01602080910402602001604051908101604052809291908181526020018280546102d7906105f2565b80156103245780601f106102f957610100808354040283529160200191610324565b820191906000526020600020905b81548152906001019060200180831161030757829003601f168201915b50505050509080600401549080600501805461033f906105f2565b80601f016020809104026020016040519081016040528092919081815260200182805461036b906105f2565b80156103b85780601f1061038d576101008083540402835291602001916103b8565b820191906000526020600020905b81548152906001019060200180831161039b57829003601f168201915b5050505050908060060154905087565b634e487b7160e01b600052604160045260246000fd5b600082601f8301126103ef57600080fd5b813567ffffffffffffffff8082111561040a5761040a6103c8565b604051601f8301601f19908116603f01168101908282118183101715610432576104326103c8565b8160405283815286602085880101111561044b57600080fd5b836020870160208301376000602085830101528094505050505092915050565b6000806040838503121561047e57600080fd5b82359150602083013567ffffffffffffffff81111561049c57600080fd5b6104a8858286016103de565b9150509250929050565b80356001600160a01b03811681146104c957600080fd5b919050565b600080600080608085870312156104e457600080fd5b6104ed856104b2565b93506104fb602086016104b2565b9250604085013567ffffffffffffffff81111561051757600080fd5b610523878288016103de565b949793965093946060013593505050565b60006020828403121561054657600080fd5b5035919050565b6000815180845260005b8181101561057357602081850181015186830182015201610557565b506000602082860101526020601f19601f83011685010191505092915050565b8781526001600160a01b0387811660208301528616604082015260e0606082018190526000906105c59083018761054d565b85608084015282810360a08401526105dd818661054d565b9150508260c083015298975050505050505050565b600181811c9082168061060657607f821691505b60208210810361062657634e487b7160e01b600052602260045260246000fd5b50919050565b601f82111561012e57600081815260208120601f850160051c810160208610156106535750805b601f850160051c820191505b818110156106725782815560010161065f565b505050505050565b815167ffffffffffffffff811115610694576106946103c8565b6106a8816106a284546105f2565b8461062c565b602080601f8311600181146106dd57600084156106c55750858301515b600019600386901b1c1916600185901b178555610672565b600085815260208120601f198616915b8281101561070c578886015182559484019460019091019084016106ed565b508582101561072a5787850151600019600388901b60f8161c191681555b5050505050600190811b01905550565b60006001820161075a57634e487b7160e01b600052601160045260246000fd5b5060010190565b8681526001600160a01b0386811660208301528516604082015260c0606082018190526000906107939083018661054d565b60808301949094525060a0015294935050505056fea2646970667358221220d18c5f2a9beb514fea4b4a636b494920a616abd089226daa29d1d532fc96589364736f6c63430008130033",
  "immutableReferences": {},
  "source": "// SPDX-License-Identifier: MIT\r\npragma solidity ^0.8.0;\r\n\r\ncontract Order {\r\n    struct OrderDetails {\r\n        uint orderId;\r\n        address supplier;\r\n        address manufacturer;\r\n        string materialName;\r\n        uint quantity;\r\n        string status;\r\n        uint timestamp;\r\n    }\r\n\r\n    mapping(uint => OrderDetails) public orders;\r\n    uint public orderCount;\r\n\r\n    event OrderCreated(uint orderId, address supplier, address manufacturer, string materialName, uint quantity, uint timestamp);\r\n\r\n    function createOrder(address supplier, address manufacturer, string memory materialName, uint quantity) external {\r\n        orderCount++;\r\n        orders[orderCount] = OrderDetails(orderCount, supplier, manufacturer, materialName, quantity, \"pending\", block.timestamp);\r\n        emit OrderCreated(orderCount, supplier, manufacturer, materialName, quantity, block.timestamp);\r\n    }\r\n\r\n    function updateOrderStatus(uint orderId, string memory status) external {\r\n        require(orders[orderId].orderId != 0, \"Order does not exist\");\r\n        orders[orderId].status = status;\r\n    }\r\n}",
  "sourcePath": "D:\\Amrita\\SEM2\\BCT\\Supply-chain-main\\contracts\\Order.sol",
  "compiler": {
    "name": "solc",
    "version": "0.8.19+commit.7dd6d404.Emscripten.clang"
  },
  "schemaVersion": "3.4.16",
  "updatedAt": "2025-05-21T02:42:31.500Z",
  "devdoc": {
    "kind": "dev",
    "methods": {},
    "version": 1
  },
  "userdoc": {
    "kind": "user",
    "methods": {},
    "version": 1
  }
}